S0150000574D4F535F4156525F436F64652E73726563A7
S11300000C9482000C94A1000C94A1000C94A10007
S11300100C94A1000C94A1000C94A1000C94A100D8
S11300200C94442B0C94FE2A0C94A1000C94A10073
S11300300C94A1000C94A1000C94A1000C94A100B8
S11300400C94A1000C94A1000C94A1000C94A100A8
S11300500C94A1000C94A1000C94A1000C94A10098
S11300600C9467300C94A1000C94A1000C94A10092
S11300700C94A1000C94A1000C94F22E0C94A100F9
S11300800C94A1000C94A1000C94A1000C94A10068
S11300900C94A1000C94A1000C94A1000C94A10058
S11300A00C94A1000C94A1000C94A1000C94A10048
S11300B00C94A1000C94172C0C94F52E0C94A10014
S11300C00C94A1000C94A1000C94A1000C94A10028
S11300D00C94A1000C94A1000C94A1000C94A10018
S11300E00C94A1000C94A1000C94A1000C94A10008
S11300F00C94A1000C94A1000C942C350C94A10038
S11301000C94A10011241FBECFEFCDBFDFE7DEBFEB
S113011012E4A0E0B0E4E2ECFFEC00E00BBF02C0AC
S113012007900D92A83BB107D9F723E4A8EBB2E4FA
S113013001C01D92A035B207E1F70E9450370C941C
S1130140DF670C94000088ED84BF84E98093680025
S11301500895CF93DF93CDB7DEB7A097CDBFDEBFB1
S113016080E294E020E2FC01258380E090E8ABEBA0
S1130170B4E489839A83AB83BC832BEA3AEA4AE2E8
S113018050E469817A818B819C810E94E963DC015E
S1130190CB018D839E83AF83B88789819A81AB819C
S11301A0BC819C01AD01BC01CD010E942062DC0137
S11301B0CB0189879A87AB87BC8720E030E040E891
S11301C05FE36D817E818F8198850E948C62882394
S11301D01CF481E08D87B2C020E03FEF4FE757E485
S11301E069857A858B859C850E94E46318160CF0DA
S11301F07BC020E030E04AE754E469817A818B8156
S11302009C810E949162DC01CB018E879F87A88B21
S1130210B98B20E030E04AEF54E46E857F8588890D
S113022099890E94E963DC01CB018A8B9B8BAC8B9F
S1130230BD8B20E030E040E85FE36A897B898C89EC
S11302409D890E948C6288232CF481E090E08E8B3F
S11302509F8B3FC020E03FEF4FE757E46A897B89DB
S11302608C899D890E94E46318164CF520E030E0E7
S113027040E251E46E857F85888999890E94E9630B
S1130280DC01CB01BC01CD010E940363DC01CB0185
S11302908E8B9F8B0FC088EC90E0888F998F888D10
S11302A0998D0197F1F7888F998F8E899F8901978E
S11302B08E8B9F8B8E899F89892B69F73FC06A89B2
S11302C07B898C899D890E940363DC01CB018E8B21
S11302D09F8B8E899F898A8F9B8F8A8D9B8D019797
S11302E0F1F78A8F9B8F2AC020E030E04FE753E478
S11302F06D817E818F8198850E94E4631816ACF429
S113030069857A858B859C850E940363DC01CB011A
S11303108C8F9D8F8C8D9D8D8E8F9F8F8E8D9F8DBD
S11303200197F1F78E8F9F8F0FC06D817E818F8132
S113033098850E940363DC01CB018D878D8588A39A
S113034088A18A95F1F788A380E294E020E2FC0179
S113035026830000A096CDBFDEBFDF91CF91089524
S1130360CF93DF93CDB7DEB780E094E021E0FC01CA
S1130370218380E294E021E0FC01218380E494E085
S113038021E0FC01218380EA94E020E1FC01218347
S113039080EE95E020EE35E0F90122812061FC0138
S11303A0228380E498E025E03DE0FC01208731874A
S11303B080E098E021E433E0FC012087318780E687
S11303C098E021E433E0FC012087318780E298E063
S11303D021E433E0FC012087318780E098E020E0CD
S11303E038E0F90126812064FC01268380E098E04E
S11303F020E038E0F90126812068FC01268380E2B0
S113040098E020E238E0F90126812064FC0126838B
S113041080E298E020E238E0F90126812068FC01BE
S1130420268380E498E020E438E0F9012681206402
S1130430FC01268380E498E020E438E0F901268179
S11304402068FC01268380E698E020E638E0F90184
S113045026812064FC01268380E698E020E638E0CB
S1130460F90126812068FC0126830000DF91CF91E9
S11304700895CF93DF931F92CDB7DEB78983000031
S113048080E098E0FC018481882F90E080729927B5
S1130490892BB1F380E098E02981FC0122830000DC
S11304A00F90DF91CF910895CF93DF931F92CDB733
S11304B0DEB78983000080E698E0FC018481882F00
S11304C090E080729927892BB1F380E698E0298126
S11304D0FC01228300000F90DF91CF910895CF9308
S11304E0DF931F92CDB7DEB78983000080E298E0E6
S11304F0FC018481882F90E080729927892BB1F3C5
S113050080E298E02981FC01228300000F90DF91B2
S1130510CF910895CF93DF93CDB7DEB76C97CDBF5E
S1130520DEBF80E094E024E0FC01268380E090E0DC
S1130530A0E7B1E489839A83AB83BC8320E030E0F5
S11305404AEF54E469817A818B819C810E94E9633A
S1130550DC01CB018B8B9C8BAD8BBE8B20E030E020
S113056040E85FE36B897C898D899E890E948C6257
S113057088232CF481E090E08F8B988F3FC020E09B
S11305803FEF4FE757E46B897C898D899E890E94F0
S1130590E46318164CF520E030E040E251E4698150
S11305A07A818B819C810E94E963DC01CB01BC01CF
S11305B0CD010E940363DC01CB018F8B988F0FC0A8
S11305C088EC90E0898F9A8F898D9A8D0197F1F745
S11305D0898F9A8F8F89988D01978F8B988F8F89A8
S11305E0988D892B69F714C06B897C898D899E89C4
S11305F00E940363DC01CB018F8B988F8F89988DC8
S11306008B8F9C8F8B8D9C8D0197F1F78B8F9C8F9B
S113061080E094E024E0FC01258380E090E0AFE2F8
S1130620B5E48D839E83AF83B88720E030E04AEF42
S113063054E46D817E818F8198850E94E963DC0199
S1130640CB0189879A87AB87BC8720E030E040E8FC
S11306505FE369857A858B859C850E948C628823FB
S11306602CF481E090E08D879E873FC020E03FEF2F
S11306704FE757E469857A858B859C850E94E463FE
S113068018164CF520E030E040E251E46D817E81A3
S11306908F8198850E94E963DC01CB01BC01CD0107
S11306A00E940363DC01CB018D879E870FC088EC19
S11306B090E08F87988B8F8598890197F1F78F87C2
S11306C0988B8D859E8501978D879E878D859E85C8
S11306D0892B69F714C069857A858B859C850E946E
S11306E00363DC01CB018D879E878D859E85898B75
S11306F09A8B89899A890197F1F7898B9A8B109241
S1130700494310924E431092FC4281E08093414051
S1130710809141408093F342809141400E94610462
S1130720809141400E94610400006C96CDBFDEBF01
S1130730DF91CF910895CF93DF9300D01F92CDB76F
S1130740DEB78A839B8318C0809149438130A1F42A
S113075084E098E0FC018081882374F480E098E0D0
S1130760FC018081863029F4109249431092FA42A8
S113077003C081E08093FA4280914943813021F3A0
S11307808FEF898389810E9439028EEF8983898161
S11307900E943902198289810E9439028A818983DF
S11307A089810E94390281E08093494300002396A5
S11307B0CDBFDEBFDF91CF910895CF93DF9300D0FB
S11307C01F92CDB7DEB78A839B8318C080914E43B6
S11307D08130A1F484E698E0FC018081882374F4DC
S11307E080E698E0FC018081863029F410924E4323
S11307F01092484303C081E08093484380914E4364
S1130800813021F38FEF898389810E9454028EEF16
S1130810898389810E945402198289810E94540229
S11308208A81898389810E94540281E080934E43A6
S113083000002396CDBFDEBFDF91CF910895CF9303
S1130840DF9300D01F92CDB7DEB78A839B8318C095
S11308508091FC428130A1F484E298E0FC01808123
S1130860882374F480E298E0FC018081863029F4C6
S11308701092FC4210924F4303C081E080934F4397
S11308808091FC42813021F38FEF898389810E941A
S11308906F028EEF898389810E946F021982898198
S11308A00E946F028A81898389810E946F0281E09C
S11308B08093FC4200002396CDBFDEBFDF91CF9131
S11308C00895CF93DF9300D0CDB7DEB78A8348C0B5
S11308D0809149438130A1F484E098E0FC01808157
S11308E0882374F480E098E0FC018081863029F448
S11308F0109249431092FA4203C081E08093FA4275
S113090080914E438130A1F484E698E0FC0180811B
S1130910882374F480E698E0FC018081863029F411
S113092010924E431092484303C081E080934843A1
S11309308091FC428130A1F484E298E0FC01808142
S1130940882374F480E298E0FC018081863029F4E5
S11309501092FC4210924F4303C081E080934F43B6
S11309608091494391E0813009F090E020914E4319
S113097081E0213009F080E0892B282F30E090912C
S1130980FC4281E0913009F080E0882F90E0822BD6
S1130990932B892B09F09CCF8FEF898389810E9447
S11309A0390289810E94540289810E946F0286E67D
S11309B0898389810E94390289810E945402898134
S11309C00E946F02198289810E94390289810E94E2
S11309D0540289810E946F028A81898389810E94DD
S11309E0390289810E94540289810E946F0281E048
S11309F08093494381E080934E4381E08093FC429D
S1130A0000000F900F90DF91CF910895CF93DF9363
S1130A1000D0CDB7DEB78A8318C080914E438130B1
S1130A20A1F484E698E0FC018081882374F480E6D4
S1130A3098E0FC018081863029F410924E43109294
S1130A40484303C081E08093484380914E43813002
S1130A5021F38FEF898389810E94540286E689837A
S1130A6089810E945402198289810E9454028A81D8
S1130A70898389810E94540281E080934E4300005F
S1130A800F900F90DF91CF910895CF93DF93CDB75F
S1130A90DEB72C97CDBFDEBF8B879C8718C08091B3
S1130AA049438130A1F484E098E0FC0180818823EB
S1130AB074F480E098E0FC018081863029F410927F
S1130AC049431092FA4203C081E08093FA42809134
S1130AD04943813021F38B859C858B839C831982C8
S1130AE01A828B819C819C012E5F3F4F2B833C8318
S1130AF0FC01808191818D839E831EC08B819C81AA
S1130B009C012E5F3F4F2B833C83FC0180819181AC
S1130B108F8398878F819885892F992789878F81DB
S1130B208A8789850E9439028A850E9439028981CF
S1130B309A81019689839A8329813A818D819E8144
S1130B4028173907D8F281E08093494300002C9696
S1130B50CDBFDEBFDF91CF910895CF93DF93CDB7A3
S1130B60DEB72C97CDBFDEBF8B879C871AC08091E0
S1130B704E438130B1F484E698E0FC0180818823FF
S1130B8084F480E698E0FC018081863029F4109298
S1130B904E431092484305C010924E4381E0809327
S1130BA0484380914E43813011F38B859C858B8320
S1130BB09C8319821A828B819C819C012E5F3F4FFA
S1130BC02B833C83FC01808191818D839E831EC095
S1130BD08B819C819C012E5F3F4F2B833C83FC01C6
S1130BE0808191818F8398878F819885892F992718
S1130BF089878F818A8789850E9454028A850E9409
S1130C00540289819A81019689839A8329813A8140
S1130C108D819E8128173907D8F281E080934E4355
S1130C2000002C96CDBFDEBFDF91CF910895CF9306
S1130C30DF93CDB7DEB72C97CDBFDEBF8B879C8704
S1130C4018C08091FC428130A1F484E298E0FC0158
S1130C508081882374F480E298E0FC0180818630EE
S1130C6029F41092FC4210924F4303C081E0809318
S1130C704F438091FC42813021F38B859C858B838B
S1130C809C8319821A828B819C819C012E5F3F4F29
S1130C902B833C83FC01808191818D839E831EC0C4
S1130CA08B819C819C012E5F3F4F2B833C83FC01F5
S1130CB0808191818F8398878F819885892F992747
S1130CC089878F818A8789850E946F028A850E941D
S1130CD06F0289819A81019689839A8329813A8155
S1130CE08D819E8128173907D8F281E08093FC42D8
S1130CF000002C96CDBFDEBFDF91CF910895CF9336
S1130D00DF93CDB7DEB72697CDBFDEBF8D839E833D
S1130D108D819E818A839B838A819B819C012F5F25
S1130D203F4F2A833B83FC018081898318C08091D3
S1130D3049438130A1F484E098E0FC018081882358
S1130D4074F480E098E0FC018081863029F41092EC
S1130D5049431092FA4203C081E08093FA428091A1
S1130D604943813021F31C828C810E94390286E040
S1130D708C838C810E9439020DC089810E943902C2
S1130D808A819B819C012F5F3F4F2A833B83FC0117
S1130D90808189838981882381F789810E9439022E
S1130DA081E08093494300002696CDBFDEBFDF91EA
S1130DB0CF910895CF93DF93CDB7DEB72697CDBFFC
S1130DC0DEBF8D839E838D819E818A839B838A81EE
S1130DD09B819C012F5F3F4F2A833B83FC018081D1
S1130DE0898318C080914E438130A1F484E698E051
S1130DF0FC018081882374F480E698E0FC01808102
S1130E00863029F410924E431092484303C081E087
S1130E108093484380914E43813021F31C828C811E
S1130E200E94540286E08C838C810E9454020DC07F
S1130E3089810E9454028A819B819C012F5F3F4FCC
S1130E402A833B83FC01808189838981882381F7FC
S1130E5089810E94540281E080934E4300002696CB
S1130E60CDBFDEBFDF91CF910895CF93DF93CDB790
S1130E70DEB72697CDBFDEBF8D839E838D819E8195
S1130E808A839B838A819B819C012F5F3F4F2A83A6
S1130E903B83FC018081898318C08091FC428130AE
S1130EA0A1F484E298E0FC018081882374F480E258
S1130EB098E0FC018081863029F41092FC42109263
S1130EC04F4303C081E080934F438091FC428130C3
S1130ED021F31C828C810E946F0286E08C838C81BA
S1130EE00E946F020DC089810E946F028A819B81DA
S1130EF09C012F5F3F4F2A833B83FC0180818983C0
S1130F008981882381F789810E946F0281E080931F
S1130F10FC4200002696CDBFDEBFDF91CF9108953D
S1130F20CF93DF93CDB7DEB72897CDBFDEBF8D83D8
S1130F309E836F83788718C0809149438130A1F4E0
S1130F4084E098E0FC018081882374F480E098E0D8
S1130F50FC018081863029F4109249431092FA42B0
S1130F6003C081E08093FA4280914943813021F3A8
S1130F7086ED9FEF89839A8389819A81892F9927A6
S1130F808B8389818C838B810E9439028C810E949E
S1130F9039028D819E8189839A8389819A81892FDF
S1130FA099278B8389818C838B810E9439028C8160
S1130FB00E9439028F81988589839A8389819A81D5
S1130FC0892F99278B8389818C838B810E94390295
S1130FD08C810E94390281E0809349430000289665
S1130FE0CDBFDEBFDF91CF910895CF93DF93CDB70F
S1130FF0DEB72897CDBFDEBF8D839E836F8378874E
S113100018C080914E438130A1F484E698E0FC013D
S11310108081882374F480E698E0FC018081863026
S113102029F410924E431092484303C081E0809308
S1131030484380914E43813021F386ED9FEF8983AD
S11310409A8389819A81892F99278B8389818C83BB
S11310508B810E9454028C810E9454028D819E8156
S113106089839A8389819A81892F99278B8389819E
S11310708C838B810E9454028C810E9454028F8144
S1131080988589839A8389819A81892F99278B836B
S113109089818C838B810E9454028C810E9454022A
S11310A081E080934E4300002896CDBFDEBFDF91E0
S11310B0CF910895CF93DF93CDB7DEB72897CDBFF7
S11310C0DEBF8D839E836F83788718C08091FC4236
S11310D08130A1F484E298E0FC018081882374F4D7
S11310E080E298E0FC018081863029F41092FC4271
S11310F010924F4303C081E080934F438091FC42A0
S1131100813021F386ED9FEF89839A8389819A81C7
S1131110892F99278B8389818C838B810E946F020D
S11311208C810E946F028D819E8189839A8389813B
S11311309A81892F99278B8389818C838B810E9443
S11311406F028C810E946F028F81988589839A83B4
S113115089819A81892F99278B8389818C838B81BB
S11311600E946F028C810E946F0281E08093FC4296
S113117000002896CDBFDEBFDF91CF910895CF93B5
S1131180DF93CDB7DEB78EEB90E40E9445058EEB7E
S113119090E40E94AD058EEB90E40E9417068CEC5F
S11311A090E40E9445058CEC90E40E94AD058CEC23
S11311B090E40E9417068AED90E40E9445058AEDAA
S11311C090E40E94AD058AED90E40E94170688E73A
S11311D090E40E94450588E790E40E94AD0588E705
S11311E090E40E94170686E890E40E94450586E88C
S11311F090E40E94AD0586E890E40E94170684E915
S113120090E40E94450584E990E40E94AD0584E9D8
S113121090E40E9417060000DF91CF910895CF93C8
S1131220DF93CDB7DEB76AE070E084E090E00E941F
S1131230F50782E191E40E94AD0588EE90E40E94F6
S1131240AD0583E991E40E94DA0684EF90E40E94FC
S1131250AD050000DF91CF910895CF93DF93CDB713
S1131260DEB7000080E498E0FC0184818823D4F791
S113127080E498E0FC018081DF91CF910895CF93C1
S1131280DF931F92CDB7DEB78983000080E498E036
S1131290FC018481882F90E080729927892BB1F317
S11312A080E498E02981FC01228300000F90DF9103
S11312B0CF910895CF93DF93CDB7DEB72797CDBFF6
S11312C0DEBF8E839F838E819F818A839B83198255
S11312D08A819B819C012F5F3F4F2A833B83FC01C2
S11312E080818C8310C08A819B819C012F5F3F4F3A
S11312F02A833B83FC0180818D838D810E943F0979
S113130089818F5F898399818C81981760F30000AC
S11313102796CDBFDEBFDF91CF910895CF93DF93A2
S1131320CDB7DEB72897CDBFDEBF8E839F83688796
S11313301C828E819F818A839B8388858D8380E430
S113134098E0FC0180818C8380E498E0FC0180813A
S11313508C8380E498E0FC0180818C83198210C026
S11313600E942D098C838A819B819C012F5F3F4FB2
S11313702A833B832C81FC01208389818F5F8983AD
S11313808981853068F31C820DC00E942D098C83ED
S11313908A819B819C012F5F3F4F2A833B832C8151
S11313A0FC0120839D818C81981779F70000289691
S11313B0CDBFDEBFDF91CF910895CF93DF93CDB73B
S11313C0DEB7A297CDBFDEBF1A821092D042109230
S11313D0D1428DE592E40E945A0980E498E0FC0130
S11313E080818A8380E498E0FC0180818A8380E4A0
S11313F098E0FC0180818A8319820EC180E090E02C
S1131400A0E4B0E48B839C83AD83BE832BEA3AEAE9
S11314104AE250E46B817C818D819E810E94E96364
S1131420DC01CB018F839887A987BA878B819C8144
S1131430AD81BE819C01AD01BC01CD010E94206241
S1131440DC01CB018B879C87AD87BE8720E030E031
S113145040E85FE36F81788589859A850E948C6274
S113146088231CF481E08F87B2C020E03FEF4FE770
S113147057E46B857C858D859E850E94E4631816F0
S11314800CF07BC020E030E04AE754E46B817C81BF
S11314908D819E810E949162DC01CB01888B998BA6
S11314A0AA8BBB8B20E030E04AEF54E46889798949
S11314B08A899B890E94E963DC01CB018C8B9D8B1B
S11314C0AE8BBF8B20E030E040E85FE36C897D8920
S11314D08E899F890E948C6288232CF481E090E09D
S11314E0888F998F3FC020E03FEF4FE757E46C8926
S11314F07D898E899F890E94E46318164CF520E04B
S113150030E040E251E4688979898A899B890E94A4
S1131510E963DC01CB01BC01CD010E940363DC0162
S1131520CB01888F998F0FC088EC90E08A8F9B8FB6
S11315308A8D9B8D0197F1F78A8F9B8F888D998D6A
S11315400197888F998F888D998D892B69F73FC072
S11315506C897D898E899F890E940363DC01CB019C
S1131560888F998F888D998D8C8F9D8F8C8D9D8D73
S11315700197F1F78C8F9D8F2AC020E030E04FE770
S113158053E46F81788589859A850E94E4631816EF
S1131590ACF46B857C858D859E850E940363DC019C
S11315A0CB018E8F9F8F8E8D9F8D88A399A388A149
S11315B099A10197F1F788A399A30FC06F8178854A
S11315C089859A850E940363DC01CB018F878F850F
S11315D08AA38AA18A95F1F78AA38091D042909137
S11315E0D14201968093D0429093D14280E498E016
S11315F0FC018481882344F08091D0429091D142AF
S11316008332914008F4FACE80E498E0FC018081B2
S11316108A8389818F5F89838981873038F38091B8
S1131620D0429091D1428332914020F081E0809366
S1131630E84202C01092E8420000A296CDBFDEBF8D
S1131640DF91CF910895CF93DF9300D000D0CDB731
S1131650DEB780E389831A8284E090E48B839C83E1
S113166062E170E085E290E00E94F50782E191E496
S11316700E94AD058EEE90E40E94AD051A823FC033
S11316808B819C819C012F5F3F4F2B833C83FC010A
S1131690808189838981803391F18981863579F1CB
S11316A08981813358F089818A3340F48981882F74
S11316B090E00E94DD0381E08A8321C089818E321B
S11316C0F1F480E390E00E94DD038981882F90E0AB
S11316D00E94DD038B819C819C012F5F3F4F2B83F4
S11316E03C83FC01808189838981882F90E00E945A
S11316F0DD0380E290E00E94DD0381E08A838A8139
S1131700882309F4BDCF22C08B819C819C012F5F6B
S11317103F4F2B833C83FC018081898389818E32F6
S113172081F48B819C8102968B839C8384EF90E46B
S11317300E94AD0567E170E082E790E00E94F50742
S113174005C08981882F90E00E94DD038981863558
S1131750D9F600002496CDBFDEBFDF91CF91089566
S1131760CF93DF93CDB7DEB72997CDBFDEBF80E33C
S113177089831A821D821E821F821886198680E13F
S113178090E48B839C830AC08B819C819C012F5F96
S11317903F4F2B833C83FC018081898389818D3277
S11317A021F0809146438B3078F389818D3219F48E
S11317B081E08A830BC01A826EE470E085E090E0D9
S11317C00E94F5078BE290E00E94DD038A8181305C
S11317D029F486E190E48B839C8304C085E190E442
S11317E08B839C838B819C819C012F5F3F4F2B8338
S11317F03C83FC0180818D838B819C819C012F5FC4
S11318003F4F2B833C83FC0180818E838B819C81A1
S11318109C012F5F3F4F2B833C83FC0180818F838E
S11318208B819C819C012F5F3F4F2B833C83FC0168
S1131830808188878B819C8101968B839C838B819B
S11318409C819C012F5F3F4F2B833C83FC01808153
S113185089876EE470E085E290E00E94F50782E1FA
S113186091E40E94AD058EEE90E40E94AD058D8159
S11318708033A9F48E81803391F48F81803379F49D
S11318808885882F90E00E94DD038EE290E00E941C
S1131890DD038985882F90E00E94DD0327C08D81B8
S11318A0803391F48E81803379F480E290E00E9459
S11318B0DD038F81882F90E00E94DD038885882FC7
S11318C090E00E94DD0312C08D81803379F48E8113
S11318D0882F90E00E94DD038F81882F90E00E9482
S11318E0DD038885882F90E00E94DD0384EF90E477
S11318F00E94AD0563E570E082E790E00E94F50781
S113190081E490E00E94DD0300002996CDBFDEBF94
S1131910DF91CF910895CF93DF9300D000D0CDB75E
S1131920DEB780E389831A8284E290E48B839C830C
S113193067E370E087E190E00E94F5078CE091E4B2
S11319400E94AD0584EF90E40E94AD051A821AC08E
S11319508B819C819C012F5F3F4F2B833C83FC0137
S1131960808189838981803369F08981813350F052
S113197089818A3338F48981882F90E00E94DD03BD
S113198081E08A838A81882319F327C08B819C8113
S11319909C012F5F3F4F2B833C83FC018081898313
S11319A089818E32A9F48B819C819C012F5F3F4FEA
S11319B02B833C83FC01808189838AEF90E40E941D
S11319C0AD056BE370E084E390E00E94F50705C089
S11319D08981882F90E00E94DD0389818532B1F6E8
S11319E000002496CDBFDEBFDF91CF910895CF9341
S11319F0DF9300D01F92CDB7DEB780E3898388E3FD
S1131A0090E48A839B8367E370E08CE590E00E9416
S1131A10F5078CE091E40E94AD0584EF90E40E9408
S1131A20AD058A819B819C012F5F3F4F2A833B83B5
S1131A30FC01808189838981882F90E00E94DD03E5
S1131A408EE2898386E091E40E94AD058981882F26
S1131A5090E00E94DD0384EF90E40E94AD058CE0E9
S1131A6091E40E94AD0567E370E082E790E00E9494
S1131A70F5078A819B819C012F5F3F4F2A833B831B
S1131A80FC01808189838981882F90E00E94DD0395
S1131A908A819B819C012F5F3F4F2A833B83FC01FA
S1131AA0808189838981882F90E00E94DD03000072
S1131AB02396CDBFDEBFDF91CF910895CF93DF93FF
S1131AC0CDB7DEB70E940F0984EF90E40E94AD0504
S1131AD08CE091E40E94AD0561E170E085E190E065
S1131AE00E94F5078FE691E40E94DA068CE590E403
S1131AF00E94AD058AE690E40E94AD050000DF91E6
S1131B00CF910895CF93DF93CDB7DEB76AE070E04D
S1131B108FE090E00E94900788EE90E40E944505D3
S1131B208AE791E40E947F0680EB90E40E94AD0571
S1131B3084EF90E40E94450584EF90E40E94AD0593
S1131B4084EF90E40E9417068CE091E40E9445051E
S1131B5088E191E40E94AD058CE091E40E941706AF
S1131B6064E170E086E090E00E9490076CE070E031
S1131B7082E190E00E94F50764E170E088E090E083
S1131B800E945A0888EC91E40E947F068AE291E45C
S1131B900E94DA0680EB91E40E9435078CE091E420
S1131BA00E94AD0566E470E08AE090E00E94900730
S1131BB068E370E085E090E00E94F50766E470E079
S1131BC08BE090E00E945A0884ED91E40E947F0625
S1131BD081E391E40E94DA068CEB91E40E943507DC
S1131BE06AE570E085E090E00E94F5078EE391E4F9
S1131BF00E94DA060000DF91CF910895CF93DF931E
S1131C00CDB7DEB76CE070E082E190E00E94F507AA
S1131C1084EF90E40E94AD0588E191E40E94AD0553
S1131C208AE291E40E94DA060000DF91CF910895E0
S1131C30CF93DF93CDB7DEB784EF90E40E9417060D
S1131C408CE091E40E94170664E170E08BE090E080
S1131C500E945A088FED91E40E9435070000DF913D
S1131C60CF910895CF93DF93CDB7DEB784EF90E49F
S1131C700E9417068CE091E40E94170664E170E06C
S1131C8085E090E00E945A088AEE91E40E943507AC
S1131C900000DF91CF910895CF93DF93CDB7DEB7E6
S1131CA084EF90E40E9417068CE091E40E941706EA
S1131CB064E170E08BE090E00E945A0885EF91E4C3
S1131CC00E9435070000DF91CF910895CF93DF93F1
S1131CD0CDB7DEB784EF90E40E9417068CE091E460
S1131CE00E94170664E170E08BE090E00E945A08BD
S1131CF080E092E40E9435070000DF91CF910895BF
S1131D00CF93DF93CDB7DEB784EF90E40E9417063C
S1131D108CE091E40E94170664E170E08BE090E0AF
S1131D200E945A088CE092E40E9435070000DF917B
S1131D30CF910895CF93DF93CDB7DEB784EF90E4CE
S1131D400E9417068CE091E40E94170664E170E09B
S1131D508EE090E00E945A0887E192E40E943507E1
S1131D600000DF91CF910895CF93DF93CDB7DEB715
S1131D7084EF90E40E9445058CE091E40E944505BF
S1131D8064E170E08FE090E00E94900782E292E4C8
S1131D900E947F060000DF91CF910895CF93DF93D7
S1131DA0CDB7DEB784EF90E40E9417068CE091E48F
S1131DB00E9417066EE470E088E090E00E945A08E2
S1131DC08DE292E40E9435070000DF91CF910895DF
S1131DD0CF93DF93CDB7DEB784EF90E40E9417066C
S1131DE08CE091E40E9417066EE470E088E090E0D5
S1131DF00E945A0886E392E40E9435070000DF91AE
S1131E00CF9108950F931F93CF93DF93CDB7DEB790
S1131E10CC51D140CDBFDEBF0E948E2A80E090E835
S1131E20A2E2B4E48DA39EA3AFA3B8A720E030E060
S1131E304AEF54E46DA17EA18FA198A50E94E963A5
S1131E40DC01CB0189A79AA7ABA7BCA720E030E0AF
S1131E5040E85FE369A57AA58BA59CA50E948C62E6
S1131E6088232CF481E090E08DA79EA73FC020E05A
S1131E703FEF4FE757E469A57AA58BA59CA50E947F
S1131E80E46318164CF520E030E040E251E46DA123
S1131E907EA18FA198A50E94E963DC01CB01BC015E
S1131EA0CD010E940363DC01CB018DA79EA70FC067
S1131EB088EC90E08FA798AB8FA598A90197F1F7CC
S1131EC08FA798AB8DA59EA501978DA79EA78DA5DD
S1131ED09EA5892B69F714C069A57AA58BA59CA535
S1131EE00E940363DC01CB018DA79EA78DA59EA54F
S1131EF089AB9AAB89A99AA90197F1F789AB9AABF7
S1131F0080E094E0FC0180858093DE428091DE4293
S1131F10882F90E080729927892B11F00C94BB1CB8
S1131F208EE080933A430C94FD1B80913A43882FB2
S1131F3090E049E1489F9001499F300D1124C90167
S1131F40809300439093014380E094E020E8FC01F7
S1131F5025838091004390910143CC01A0E0B0E03F
S1131F60BC01CD010E943263DC01CB0189839A83D9
S1131F70AB83BC832BEA3AEA4AE250E469817A8172
S1131F808B819C810E94E963DC01CB018BAB9CAB10
S1131F90ADABBEAB89819A81AB81BC819C01AD01A3
S1131FA0BC01CD010E942062DC01CB018FAB98AF54
S1131FB0A9AFBAAF20E030E040E85FE36BA97CA9A9
S1131FC08DA99EA90E948C6288231CF481E08BAFAA
S1131FD00CC120E03FEF4FE757E46FA978AD89AD1E
S1131FE09AAD0E94E46318160CF0C1C020E030E002
S1131FF04AE754E469817A818B819C810E949162D1
S1132000DC01CB018CAF9DAFAEAFBFAF8E01005CE6
S11320101F4F20E030E04AEF54E46CAD7DAD8EAD4F
S11320209FAD0E94E963DC01CB01F80180839183B9
S1132030A283B383CE01805C9F4F20E030E040E870
S11320405FE3FC0160817181828193810E948C62D3
S113205088234CF4CE018C5B9F4F21E030E0FC01DF
S11320602083318369C0CE01805C9F4F20E03FEF25
S11320704FE757E4FC0160817181828193810E9462
S1132080E46318160CF046C020E030E040E251E46E
S11320906CAD7DAD8EAD9FAD0E94E963DC01CB01DB
S11320A08E010C5B1F4FBC01CD010E940363DC0158
S11320B0CB01F8018083918324C0CE018A5B9F4FBA
S11320C028EC30E0FC0120833183CE018A5B9F4FF2
S11320D0FC01808191810197F1F79E012A5B3F4FBA
S11320E0F90180839183CE018C5B9F4F9E012C5B11
S11320F03F4FF9012081318121503109FC012083B6
S11321003183CE018C5B9F4FFC0180819181892BAF
S1132110A1F66BC08E010C5B1F4FCE01805C9F4FFC
S1132120FC0160817181828193810E940363DC01DF
S1132130CB01F80180839183CE01885B9F4F9E0180
S11321402C5B3F4FF90120813181FC0120833183D5
S1132150CE01885B9F4FFC01808191810197F1F74B
S11321609E01285B3F4FF901808391833EC020E0AC
S113217030E04FE753E46BA97CA98DA99EA90E9486
S1132180E46318164CF58E01065B1F4F6FA978ADFA
S113219089AD9AAD0E940363DC01CB01F801808311
S11321A09183CE01845B9F4F9E01265B3F4FF901D3
S11321B020813181FC0120833183CE01845B9F4FD8
S11321C0FC01808191810197F1F79E01245B3F4FCF
S11321D0F901808391831CC06BA97CA98DA99EA958
S11321E00E940363DC01CB018BAFCE01825B9F4F66
S11321F02BADFC012083CE01825B9F4FFC018081CB
S1132200282F2A95F1F7CE01825B9F4FFC01208392
S113221080E094E020E8FC01268380913A438431F5
S113222008F08DC180E098EBA8E8B7E48D839E8325
S1132230AF83B8878E01015B1F4F2BEA3AEA4AE26B
S113224050E46D817E818F8198850E94E963DC0171
S1132250CB01F80180839183A283B3838E010D5A4D
S11322601F4F8D819E81AF81B8859C01AD01BC015A
S1132270CD010E942062DC01CB01F80180839183AF
S1132280A283B383CE01815B9F4F20E030E040E81E
S11322905FE3FC0160817181828193810E948C6281
S11322A088233CF4CE01895A9F4F21E0FC0120830E
S11322B02DC1CE018D5A9F4F20E03FEF4FE757E4E9
S11322C0FC0160817181828193810E94E46318160C
S11322D00CF0CDC020E030E04AE754E46D817E810B
S11322E08F8198850E949162DC01CB019E01285A5E
S11322F03F4FF90180839183A283B3838E01045AF3
S11323001F4FCE01885A9F4F20E030E04AEF54E43B
S1132310FC0160817181828193810E94E963DC0107
S1132320CB01F80180839183A283B383CE01845AC5
S11323309F4F20E030E040E85FE3FC016081718161
S1132340828193810E948C6288234CF4CE01805A4E
S11323509F4F21E030E0FC01208331836DC0CE012A
S1132360845A9F4F20E03FEF4FE757E4FC01608120
S11323707181828193810E94E46318160CF04AC033
S1132380CE01885A9F4F20E030E040E251E4FC0146
S113239060817181828193810E94E963DC01CB01B8
S11323A08E01005A1F4FBC01CD010E940363DC0162
S11323B0CB01F8018083918324C0CE018E599F4FB5
S11323C028EC30E0FC0120833183CE018E599F4FED
S11323D0FC01808191810197F1F79E012E593F4FB5
S11323E0F90180839183CE01805A9F4F9E01205A28
S11323F03F4FF9012081318121503109FC012083B3
S11324003183CE01805A9F4FFC0180819181892BB9
S1132410A1F67CC08E01005A1F4FCE01845A9F4FF3
S1132420FC0160817181828193810E940363DC01DC
S1132430CB01F80180839183CE018C599F4F9E017B
S1132440205A3F4FF90120813181FC0120833183DF
S1132450CE018C599F4FFC01808191810197F1F746
S11324609E012C593F4FF901808391834FC0CE01C7
S1132470815B9F4F20E030E04FE753E4FC01608133
S11324807181828193810E94E463181674F58E0130
S11324900A591F4FCE018D5A9F4FFC0160817181F3
S11324A0828193810E940363DC01CB01F801808364
S11324B09183CE0188599F4F9E012A593F4FF901BC
S11324C020813181FC0120833183CE0188599F4FC3
S11324D0FC01808191810197F1F79E0128593F4FBA
S11324E0F901808391830C94F81B8E01095A1F4FC4
S11324F0CE01815B9F4FFC01608171818281938158
S11325000E940363DC01CB01F8018083CE0186596C
S11325109F4F9E01295A3F4FF9012081FC012083DE
S1132520CE0186599F4FFC018081282F2A95F1F70F
S1132530CE0186599F4FFC0120830C94F81B809197
S11325403A438C3108F08DC180E098EEADE7B7E4F2
S113255089879A87AB87BC878E0105591F4F2BEA61
S11325603AEA4AE250E469857A858B859C850E9423
S1132570E963DC01CB01F80180839183A283B383F7
S11325808E0101591F4F89859A85AB85BC859C01B5
S1132590AD01BC01CD010E942062DC01CB01F80138
S11325A080839183A283B383CE0185599F4F20E01A
S11325B030E040E85FE3FC016081718182819381B6
S11325C00E948C6288233CF4CE018D589F4F21E0F9
S11325D0FC0120832DC1CE0181599F4F20E03FEFA4
S11325E04FE757E4FC0160817181828193810E94ED
S11325F0E46318160CF0CDC020E030E04AE754E460
S113260069857A858B859C850E949162DC01CB016A
S11326109E012C583F4FF90180839183A283B38399
S11326208E0108581F4FCE018C589F4F20E030E098
S11326304AEF54E4FC0160817181828193810E949C
S1132640E963DC01CB01F80180839183A283B38326
S1132650CE0188589F4F20E030E040E85FE3FC0162
S113266060817181828193810E948C6288234CF401
S1132670CE0184589F4F21E030E0FC012083318358
S11326806DC0CE0188589F4F20E03FEF4FE757E4DD
S1132690FC0160817181828193810E94E463181638
S11326A00CF04AC0CE018C589F4F20E030E040E24D
S11326B051E4FC0160817181828193810E94E9630C
S11326C0DC01CB018E0104581F4FBC01CD010E94D7
S11326D00363DC01CB01F8018083918324C0CE0124
S11326E082589F4F28EC30E0FC0120833183CE01D7
S11326F082589F4FFC01808191810197F1F79E01DF
S113270022583F4FF90180839183CE0184589F4F13
S11327109E0124583F4FF901208131812150310914
S1132720FC0120833183CE0184589F4FFC018081BA
S11327309181892BA1F67CC08E0104581F4FCE01D4
S113274088589F4FFC0160817181828193810E942E
S11327500363DC01CB01F80180839183CE018058AF
S11327609F4F9E0124583F4FF90120813181FC0184
S113277020833183CE0180589F4FFC018081918159
S11327800197F1F79E0120583F4FF901808391830F
S11327904FC0CE0185599F4F20E030E04FE753E40E
S11327A0FC0160817181828193810E94E463181627
S11327B074F58E010E571F4FCE0181599F4FFC01B6
S11327C060817181828193810E940363DC01CB016A
S11327D0F80180839183CE018C579F4F9E012E5721
S11327E03F4FF90120813181FC0120833183CE01E7
S11327F08C579F4FFC01808191810197F1F79E01D5
S11328002C573F4FF901808391830C94F81B8E0160
S11328100D581F4FCE0185599F4FFC016081718176
S1132820828193810E940363DC01CB01F8018083E0
S1132830CE018A579F4F9E012D583F4FF9012081A9
S1132840FC012083CE018A579F4FFC018081282FF1
S11328502A95F1F7CE018A579F4FFC0120830C94EF
S1132860F81B80913A43843208F08BC180E090E6F3
S1132870AAE6B7E48D879E87AF87B88B8E01095788
S11328801F4F2BEA3AEA4AE250E46D857E858F8534
S113289098890E94E963DC01CB01F801808391836C
S11328A0A283B3838E0105571F4F8D859E85AF8507
S11328B0B8899C01AD01BC01CD010E942062DC01FC
S11328C0CB01F80180839183A283B383CE0189571E
S11328D09F4F20E030E040E85FE3FC0160817181BC
S11328E0828193810E948C6288233CF4CE018157BB
S11328F09F4F21E0FC0120832CC1CE0185579F4FBF
S113290020E03FEF4FE757E4FC0160817181828151
S113291093810E94E46318160CF0CDC020E030E0EF
S11329204AE754E46D857E858F8598890E9491627B
S1132930DC01CB019E0120573F4FF9018083918335
S1132940A283B3838E010C561F4FCE0180579F4F35
S113295020E030E04AEF54E4FC016081718182811F
S113296093810E94E963DC01CB01F80180839183A8
S1132970A283B383CE018C569F4F20E030E040E821
S11329805FE3FC0160817181828193810E948C628A
S113299088234CF4CE0188569F4F21E030E0FC019F
S11329A0208331836DC0CE018C569F4F20E03FEFD2
S11329B04FE757E4FC0160817181828193810E9419
S11329C0E46318160CF04AC0CE0180579F4F20E0F4
S11329D030E040E251E4FC016081718182819381A5
S11329E00E94E963DC01CB018E0108561F4FBC0134
S11329F0CD010E940363DC01CB01F8018083918344
S1132A0024C0CE0186569F4F28EC30E0FC01208381
S1132A103183CE0186569F4FFC01808191810197BD
S1132A20F1F79E0126563F4FF90180839183CE0131
S1132A3088569F4F9E0128563F4FF90120813181CE
S1132A4021503109FC0120833183CE0188569F4FE8
S1132A50FC0180819181892BA1F67BC08E010856EF
S1132A601F4FCE018C569F4FFC0160817181828182
S1132A7093810E940363DC01CB01F801808391837D
S1132A80CE0184569F4F9E0128563F4FF901208165
S1132A903181FC0120833183CE0184569F4FFC0198
S1132AA0808191810197F1F79E0124563F4FF901EE
S1132AB0808391834EC0CE0189579F4F20E030E040
S1132AC04FE753E4FC0160817181828193810E940C
S1132AD0E46318166CF58E0102561F4FCE0185571C
S1132AE09F4FFC0160817181828193810E94036305
S1132AF0DC01CB01F80180839183CE0180569F4F86
S1132B009E0122563F4FF90120813181FC0120832F
S1132B103183CE0180569F4FFC01808191810197C2
S1132B20F1F79E0120563F4FF9018083918360C6DF
S1132B308E0101571F4FCE0189579F4FFC016081C1
S1132B407181828193810E940363DC01CB01F801CE
S1132B508083CE018E559F4F9E0121573F4FF9012F
S1132B602081FC012083CE018E559F4FFC01808182
S1132B70282F2A95F1F7CE018E559F4FFC01208313
S1132B8037C680913A438A3208F08BC180E098EDD1
S1132B90A6E5B7E4898B9A8BAB8BBC8B8E010D5564
S1132BA01F4F2BEA3AEA4AE250E469897A898B8911
S1132BB09C890E94E963DC01CB01F8018083918345
S1132BC0A283B3838E0109551F4F89899A89AB89E2
S1132BD0BC899C01AD01BC01CD010E942062DC01D5
S1132BE0CB01F80180839183A283B383CE018D55F9
S1132BF09F4F20E030E040E85FE3FC016081718199
S1132C00828193810E948C6288233CF4CE01855595
S1132C109F4F21E0FC0120832CC1CE0189559F4F99
S1132C2020E03FEF4FE757E4FC016081718182812E
S1132C3093810E94E46318160CF0CDC020E030E0CC
S1132C404AE754E469897A898B899C890E94916254
S1132C50DC01CB019E0124553F4FF9018083918310
S1132C60A283B3838E0100551F4FCE0184559F4F1D
S1132C7020E030E04AEF54E4FC01608171818281FC
S1132C8093810E94E963DC01CB01F8018083918385
S1132C90A283B383CE0180559F4F20E030E040E80B
S1132CA05FE3FC0160817181828193810E948C6267
S1132CB088234CF4CE018C549F4F21E030E0FC017A
S1132CC0208331836DC0CE0180559F4F20E03FEFBC
S1132CD04FE757E4FC0160817181828193810E94F6
S1132CE0E46318160CF04AC0CE0184559F4F20E0CF
S1132CF030E040E251E4FC01608171818281938182
S1132D000E94E963DC01CB018E010C541F4FBC010E
S1132D10CD010E940363DC01CB01F8018083918320
S1132D2024C0CE018A549F4F28EC30E0FC0120835C
S1132D303183CE018A549F4FFC0180819181019798
S1132D40F1F79E012A543F4FF90180839183CE010C
S1132D508C549F4F9E012C543F4FF90120813181A7
S1132D6021503109FC0120833183CE018C549F4FC3
S1132D70FC0180819181892BA1F67BC08E010C54CA
S1132D801F4FCE0180559F4FFC016081718182816C
S1132D9093810E940363DC01CB01F801808391835A
S1132DA0CE0188549F4F9E012C543F4FF90120813E
S1132DB03181FC0120833183CE0188549F4FFC0173
S1132DC0808191810197F1F79E0128543F4FF901C9
S1132DD0808391834EC0CE018D559F4F20E030E01B
S1132DE04FE753E4FC0160817181828193810E94E9
S1132DF0E46318166CF58E0106541F4FCE018955F5
S1132E009F4FFC0160817181828193810E940363E1
S1132E10DC01CB01F80180839183CE0184549F4F60
S1132E209E0126543F4FF90120813181FC0120830A
S1132E303183CE0184549F4FFC018081918101979D
S1132E40F1F79E0124543F4FF90180839183D0C44C
S1132E508E0105551F4FCE018D559F4FFC0160819A
S1132E607181828193810E940363DC01CB01F801AB
S1132E708083CE0182549F4F9E0125553F4FF90117
S1132E802081FC012083CE0182549F4FFC0180816C
S1132E90282F2A95F1F7CE0182549F4FFC012083FD
S1132EA0A7C480913A43823308F08BC180E090E557
S1132EB0A3E4B7E48D8B9E8BAF8BB88F8E01015446
S1132EC01F4F2BEA3AEA4AE250E46D897E898F89E2
S1132ED0988D0E94E963DC01CB01F8018083918322
S1132EE0A283B3838E010D531F4F8D899E89AF89B1
S1132EF0B88D9C01AD01BC01CD010E942062DC01B2
S1132F00CB01F80180839183A283B383CE018154E2
S1132F109F4F20E030E040E85FE3FC016081718175
S1132F20828193810E948C6288233CF4CE01895370
S1132F309F4F21E0FC0120832CC1CE018D539F4F74
S1132F4020E03FEF4FE757E4FC016081718182810B
S1132F5093810E94E46318160CF0CDC020E030E0A9
S1132F604AE754E46D897E898F89988D0E94916225
S1132F70DC01CB019E0128533F4FF90180839183EB
S1132F80A283B3838E0104531F4FCE0188539F4FF6
S1132F9020E030E04AEF54E4FC01608171818281D9
S1132FA093810E94E963DC01CB01F8018083918362
S1132FB0A283B383CE0184539F4F20E030E040E8E6
S1132FC05FE3FC0160817181828193810E948C6244
S1132FD088234CF4CE0180539F4F21E030E0FC0164
S1132FE0208331836DC0CE0184539F4F20E03FEF97
S1132FF04FE757E4FC0160817181828193810E94D3
S1133000E46318160CF04AC0CE0188539F4F20E0A9
S113301030E040E251E4FC0160817181828193815E
S11330200E94E963DC01CB018E0100531F4FBC01F8
S1133030CD010E940363DC01CB01F80180839183FD
S113304024C0CE018E529F4F28EC30E0FC01208337
S11330503183CE018E529F4FFC0180819181019773
S1133060F1F79E012E523F4FF90180839183CE01E7
S113307080539F4F9E0120533F4FF901208131819E
S113308021503109FC0120833183CE0180539F4FAD
S1133090FC0180819181892BA1F67BC08E010053B4
S11330A01F4FCE0184539F4FFC0160817181828147
S11330B093810E940363DC01CB01F8018083918337
S11330C0CE018C529F4F9E0120533F4FF901208126
S11330D03181FC0120833183CE018C529F4FFC014E
S11330E0808191810197F1F79E012C523F4FF901A4
S11330F0808391834EC0CE0181549F4F20E030E005
S11331004FE753E4FC0160817181828193810E94C5
S1133110E46318166CF58E010A521F4FCE018D53CD
S11331209F4FFC0160817181828193810E940363BE
S1133130DC01CB01F80180839183CE0188529F4F3B
S11331409E012A523F4FF90120813181FC012083E5
S11331503183CE0188529F4FFC0180819181019778
S1133160F1F79E0128523F4FF9018083918340C3B8
S11331708E0109531F4FCE0181549F4FFC01608182
S11331807181828193810E940363DC01CB01F80188
S11331908083CE0186529F4F9E0129533F4FF901F0
S11331A02081FC012083CE0186529F4FFC01808147
S11331B0282F2A95F1F7CE0186529F4FFC012083D8
S11331C017C380913A438C3308F08BC180E098ECAC
S11331D0AFE2B7E4898F9A8FAB8FBC8F8E01055213
S11331E01F4F2BEA3AEA4AE250E4698D7A8D8B8DBF
S11331F09C8D0E94E963DC01CB01F80180839183FB
S1133200A283B3838E0101521F4F898D9A8DAB8D9A
S1133210BC8D9C01AD01BC01CD010E942062DC018A
S1133220CB01F80180839183A283B383CE018552BD
S11332309F4F20E030E040E85FE3FC016081718152
S1133240828193810E948C6288233CF4CE018D514B
S11332509F4F21E0FC0120832CC1CE0181529F4F5E
S113326020E03FEF4FE757E4FC01608171818281E8
S113327093810E94E46318160CF0CDC020E030E086
S11332804AE754E4698D7A8D8B8D9C8D0E949162FE
S1133290DC01CB019E012C513F4FF90180839183C6
S11332A0A283B3838E0108511F4FCE018C519F4FCF
S11332B020E030E04AEF54E4FC01608171818281B6
S11332C093810E94E963DC01CB01F801808391833F
S11332D0A283B383CE0188519F4F20E030E040E8C1
S11332E05FE3FC0160817181828193810E948C6221
S11332F088234CF4CE0184519F4F21E030E0FC013F
S1133300208331836DC0CE0188519F4F20E03FEF71
S11333104FE757E4FC0160817181828193810E94AF
S1133320E46318160CF04AC0CE018C519F4F20E084
S113333030E040E251E4FC0160817181828193813B
S11333400E94E963DC01CB018E0104511F4FBC01D3
S1133350CD010E940363DC01CB01F80180839183DA
S113336024C0CE0182519F4F28EC30E0FC01208321
S11333703183CE0182519F4FFC018081918101975D
S1133380F1F79E0122513F4FF90180839183CE01D1
S113339084519F4F9E0124513F4FF9012081318177
S11333A021503109FC0120833183CE0184519F4F88
S11333B0FC0180819181892BA1F67BC08E0104518F
S11333C01F4FCE0188519F4FFC0160817181828122
S11333D093810E940363DC01CB01F8018083918314
S11333E0CE0180519F4F9E0124513F4FF90120810E
S11333F03181FC0120833183CE0180519F4FFC0138
S1133400808191810197F1F79E0120513F4FF9018D
S1133410808391834EC0CE0185529F4F20E030E0DF
S11334204FE753E4FC0160817181828193810E94A2
S1133430E46318166CF58E010E501F4FCE018152B5
S11334409F4FFC0160817181828193810E9403639B
S1133450DC01CB01F80180839183CE018C509F4F16
S11334609E012E503F4FF90120813181FC012083C0
S11334703183CE018C509F4FFC0180819181019753
S1133480F1F79E012C503F4FF90180839183B0C125
S11334908E010D511F4FCE0185529F4FFC0160815B
S11334A07181828193810E940363DC01CB01F80165
S11334B08083CE018A509F4F9E012D513F4FF901C9
S11334C02081FC012083CE018A509F4FFC01808122
S11334D0282F2A95F1F7CE018A509F4FFC012083B3
S11334E087C180E090E5A3E4B7E48D8F9E8FAF8F12
S11334F0B8A38E0109501F4F2BEA3AEA4AE250E47E
S11335006D8D7E8D8F8D98A10E94E963DC01CB01C6
S1133510F80180839183A283B3838E0105501F4FEA
S11335208D8D9E8DAF8DB8A19C01AD01BC01CD01E7
S11335300E942062DC01CB01F80180839183A28385
S1133540B383CE0189509F4F20E030E040E85FE331
S1133550FC0160817181828193810E948C62882345
S11335603CF4CE0181509F4F21E0FC01208329C10E
S1133570CE0185509F4F20E03FEF4FE757E4FC0119
S113358060817181828193810E94E46318160CF03A
S1133590CAC020E030E04AE754E46D8D7E8D8F8D03
S11335A098A10E949162DC01CB019E013395F9013F
S11335B080839183A283B3838E010C5F1E4FCE015F
S11335C0939520E030E04AEF54E4FC01608171817E
S11335D0828193810E94E963DC01CB01F80180833D
S11335E09183A283B383CE018C5F9E4F20E030E0B1
S11335F040E85FE3FC0160817181828193810E94D4
S11336008C6288234CF4CE01885F9E4F21E030E029
S1133610FC01208331836CC0CE018C5F9E4F20E07F
S11336203FEF4FE757E4FC01608171818281938110
S11336300E94E46318160CF049C0CE01939520E073
S113364030E040E251E4FC01608171818281938128
S11336500E94E963DC01CB018E01085F1E4FBC01AF
S1133660CD010E940363DC01CB01F80180839183C7
S113367024C0CE01865F9E4F28EC30E0FC012083FD
S11336803183CE01865F9E4FFC0180819181019739
S1133690F1F79E01265F3E4FF90180839183CE01AD
S11336A0885F9E4F9E01285F3E4FF9012081318142
S11336B021503109FC0120833183CE01885F9E4F64
S11336C0FC0180819181892BA1F67BC08E01085F6A
S11336D01E4FCE018C5F9E4FFC01608171818281FF
S11336E093810E940363DC01CB01F8018083918301
S11336F0CE01845F9E4F9E01285F3E4FF9012081D9
S11337003181FC0120833183CE01845F9E4FFC0113
S1133710808191810197F1F79E01245F3E4FF90169
S1133720808391834EC0CE0189509F4F20E030E0CA
S11337304FE753E4FC0160817181828193810E948F
S1133740E46318166CF58E01025F1E4FCE0185509E
S11337509F4FFC0160817181828193810E94036388
S1133760DC01CB01F80180839183CE01805F9E4F01
S11337709E01225F3E4FF90120813181FC012083AB
S11337803183CE01805F9E4FFC018081918101973E
S1133790F1F79E01205F3E4FF9018083918328C099
S11337A08E0101501F4FCE0189509F4FFC01608153
S11337B07181828193810E940363DC01CB01F80152
S11337C08083CE018E5E9E4F9E0121503F4FF901B2
S11337D02081FC012083CE018E5E9E4FFC018081FE
S11337E0282F2A95F1F7CE018E5E9E4FFC0120838F
S11337F080913A438F5F80933A4380913A43873470
S113380010F40C94950F80E090E0A0E2B1E489A359
S11338109AA3ABA3BCA38E010D5E1E4F20E030E043
S11338204AEF54E469A17AA18BA19CA10E94E963A7
S1133830DC01CB01F80180839183A283B383CE01A1
S11338408D5E9E4F20E030E040E85FE3FC01608144
S11338507181828193810E948C6288234CF4CE0111
S1133860895E9E4F21E030E0FC012083318369C0F2
S1133870CE018D5E9E4F20E03FEF4FE757E4FC0101
S113388060817181828193810E94E46318160CF037
S113389046C020E030E040E251E469A17AA18BA166
S11338A09CA10E94E963DC01CB018E01095E1E4FDD
S11338B0BC01CD010E940363DC01CB01F8018083CC
S11338C0918324C0CE01875E9E4F28EC30E0FC013A
S11338D020833183CE01875E9E4FFC0180819181DC
S11338E00197F1F79E01275E3E4FF9018083918392
S11338F0CE01895E9E4F9E01295E3E4FF9012081D3
S1133900318121503109FC0120833183CE01895E4C
S11339109E4FFC0180819181892BA1F62CC08E01E0
S1133920095E1E4FCE018D5E9E4FFC016081718148
S1133930828193810E940363DC01CB01F8018083BF
S11339409183CE01855E9E4F9E01295E3E4FF90113
S113395020813181FC0120833183CE01855E9E4F1D
S1133960FC01808191810197F1F79E01255E3E4F14
S1133970F901808391830000C45EDE4FCDBFDEBFBA
S1133980DF91CF911F910F9108950F931F93CF93C0
S1133990DF93CDB7DEB7CC51D140CDBFDEBF0E949F
S11339A08E2A80E090E8A2E2B4E48DA39EA3AFA3A4
S11339B0B8A720E030E04AEF54E46DA17EA18FA1C6
S11339C098A50E94E963DC01CB0189A79AA7ABA75C
S11339D0BCA720E030E040E85FE369A57AA58BA5A9
S11339E09CA50E948C6288232CF481E090E08DA732
S11339F09EA73FC020E03FEF4FE757E469A57AA5B3
S1133A008BA59CA50E94E46318164CF520E030E0D9
S1133A1040E251E46DA17EA18FA198A50E94E963C3
S1133A20DC01CB01BC01CD010E940363DC01CB01AD
S1133A308DA79EA70FC088EC90E08FA798AB8FA5A9
S1133A4098A90197F1F78FA798AB8DA59EA501972B
S1133A508DA79EA78DA59EA5892B69F714C069A57E
S1133A607AA58BA59CA50E940363DC01CB018DA7DD
S1133A709EA78DA59EA589AB9AAB89A99AA9019702
S1133A80F1F789AB9AAB80E094E0FC0180858093E8
S1133A90DE428091DE42882F90E080729927892B44
S1133AA011F40C94842A8EE080933A430C94C62932
S1133AB080913A43882F90E024E530E0A901481B27
S1133AC0590BCA0149E1489F9001499F300D1124C7
S1133AD0C901809300439093014380E094E020E87F
S1133AE0FC0125838091004390910143CC01A0E027
S1133AF0B0E0BC01CD010E943263DC01CB018983BB
S1133B009A83AB83BC832BEA3AEA4AE250E46981A4
S1133B107A818B819C810E94E963DC01CB018BABB0
S1133B209CABADABBEAB89819A81AB81BC819C015E
S1133B30AD01BC01CD010E942062DC01CB018FAB41
S1133B4098AFA9AFBAAF20E030E040E85FE36BA9DB
S1133B507CA98DA99EA90E948C6288231CF481E013
S1133B608BAF0CC120E03FEF4FE757E46FA978AD6E
S1133B7089AD9AAD0E94E46318160CF0C1C020E030
S1133B8030E04AE754E469817A818B819C810E9408
S1133B909162DC01CB018CAF9DAFAEAFBFAF8E01A4
S1133BA0005C1F4F20E030E04AEF54E46CAD7DAD83
S1133BB08EAD9FAD0E94E963DC01CB01F8018083E7
S1133BC09183A283B383CE01805C9F4F20E030E0D9
S1133BD040E85FE3FC0160817181828193810E94EE
S1133BE08C6288234CF4CE018C5B9F4F21E030E043
S1133BF0FC012083318369C0CE01805C9F4F20E0AB
S1133C003FEF4FE757E4FC0160817181828193812A
S1133C100E94E46318160CF046C020E030E040E255
S1133C2051E46CAD7DAD8EAD9FAD0E94E963DC01C6
S1133C30CB018E010C5B1F4FBC01CD010E940363BD
S1133C40DC01CB01F8018083918324C0CE018A5B1F
S1133C509F4F28EC30E0FC0120833183CE018A5B46
S1133C609F4FFC01808191810197F1F79E012A5BAE
S1133C703F4FF90180839183CE018C5B9F4F9E015E
S1133C802C5B3F4FF9012081318121503109FC0126
S1133C9020833183CE018C5B9F4FFC018081918115
S1133CA0892BA1F66BC08E010C5B1F4FCE01805C8B
S1133CB09F4FFC0160817181828193810E94036323
S1133CC0DC01CB01F80180839183CE01885B9F4F97
S1133CD09E012C5B3F4FF90120813181FC0120833F
S1133CE03183CE01885B9F4FFC01808191810197D4
S1133CF0F1F79E01285B3F4FF901808391833EC019
S1133D0020E030E04FE753E46BA97CA98DA99EA97C
S1133D100E94E46318164CF58E01065B1F4F6FA9D1
S1133D2078AD89AD9AAD0E940363DC01CB01F80143
S1133D3080839183CE01845B9F4F9E01265B3F4F1E
S1133D40F90120813181FC0120833183CE01845B20
S1133D509F4FFC01808191810197F1F79E01245BC3
S1133D603F4FF901808391831CC06BA97CA98DA965
S1133D709EA90E940363DC01CB018BAFCE01825B61
S1133D809F4F2BADFC012083CE01825B9F4FFC0132
S1133D908081282F2A95F1F7CE01825B9F4FFC0189
S1133DA0208380E094E020E8FC01268380913A435C
S1133DB0843108F08DC180E098EBA8E8B7E48D83E6
S1133DC09E83AF83B8878E01015B1F4F2BEA3AEACB
S1133DD04AE250E46D817E818F8198850E94E96377
S1133DE0DC01CB01F80180839183A283B3838E012C
S1133DF00D5A1F4F8D819E81AF81B8859C01AD0105
S1133E00BC01CD010E942062DC01CB01F80180835A
S1133E109183A283B383CE01815B9F4F20E030E086
S1133E2040E85FE3FC0160817181828193810E949B
S1133E308C6288233CF4CE01895A9F4F21E0FC0117
S1133E4020832DC1CE018D5A9F4F20E03FEF4FE7D5
S1133E5057E4FC0160817181828193810E94E46353
S1133E6018160CF0CDC020E030E04AE754E46D8130
S1133E707E818F8198850E949162DC01CB019E0135
S1133E80285A3F4FF90180839183A283B3838E0123
S1133E90045A1F4FCE01885A9F4F20E030E04AEF6A
S1133EA054E4FC0160817181828193810E94E96301
S1133EB0DC01CB01F80180839183A283B383CE011B
S1133EC0845A9F4F20E030E040E85FE3FC016081CA
S1133ED07181828193810E948C6288234CF4CE018B
S1133EE0805A9F4F21E030E0FC01208331836DC074
S1133EF0CE01845A9F4F20E03FEF4FE757E4FC0187
S1133F0060817181828193810E94E46318160CF0B0
S1133F104AC0CE01885A9F4F20E030E040E251E48D
S1133F20FC0160817181828193810E94E963DC01DB
S1133F30CB018E01005A1F4FBC01CD010E940363C7
S1133F40DC01CB01F8018083918324C0CE018E591A
S1133F509F4F28EC30E0FC0120833183CE018E5941
S1133F609F4FFC01808191810197F1F79E012E59A9
S1133F703F4FF90180839183CE01805A9F4F9E0168
S1133F80205A3F4FF9012081318121503109FC0130
S1133F9020833183CE01805A9F4FFC01808191811F
S1133FA0892BA1F67CC08E01005A1F4FCE01845A82
S1133FB09F4FFC0160817181828193810E94036320
S1133FC0DC01CB01F80180839183CE018C599F4F92
S1133FD09E01205A3F4FF90120813181FC01208349
S1133FE03183CE018C599F4FFC01808191810197CF
S1133FF0F1F79E012C593F4FF901808391834FC003
S1134000CE01815B9F4F20E030E04FE753E4FC0199
S113401060817181828193810E94E463181674F532
S11340208E010A591F4FCE018D5A9F4FFC016081AA
S11340307181828193810E940363DC01CB01F801C9
S113404080839183CE0188599F4F9E012A593F4F07
S1134050F90120813181FC0120833183CE0188590B
S11340609F4FFC01808191810197F1F79E012859AE
S11340703F4FF901808391830C94C1298E01095A21
S11340801F4FCE01815B9F4FFC0160817181828152
S113409093810E940363DC01CB01F8018083CE018C
S11340A086599F4F9E01295A3F4FF9012081FC01F7
S11340B02083CE0186599F4FFC018081282F2A95A9
S11340C0F1F7CE0186599F4FFC0120830C94C1293E
S11340D080913A43893108F08DC180E098EEADE7D4
S11340E0B7E489879A87AB87BC878E0105591F4F30
S11340F02BEA3AEA4AE250E469857A858B859C8505
S11341000E94E963DC01CB01F80180839183A283DF
S1134110B3838E0101591F4F89859A85AB85BC8570
S11341209C01AD01BC01CD010E942062DC01CB01E8
S1134130F80180839183A283B383CE0185599F4F75
S113414020E030E040E85FE3FC016081718182811E
S113415093810E948C6288233CF4CE018D589F4F3A
S113416021E0FC0120832DC1CE0181599F4F20E025
S11341703FEF4FE757E4FC016081718182819381B5
S11341800E94E46318160CF0CDC020E030E04AE74A
S113419054E469857A858B859C850E949162DC0153
S11341A0CB019E012C583F4FF90180839183A28358
S11341B0B3838E0108581F4FCE018C589F4F20E0C7
S11341C030E04AEF54E4FC01608171818281938183
S11341D00E94E963DC01CB01F80180839183A2830F
S11341E0B383CE0188589F4F20E030E040E85FE37E
S11341F0FC0160817181828193810E948C62882399
S11342004CF4CE0184589F4F21E030E0FC01208320
S113421031836DC0CE0188589F4F20E03FEF4FE7B8
S113422057E4FC0160817181828193810E94E4637F
S113423018160CF04AC0CE018C589F4F20E030E095
S113424040E251E4FC0160817181828193810E948A
S1134250E963DC01CB018E0104581F4FBC01CD0181
S11342600E940363DC01CB01F8018083918324C0A5
S1134270CE0182589F4F28EC30E0FC01208331832B
S1134280CE0182589F4FFC01808191810197F1F703
S11342909E0122583F4FF90180839183CE018458B7
S11342A09F4F9E0124583F4FF901208131812150B5
S11342B03109FC0120833183CE0184589F4FFC01D6
S11342C080819181892BA1F67CC08E0104581F4FF7
S11342D0CE0188589F4FFC01608171818281938156
S11342E00E940363DC01CB01F80180839183CE013A
S11342F080589F4F9E0124583F4FF90120813181FE
S1134300FC0120833183CE0180589F4FFC018081C2
S113431091810197F1F79E0120583F4FF901808365
S113432091834FC0CE0185599F4F20E030E04FE785
S113433053E4FC0160817181828193810E94E46372
S1134340181674F58E010E571F4FCE0181599F4FD9
S1134350FC0160817181828193810E940363DC018D
S1134360CB01F80180839183CE018C579F4F9E012E
S11343702E573F4FF90120813181FC012083318385
S1134380CE018C579F4FFC01808191810197F1F7F9
S11343909E012C573F4FF901808391830C94C129CE
S11343A08E010D581F4FCE0185599F4FFC0160812E
S11343B07181828193810E940363DC01CB01F80146
S11343C08083CE018A579F4F9E012D583F4FF9019C
S11343D02081FC012083CE018A579F4FFC018081FC
S11343E0282F2A95F1F7CE018A579F4FFC0120838D
S11343F00C94C12980913A438E3108F08BC180E03E
S113440090E9A2E6B7E48D879E87AF87B88B8E01CB
S113441009571F4F2BEA3AEA4AE250E46D857E853C
S11344208F8598890E94E963DC01CB01F8018083C0
S11344309183A283B3838E0105571F4F8D859E857B
S1134440AF85B8899C01AD01BC01CD010E942062F9
S1134450DC01CB01F80180839183A283B383CE0175
S113446089579F4F20E030E040E85FE3FC01608122
S11344707181828193810E948C6288233CF4CE01F5
S113448081579F4F21E0FC0120832CC1CE01855729
S11344909F4F20E03FEF4FE757E4FC0160817181BB
S11344A0828193810E94E46318160CF0CDC020E051
S11344B030E04AE754E46D857E858F8598890E94B3
S11344C09162DC01CB019E0120573F4FF9018083AB
S11344D09183A283B3838E010C561F4FCE01805764
S11344E09F4F20E030E04AEF54E4FC016081718189
S11344F0828193810E94E963DC01CB01F80180830E
S11345009183A283B383CE018C569F4F20E030E089
S113451040E85FE3FC0160817181828193810E94A4
S11345208C6288234CF4CE0188569F4F21E030E002
S1134530FC01208331836DC0CE018C569F4F20E057
S11345403FEF4FE757E4FC016081718182819381E1
S11345500E94E46318160CF04AC0CE0180579F4FA6
S113456020E030E040E251E4FC016081718182810D
S113457093810E94E963DC01CB018E0108561F4F31
S1134580BC01CD010E940363DC01CB01F8018083EF
S1134590918324C0CE0186569F4F28EC30E0FC0165
S11345A020833183CE0186569F4FFC018081918107
S11345B00197F1F79E0126563F4FF90180839183BD
S11345C0CE0188569F4F9E0128563F4FF901208106
S11345D0318121503109FC0120833183CE01885679
S11345E09F4FFC0180819181892BA1F67BC08E01B4
S11345F008561F4FCE018C569F4FFC01608171817C
S1134600828193810E940363DC01CB01F8018083E2
S11346109183CE0184569F4F9E0128563F4FF90146
S113462020813181FC0120833183CE0184569F4F48
S1134630FC01808191810197F1F79E0124563F4F3F
S1134640F901808391834EC0CE0189579F4F20E0AA
S113465030E04FE753E4FC016081718182819381F2
S11346600E94E46318166CF58E0102561F4FCE01AA
S113467085579F4FFC0160817181828193810E94E3
S11346800363DC01CB01F80180839183CE01805662
S11346909F4F9E0122563F4FF90120813181FC0139
S11346A020833183CE0180569F4FFC01808191810C
S11346B00197F1F79E0120563F4FF90180839183C2
S11346C060C68E0101571F4FCE0189579F4FFC01D1
S11346D060817181828193810E940363DC01CB013B
S11346E0F8018083CE018E559F4F9E0121573F4F85
S11346F0F9012081FC012083CE018E559F4FFC01DE
S11347008081282F2A95F1F7CE018E559F4FFC0109
S1134710208337C680913A43883208F08BC180E009
S113472090E5A3E4B7E4898B9A8BAB8BBC8B8E01A9
S11347300D551F4F2BEA3AEA4AE250E469897A8917
S11347408B899C890E94E963DC01CB01F801808399
S11347509183A283B3838E0109551F4F89899A8956
S1134760AB89BC899C01AD01BC01CD010E942062D2
S1134770DC01CB01F80180839183A283B383CE0152
S11347808D559F4F20E030E040E85FE3FC016081FD
S11347907181828193810E948C6288233CF4CE01D2
S11347A085559F4F21E0FC0120832CC1CE01895502
S11347B09F4F20E03FEF4FE757E4FC016081718198
S11347C0828193810E94E46318160CF0CDC020E02E
S11347D030E04AE754E469897A898B899C890E948C
S11347E09162DC01CB019E0124553F4FF901808386
S11347F09183A283B3838E0100551F4FCE0184554C
S11348009F4F20E030E04AEF54E4FC016081718165
S1134810828193810E94E963DC01CB01F8018083EA
S11348209183A283B383CE0180559F4F20E030E073
S113483040E85FE3FC0160817181828193810E9481
S11348408C6288234CF4CE018C549F4F21E030E0DD
S1134850FC01208331836DC0CE0180559F4F20E041
S11348603FEF4FE757E4FC016081718182819381BE
S11348700E94E46318160CF04AC0CE0184559F4F81
S113488020E030E040E251E4FC01608171818281EA
S113489093810E94E963DC01CB018E010C541F4F0C
S11348A0BC01CD010E940363DC01CB01F8018083CC
S11348B0918324C0CE018A549F4F28EC30E0FC0140
S11348C020833183CE018A549F4FFC0180819181E2
S11348D00197F1F79E012A543F4FF9018083918398
S11348E0CE018C549F4F9E012C543F4FF9012081DF
S11348F0318121503109FC0120833183CE018C5454
S11349009F4FFC0180819181892BA1F67BC08E0190
S11349100C541F4FCE0180559F4FFC016081718163
S1134920828193810E940363DC01CB01F8018083BF
S11349309183CE0188549F4F9E012C543F4FF9011F
S113494020813181FC0120833183CE0188549F4F23
S1134950FC01808191810197F1F79E0128543F4F1A
S1134960F901808391834EC0CE018D559F4F20E085
S113497030E04FE753E4FC016081718182819381CF
S11349800E94E46318166CF58E0106541F4FCE0185
S113499089559F4FFC0160817181828193810E94BE
S11349A00363DC01CB01F80180839183CE0184543D
S11349B09F4F9E0126543F4FF90120813181FC0114
S11349C020833183CE0184549F4FFC0180819181E7
S11349D00197F1F79E0124543F4FF901808391839D
S11349E0D0C48E0105551F4FCE018D559F4FFC013C
S11349F060817181828193810E940363DC01CB0118
S1134A00F8018083CE0182549F4F9E0125553F4F6C
S1134A10F9012081FC012083CE0182549F4FFC01C7
S1134A208081282F2A95F1F7CE0182549F4FFC01F3
S1134A302083A7C480913A43823308F08BC180E07D
S1134A4090E4ACE1B7E48D8B9E8BAF8BB88F8E0175
S1134A5001541F4F2BEA3AEA4AE250E46D897E89F9
S1134A608F89988D0E94E963DC01CB01F801808372
S1134A709183A283B3838E010D531F4F8D899E8929
S1134A80AF89B88D9C01AD01BC01CD010E942062AB
S1134A90DC01CB01F80180839183A283B383CE012F
S1134AA081549F4F20E030E040E85FE3FC016081E7
S1134AB07181828193810E948C6288233CF4CE01AF
S1134AC089539F4F21E0FC0120832CC1CE018D53DB
S1134AD09F4F20E03FEF4FE757E4FC016081718175
S1134AE0828193810E94E46318160CF0CDC020E00B
S1134AF030E04AE754E46D897E898F89988D0E945D
S1134B009162DC01CB019E0128533F4FF901808360
S1134B109183A283B3838E0104531F4FCE01885324
S1134B209F4F20E030E04AEF54E4FC016081718142
S1134B30828193810E94E963DC01CB01F8018083C7
S1134B409183A283B383CE0184539F4F20E030E04E
S1134B5040E85FE3FC0160817181828193810E945E
S1134B608C6288234CF4CE0180539F4F21E030E0C7
S1134B70FC01208331836DC0CE0184539F4F20E01C
S1134B803FEF4FE757E4FC0160817181828193819B
S1134B900E94E46318160CF04AC0CE0188539F4F5C
S1134BA020E030E040E251E4FC01608171818281C7
S1134BB093810E94E963DC01CB018E0100531F4FF6
S1134BC0BC01CD010E940363DC01CB01F8018083A9
S1134BD0918324C0CE018E529F4F28EC30E0FC011B
S1134BE020833183CE018E529F4FFC0180819181BD
S1134BF00197F1F79E012E523F4FF9018083918373
S1134C00CE0180539F4F9E0120533F4FF9012081D5
S1134C10318121503109FC0120833183CE0180533D
S1134C209F4FFC0180819181892BA1F67BC08E016D
S1134C3000531F4FCE0184539F4FFC01608171814B
S1134C40828193810E940363DC01CB01F80180839C
S1134C509183CE018C529F4F9E0120533F4FF90107
S1134C6020813181FC0120833183CE018C529F4FFE
S1134C70FC01808191810197F1F79E012C523F4FF5
S1134C80F901808391834EC0CE0181549F4F20E06F
S1134C9030E04FE753E4FC016081718182819381AC
S1134CA00E94E46318166CF58E010A521F4FCE0160
S1134CB08D539F4FFC0160817181828193810E9499
S1134CC00363DC01CB01F80180839183CE01885218
S1134CD09F4F9E012A523F4FF90120813181FC01EF
S1134CE020833183CE0188529F4FFC0180819181C2
S1134CF00197F1F79E0128523F4FF9018083918378
S1134D0040C38E0109531F4FCE0181549F4FFC01B4
S1134D1060817181828193810E940363DC01CB01F4
S1134D20F8018083CE0186529F4F9E0129533F4F45
S1134D30F9012081FC012083CE0186529F4FFC01A2
S1134D408081282F2A95F1F7CE0186529F4FFC01CE
S1134D50208317C380913A438C3308F08BC180E0E1
S1134D6098ECAFE2B7E4898F9A8FAB8FBC8F8E013A
S1134D7005521F4F2BEA3AEA4AE250E4698D7A8DD4
S1134D808B8D9C8D0E94E963DC01CB01F80180834B
S1134D909183A283B3838E0101521F4F898D9A8D13
S1134DA0AB8DBC8D9C01AD01BC01CD010E94206284
S1134DB0DC01CB01F80180839183A283B383CE010C
S1134DC085529F4F20E030E040E85FE3FC016081C2
S1134DD07181828193810E948C6288233CF4CE018C
S1134DE08D519F4F21E0FC0120832CC1CE018152C3
S1134DF09F4F20E03FEF4FE757E4FC016081718152
S1134E00828193810E94E46318160CF0CDC020E0E7
S1134E1030E04AE754E4698D7A8D8B8D9C8D0E9435
S1134E209162DC01CB019E012C513F4FF90180833B
S1134E309183A283B3838E0108511F4FCE018C51FD
S1134E409F4F20E030E04AEF54E4FC01608171811F
S1134E50828193810E94E963DC01CB01F8018083A4
S1134E609183A283B383CE0188519F4F20E030E029
S1134E7040E85FE3FC0160817181828193810E943B
S1134E808C6288234CF4CE0184519F4F21E030E0A2
S1134E90FC01208331836DC0CE0188519F4F20E0F7
S1134EA03FEF4FE757E4FC01608171818281938178
S1134EB00E94E46318160CF04AC0CE018C519F4F37
S1134EC020E030E040E251E4FC01608171818281A4
S1134ED093810E94E963DC01CB018E0104511F4FD1
S1134EE0BC01CD010E940363DC01CB01F801808386
S1134EF0918324C0CE0182519F4F28EC30E0FC0105
S1134F0020833183CE0182519F4FFC0180819181A6
S1134F100197F1F79E0122513F4FF901808391835C
S1134F20CE0184519F4F9E0124513F4FF9012081AE
S1134F30318121503109FC0120833183CE01845118
S1134F409F4FFC0180819181892BA1F67BC08E014A
S1134F5004511F4FCE0188519F4FFC016081718124
S1134F60828193810E940363DC01CB01F801808379
S1134F709183CE0180519F4F9E0124513F4FF901EF
S1134F8020813181FC0120833183CE0180519F4FE8
S1134F90FC01808191810197F1F79E0120513F4FDF
S1134FA0F901808391834EC0CE0185529F4F20E04A
S1134FB030E04FE753E4FC01608171818281938189
S1134FC00E94E46318166CF58E010E501F4FCE013B
S1134FD081529F4FFC0160817181828193810E9483
S1134FE00363DC01CB01F80180839183CE018C50F3
S1134FF09F4F9E012E503F4FF90120813181FC01CA
S113500020833183CE018C509F4FFC01808191819C
S11350100197F1F79E012C503F4FF9018083918352
S1135020B0C18E010D511F4FCE0185529F4FFC011F
S113503060817181828193810E940363DC01CB01D1
S1135040F8018083CE018A509F4F9E012D513F4F1E
S1135050F9012081FC012083CE018A509F4FFC017D
S11350608081282F2A95F1F7CE018A509F4FFC01A9
S1135070208387C180E090E5A3E4B7E48D8F9E8F01
S1135080AF8FB8A38E0109501F4F2BEA3AEA4AE2C8
S113509050E46D8D7E8D8F8D98A10E94E963DC01B3
S11350A0CB01F80180839183A283B3838E010550E1
S11350B01F4F8D8D9E8DAF8DB8A19C01AD01BC019C
S11350C0CD010E942062DC01CB01F8018083918331
S11350D0A283B383CE0189509F4F20E030E040E8A3
S11350E05FE3FC0160817181828193810E948C6203
S11350F088233CF4CE0181509F4F21E0FC012083A2
S113510029C1CE0185509F4F20E03FEF4FE757E480
S1135110FC0160817181828193810E94E46318168D
S11351200CF0CAC020E030E04AE754E46D8D7E8D77
S11351308F8D98A10E949162DC01CB019E01339571
S1135140F90180839183A283B3838E010C5F1E4F88
S1135150CE01939520E030E04AEF54E4FC016081F5
S11351607181828193810E94E963DC01CB01F801A2
S113517080839183A283B383CE018C5F9E4F20E012
S113518030E040E85FE3FC016081718182819381BA
S11351900E948C6288234CF4CE01885F9E4F21E0EC
S11351A030E0FC01208331836CC0CE018C5F9E4FC4
S11351B020E03FEF4FE757E4FC0160817181828179
S11351C093810E94E46318160CF049C0CE019395B4
S11351D020E030E040E251E4FC0160817181828191
S11351E093810E94E963DC01CB018E01085F1E4FAD
S11351F0BC01CD010E940363DC01CB01F801808373
S1135200918324C0CE01865F9E4F28EC30E0FC01E0
S113521020833183CE01865F9E4FFC018081918182
S11352200197F1F79E01265F3E4FF9018083918338
S1135230CE01885F9E4F9E01285F3E4FF901208179
S1135240318121503109FC0120833183CE01885FF3
S11352509E4FFC0180819181892BA1F67BC08E0138
S1135260085F1E4FCE018C5F9E4FFC0160817181EF
S1135270828193810E940363DC01CB01F801808366
S11352809183CE01845F9E4F9E01285F3E4FF901BA
S113529020813181FC0120833183CE01845F9E4FC4
S11352A0FC01808191810197F1F79E01245F3E4FBB
S11352B0F901808391834EC0CE0189509F4F20E035
S11352C030E04FE753E4FC01608171818281938176
S11352D00E94E46318166CF58E01025F1E4FCE0126
S11352E085509F4FFC0160817181828193810E946E
S11352F00363DC01CB01F80180839183CE01805FDD
S11353009E4F9E01225F3E4FF90120813181FC01B5
S113531020833183CE01805F9E4FFC018081918187
S11353200197F1F79E01205F3E4FF901808391833D
S113533028C08E0101501F4FCE0189509F4FFC01A0
S113534060817181828193810E940363DC01CB01BE
S1135350F8018083CE018E5E9E4F9E0121503F4F07
S1135360F9012081FC012083CE018E5E9E4FFC0159
S11353708081282F2A95F1F7CE018E5E9E4FFC0185
S1135380208380913A438F5F80933A4380913A43DC
S1135390873410F40C94581D80E090E0A0EFB1E441
S11353A089A39AA3ABA3BCA38E010D5E1E4F20E07C
S11353B030E04AEF54E469A17AA18BA19CA10E9438
S11353C0E963DC01CB01F80180839183A283B38379
S11353D0CE018D5E9E4F20E030E040E85FE3FC01AB
S11353E060817181828193810E948C6288234CF454
S11353F0CE01895E9E4F21E030E0FC0120833183A1
S113540069C0CE018D5E9E4F20E03FEF4FE757E429
S1135410FC0160817181828193810E94E46318168A
S11354200CF046C020E030E040E251E469A17AA1EA
S11354308BA19CA10E94E963DC01CB018E01095E72
S11354401E4FBC01CD010E940363DC01CB01F801B6
S11354508083918324C0CE01875E9E4F28EC30E088
S1135460FC0120833183CE01875E9E4FFC01808145
S113547091810197F1F79E01275E3E4FF9018083E8
S11354809183CE01895E9E4F9E01295E3E4FF901B4
S11354902081318121503109FC0120833183CE01E7
S11354A0895E9E4FFC0180819181892BA1F62CC0DD
S11354B08E01095E1E4FCE018D5E9E4FFC01608100
S11354C07181828193810E940363DC01CB01F80125
S11354D080839183CE01855E9E4F9E01295E3E4F5F
S11354E0F90120813181FC0120833183CE01855E65
S11354F09E4FFC01808191810197F1F79E01255E09
S11355003E4FF901808391830000C45EDE4FCDBF1E
S1135510DEBFDF91CF911F910F910895CF93DF9359
S1135520CDB7DEB780E094E020E4FC0125830000E1
S1135530DF91CF910895CF93DF93CDB7DEB780E0AD
S113554094E020E4FC0126830000DF91CF910895CC
S1135550CF93DF93CDB7DEB780EA94E028E0FC0177
S113556026830000DF91CF910895CF93DF93CDB7C9
S1135570DEB780EA94E028E0FC0125830000DF9197
S1135580CF910895CF93DF93CDB7DEB780E09AE053
S113559020E03AE0F90122852160FC01228780E0C5
S11355A09AE0FC01118280E09AE020E03AE0F901FF
S11355B021852E7FFC01218780E09AE02FEF3FEFC9
S11355C0FC0126A337A380E09AE02FE0FC012083AE
S11355D00000DF91CF910895CF93DF93CDB7DEB76D
S11355E080E09AE0FC01108280E09AE0FC011286DF
S11355F01092E4420000DF91CF9108951F920F9220
S113560000903F000F92112400903B000F922F93C3
S11356108F939F93EF93FF93CF93DF93CDB7DEB731
S1135620F8948091E4428F5F8093E44280E09AE0B2
S113563021E0FC0123878091D542813051F480918F
S1135640E442873078F088ED91E084BF9093410084
S113565009C08091E442853228F088ED91E084BF4E
S11356609093410078940000DF91CF91FF91EF91E6
S11356709F918F912F910F9000923B000F90009279
S11356803F000F901F9018951F920F9200903F00BB
S11356900F92112400903B000F922F933F934F934E
S11356A05F936F937F938F939F93AF93BF93EF9386
S11356B0FF93CF93DF93CDB7DEB72E97CDBFDEBF79
S11356C0F89480E090E0A8E4B2E489839A83AB8301
S11356D0BC8320E030E04AEF54E469817A818B8115
S11356E09C810E94E963DC01CB018D839E83AF839F
S11356F0B88720E030E040E85FE36D817E818F81F0
S113570098850E948C6288232CF481E090E089873C
S11357109A873FC020E03FEF4FE757E46D817E81D9
S11357208F8198850E94E46318164CF520E030E0E0
S113573040E251E469817A818B819C810E94E96312
S1135740DC01CB01BC01CD010E940363DC01CB0170
S113575089879A870FC088EC90E08B879C878B851C
S11357609C850197F1F78B879C8789859A8501979A
S113577089879A8789859A85892B69F714C06D81F1
S11357807E818F8198850E940363DC01CB01898728
S11357909A8789859A858D879E878D859E850197B1
S11357A0F1F78D879E8780E094E0FC0180858093EB
S11357B0DE428091DE42882F90E080719927892B08
S11357C021F081E08093434302C01092434380E080
S11357D094E02FEFFC01218780E294E02FEFFC019D
S11357E0218780E494E02FEFFC01218780E894E096
S11357F02FEFFC012187789400002E96CDBFDEBFE9
S1135800DF91CF91FF91EF91BF91AF919F918F91D4
S11358107F916F915F914F913F912F910F900092E3
S11358203B000F9000923F000F901F9018951F921D
S11358300F9200903F000F92112400903B000F92B2
S11358402F933F934F935F936F937F938F939F9384
S1135850AF93BF93EF93FF93CF93DF93CDB7DEB7AF
S11358602E97CDBFDEBFF89480E090E0A0EFB1E4C6
S113587089839A83AB83BC8320E030E04AEF54E40D
S113588069817A818B819C810E94E963DC01CB016F
S11358908D839E83AF83B88720E030E040E85FE3E8
S11358A06D817E818F8198850E948C6288232CF47F
S11358B081E090E089879A873FC020E03FEF4FE77F
S11358C057E46D817E818F8198850E94E463181668
S11358D04CF520E030E040E251E469817A818B812B
S11358E09C810E94E963DC01CB01BC01CD010E94D3
S11358F00363DC01CB0189879A870FC088EC90E0B1
S11359008B879C878B859C850197F1F78B879C8778
S113591089859A85019789879A8789859A85892BAC
S113592069F714C06D817E818F8198850E9403631D
S1135930DC01CB0189879A8789859A858D879E8723
S11359408D859E850197F1F78D879E8780E294E08F
S1135950FC0180858093DF428091D542813041F4FF
S113596080914343882321F40E94EC2A0E94C22A96
S113597080E494E0FC0180858823DCF080E294E0FC
S1135980FC018085882F90E080719927892B89F408
S11359908091D542882369F480914343882349F454
S11359A081E08093D54281E0809340430E94A90026
S11359B025C18091DF42882F90E080719927892B3F
S11359C051F18091E542813031F10E94A90080912A
S11359D04040882F90E08093E6429093E7421092F3
S11359E0404081E08093E5420E949A0E80E094E07A
S11359F02FEFFC01218780E294E02FEFFC01218747
S1135A0080E494E02FEFFC01218780E894E02FEFFD
S1135A10FC012187CDC18091E542813009F09AC013
S1135A208091DF42882F90E080719927892B09F4B7
S1135A3091C08091DF428C708093D3429091D34285
S1135A4080914A43981709F44DC081E08093D9426C
S1135A508091D342882F90E084309105B9F085304D
S1135A6091051CF4892B39F039C08830910521F156
S1135A700C97B9F033C080914A43882F90E08C7022
S1135A809927089721F51092D94221C080914A4361
S1135A90882F90E08C709927892BD9F41092D942E1
S1135AA018C080914A43882F90E08C7099270497FE
S1135AB091F41092D9420FC080914A43882F90E00C
S1135AC08C7099270C9749F41092D94206C00000B3
S1135AD005C0000003C0000001C000008091DF4247
S1135AE080934A430E94A9008091D942882379F087
S1135AF0809141408530C8F080914140815080932D
S1135B004140809141408150809341400EC080913A
S1135B1041408E3050F4809141408F5F80934140EA
S1135B20809141408F5F8093414080E094E02FEF6B
S1135B30FC01218780E294E02FEFFC01218780E4BF
S1135B4094E02FEFFC01218780E894E02FEFFC0123
S1135B5021872EC18091E542813009F04FC080E257
S1135B6094E0FC018085882F90E080719927892B2F
S1135B7009F044C00E94A9001092E5428091E642D7
S1135B809091E7428093404080914040882F90E07C
S1135B9083309105A9F08430910534F48130910566
S1135BA0A9F0029781F015C08430910531F0059772
S1135BB009F00FC00E94180E0CC00E94320E09C0DA
S1135BC00E944C0E06C00E94660E03C00E94800E06
S1135BD0000080E094E02FEFFC01218780E294E054
S1135BE02FEFFC01218780E494E02FEFFC01218753
S1135BF080E894E02FEFFC012187DAC08091DF4236
S1135C008C708093E34281E08093D9428091E34297
S1135C10882F90E084309105B9F0853091051CF40B
S1135C20892B39F039C08830910521F10C97B9F0EE
S1135C3033C080914A43882F90E08C70992708974D
S1135C4021F51092D94221C080914A43882F90E0D7
S1135C508C709927892BD9F41092D94218C080915D
S1135C604A43882F90E08C709927049791F41092FE
S1135C70D9420FC080914A43882F90E08C709927B5
S1135C800C9749F41092D94206C0000005C00000E8
S1135C9003C0000001C000008091DF4280934A43AA
S1135CA08091E542882309F06EC0809140408823AA
S1135CB009F469C00E94A90080914040882F90E0B7
S1135CC08330910581F1843091053CF48130910554
S1135CD009F449C00297B9F156C08430910599F08E
S1135CE0059709F050C08091D942882331F081E0B2
