S0150000574D4F535F4156525F436F64652E73726563A7
S11300000C9482000C94A1000C94A1000C94A10007
S11300100C94A1000C94A1000C94A1000C94A100D8
S11300200C94882F0C94422F0C94A1000C94A100E2
S11300300C94A1000C94A1000C94A1000C94A100B8
S11300400C94A1000C94A1000C94A1000C94A100A8
S11300500C94A1000C94A1000C94A1000C94A10098
S11300600C94AB340C94A1000C94A1000C94A1004A
S11300700C94A1000C94A1000C9436330C94A100B0
S11300800C94A1000C94A1000C94A1000C94A10068
S11300900C94A1000C94A1000C94A1000C94A10058
S11300A00C94A1000C94A1000C94A1000C94A10048
S11300B00C94A1000C945B300C9439330C94A10083
S11300C00C94A1000C94A1000C94A1000C94A10028
S11300D00C94A1000C94A1000C94A1000C94A10018
S11300E00C94A1000C94A1000C94A1000C94A10008
S11300F00C94A1000C94A1000C94B0010C94A100E8
S11301000C94A10011241FBECFEFCDBFDFE7DEBFEB
S113011012E4A0E0B0E4E0EFF3ED00E00BBF02C0B6
S113012007900D92A83CB107D9F723E4A8ECB2E4F8
S113013001C01D92A036B207E1F70E9470390C94F9
S1130140F6690C94000088ED84BF84E9809368000C
S11301500895CF93DF93CDB7DEB7A097CDBFDEBFB1
S113016080E294E020E2FC01258380E090E8ABEBA0
S1130170B4E489839A83AB83BC832BEA3AEA4AE2E8
S113018050E469817A818B819C810E940066DC0144
S1130190CB018D839E83AF83B88789819A81AB819C
S11301A0BC819C01AD01BC01CD010E943764DC011E
S11301B0CB0189879A87AB87BC8720E030E040E891
S11301C05FE36D817E818F8198850E94A36488237B
S11301D01CF481E08D87B2C020E03FEF4FE757E485
S11301E069857A858B859C850E94FB6518160CF0C1
S11301F07BC020E030E04AE754E469817A818B8156
S11302009C810E94A864DC01CB018E879F87A88B08
S1130210B98B20E030E04AEF54E46E857F8588890D
S113022099890E940066DC01CB018A8B9B8BAC8B85
S1130230BD8B20E030E040E85FE36A897B898C89EC
S11302409D890E94A36488232CF481E090E08E8B26
S11302509F8B3FC020E03FEF4FE757E46A897B89DB
S11302608C899D890E94FB6518164CF520E030E0CE
S113027040E251E46E857F85888999890E940066F1
S1130280DC01CB01BC01CD010E941A65DC01CB016C
S11302908E8B9F8B0FC088EC90E0888F998F888D10
S11302A0998D0197F1F7888F998F8E899F8901978E
S11302B08E8B9F8B8E899F89892B69F73FC06A89B2
S11302C07B898C899D890E941A65DC01CB018E8B08
S11302D09F8B8E899F898A8F9B8F8A8D9B8D019797
S11302E0F1F78A8F9B8F2AC020E030E04FE753E478
S11302F06D817E818F8198850E94FB651816ACF410
S113030069857A858B859C850E941A65DC01CB0101
S11303108C8F9D8F8C8D9D8D8E8F9F8F8E8D9F8DBD
S11303200197F1F78E8F9F8F0FC06D817E818F8132
S113033098850E941A65DC01CB018D878D8588A381
S113034088A18A95F1F788A380E294E020E2FC0179
S113035026830000A096CDBFDEBFDF91CF91089524
S11303601F920F9200903F000F92112400903B00C7
S11303700F922F933F934F935F936F937F938F933A
S11303809F93AF93BF93EF93FF93CF93DF93CDB737
S1130390DEB7F8940E94B10280934F4380914F439B
S11303A08A30C1F080914F438D30A1F08091F942A1
S11303B091E0980F9093F942882F90E020914F4359
S11303C08E5E9C4BFC0120838091F942833310F0B4
S11303D01092F94280914F438A3071F48091F9422E
S11303E0882F90E08E5E9C4BFC0110821092F942A3
S11303F082E193E40E94C30278940000DF91CF91DC
S1130400FF91EF91BF91AF919F918F917F916F91E8
S11304105F914F913F912F910F9000923B000F906D
S113042000923F000F901F901895CF93DF93CDB7A4
S1130430DEB780EC94E020EC34E0F90120812D7FDC
S1130440FC01208380EC94E020EC34E0F90120816D
S11304502160FC01208380EA98E020EA38E0F90179
S11304602681206CFC01268380EA98E026E131E0B5
S1130470FC012087318780EA98E020EA38E0F9011E
S113048025812068FC01258378940000DF91CF91B9
S11304900895CF93DF93CDB7DEB780EC94E02CE1E1
S11304A0FC0121830E94A0020E9415020000DF913A
S11304B0CF910895CF93DF931F92CDB7DEB7898391
S11304C0000080EA98E0FC018481882F90E080722B
S11304D09927892BB1F380EA98E02981FC012283D2
S11304E000000F90DF91CF910895CF93DF9300D058
S11304F000D0CDB7DEB78B839C8319821A820FC0DC
S11305002B813C8189819A81820F931FFC01808118
S11305100E945A0289819A81019689839A838B81E8
S11305209C810E9410679C0189819A81821793079C
S113053038F300002496CDBFDEBFDF91CF9108953C
S1130540CF93DF93CDB7DEB780EC94E020EC34E0BA
S1130550F90125812461FC0125830000DF91CF91FD
S11305600895CF93DF93CDB7DEB7000080EA98E01B
S1130570FC0184818823D4F780EA98E0FC0180811F
S1130580DF91CF910895CF93DF93CDB7DEB7C154F8
S1130590D109CDBFDEBF9E01205C3F4FF9018083AE
S11305A09183CE01805C9F4FFC018081918162E444
S11305B070E40E940767892B41F480E090E40E9474
S11305C075028AE00E945A0205C3CE01805C9F4FE7
S11305D0FC018081918164E470E40E940767892BA7
S11305E041F480E190E40E9475028AE00E945A027C
S11305F0F1C2CE01805C9F4FFC018081918166E451
S113060070E40E940767892B41F480E290E40E9421
S113061075028AE00E945A02DDC2CE01805C9F4FBF
S1130620FC018081918168E470E40E940767892B52
S113063021F519821A8214C089819A81805D9F4BA9
S1130640FC0140819E01215D3F4F89819A81820F87
S1130650931FFC01408389819A81019689839A833F
S113066089819A81409740F31FAECE018F960E94F4
S113067075028AE00E945A02ADC2CE01805C9F4F8F
S1130680FC01808191816AE470E40E940767892BF0
S113069009F03FC0CE0141964EE150E060E070E0C9
S11306A00E94006760910443709105434091484360
S11306B050914943209144433091454380915143A3
S11306C090915243E72FEF936F93652F6F934F935E
S11306D0432F4F932F93292F2F938F938CE490E4E0
S11306E0892F8F938CE490E48F93CE014196292F28
S11306F02F938F930E9419678DB79EB70C96CDBF29
S1130700DEBFCE0141960E9475028AE00E945A0221
S113071061C2CE01805C9F4FFC018081918166E5BE
S113072070E40E940767892B09F03FC0CE0141960F
S11307304EE150E060E070E00E9400676091084381
S113074070910943409101435091024320915443D5
S11307503091554380914D4390914E43E72FEF9351
S11307606F93652F6F934F93432F4F932F93292F9D
S11307702F938F938CE490E4892F8F938CE490E4EF
S11307808F93CE014196292F2F938F930E9419673F
S11307908DB79EB70C96CDBFDEBFCE0141960E94A9
S11307A075028AE00E945A0215C2CE01805C9F4FF6
S11307B0FC018081918168E570E40E940767892BC0
S11307C009F03FC0CE0141964EE150E060E070E098
S11307D00E940067609146437091474340914B43A8
S11307E050914C4320915B4330915C43809106438C
S11307F090910743E72FEF936F93652F6F934F9378
S1130800432F4F932F93292F2F938F938CE490E4AE
S1130810892F8F938CE490E48F93CE014196292FF6
S11308202F938F930E9419678DB79EB70C96CDBFF7
S1130830DEBFCE0141960E9475028AE00E945A02F0
S1130840C9C1CE01805C9F4FFC01808191816AE522
S113085070E40E940767892B59F5CE0141964EE159
S113086050E060E070E00E9400678091DE42909169
S1130870DF42292F2F938F938CE590E4892F8F9358
S11308808CE590E48F93CE014196292F2F938F937B
S11308900E9419670F900F900F900F900F900F9078
S11308A0CE0141960E9475028AE00E945A0292C1CA
S11308B0CE01805C9F4FFC018081918160E670E4F1
S11308C00E940767892B59F5CE0141964EE150E00D
S11308D060E070E00E9400678091DC429091DD420C
S11308E0292F2F938F938CE590E4892F8F938CE598
S11308F090E48F93CE014196292F2F938F930E94DA
S113090019670F900F900F900F900F900F90CE01DA
S113091041960E9475028AE00E945A025BC1CE0190
S1130920805C9F4FFC018081918162E670E40E94AB
S11309300767892B59F5CE0141964EE150E060E0FE
S113094070E00E9400678091DA429091DB42292F87
S11309502F938F938CE590E4892F8F938CE590E40B
S11309608F93CE014196292F2F938F930E9419675D
S11309700F900F900F900F900F900F90CE01419613
S11309800E9475028AE00E945A0224C1CE01805C52
S11309909F4FFC018081918164E670E40E940767A7
S11309A0892B59F5CE0141964EE150E060E070E0AC
S11309B00E9400678091D8429091D942292F2F93A9
S11309C08F938CE590E4892F8F938CE590E48F933B
S11309D0CE014196292F2F938F930E9419670F9070
S11309E00F900F900F900F900F90CE0141960E94A0
S11309F075028AE00E945A02EDC0CE01805C9F4FCE
S1130A00FC018081918166E670E40E940767892B6E
S1130A1059F5CE0141964EE150E060E070E00E944D
S1130A2000678091D6429091D742292F2F938F93BC
S1130A308CE590E4892F8F938CE590E48F93CE011D
S1130A404196292F2F938F930E9419670F900F902F
S1130A500F900F900F900F90CE0141960E94750257
S1130A608AE00E945A02B6C0CE01805C9F4FFC010E
S1130A708081918168E670E40E940767892B59F5AB
S1130A80CE0141964EE150E060E070E00E940067C4
S1130A908091D4429091D542292F2F938F938CE546
S1130AA090E4892F8F938CE590E48F93CE01419647
S1130AB0292F2F938F930E9419670F900F900F90F7
S1130AC00F900F900F90CE0141960E9475028AE01C
S1130AD00E945A027FC0CE01805C9F4FFC0180813E
S1130AE091816AE670E40E940767892B09F072C05D
S1130AF080E090E0A0EFB1E48B839C83AD83BE8360
S1130B0020E030E04AEF54E46B817C818D819E814A
S1130B100E940066DC01CB018F839887A987BA877E
S1130B2020E030E040E85FE36F81788589859A852D
S1130B300E94A36488232CF481E090E08B879C8737
S1130B403FC020E03FEF4FE757E46F817885898508
S1130B509A850E94FB6518164CF520E030E040E2CF
S1130B6051E46B817C818D819E810E940066DC0151
S1130B70CB01BC01CD010E941A65DC01CB018B873E
S1130B809C870FC088EC90E08D879E878D859E851D
S1130B900197F1F78D879E878B859C8501978B87BD
S1130BA09C878B859C85892B69F714C06F81788518
S1130BB089859A850E941A65DC01CB018B879C8705
S1130BC08B859C858F87988B8F8598890197F1F702
S1130BD08F87988B0000CF5BDF4FCDBFDEBFDF91E7
S1130BE0CF910895CF93DF93CDB7DEB780E094E043
S1130BF021E0FC01218380E294E021E0FC012183D7
S1130C0080E494E021E0FC01218380EA94E020E187
S1130C10FC01218380EE95E020EE35E0F90122818C
S1130C202061FC01228380E498E025E03DE0FC01A2
S1130C302087318780E098E021E433E0FC012087BD
S1130C40318780E698E021E433E0FC012087318796
S1130C5080E298E021E433E0FC012087318780E0E2
S1130C6098E020E038E0F90126812064FC01268325
S1130C7080E098E020E038E0F90126812068FC015A
S1130C80268380E298E020E238E0F901268120649E
S1130C90FC01268380E298E020E238E0F901268115
S1130CA02068FC01268380E498E020E438E0F90120
S1130CB026812064FC01268380E498E020E438E067
S1130CC0F90126812068FC01268380E698E020E66D
S1130CD038E0F90126812064FC01268380E698E04F
S1130CE020E638E0F90126812068FC0126830E9471
S1130CF049020000DF91CF910895CF93DF931F92B3
S1130D00CDB7DEB78983000080E098E0FC018481E0
S1130D10882F90E080729927892BB1F380E098E0C6
S1130D202981FC01228300000F90DF91CF91089567
S1130D30CF93DF931F92CDB7DEB78983000080E69F
S1130D4098E0FC018481882F90E080729927892B98
S1130D50B1F380E698E02981FC01228300000F9022
S1130D60DF91CF910895CF93DF931F92CDB7DEB774
S1130D708983000080E298E0FC018481882F90E060
S1130D8080729927892BB1F380E298E02981FC01D4
S1130D90228300000F90DF91CF910895CF93DF93CA
S1130DA0CDB7DEB76C97CDBFDEBF80E094E024E022
S1130DB0FC01268380E090E0A0E7B1E489839A8374
S1130DC0AB83BC8320E030E04AEF54E469817A814C
S1130DD08B819C810E940066DC01CB018B8B9C8BF8
S1130DE0AD8BBE8B20E030E040E85FE36B897C890B
S1130DF08D899E890E94A36488232CF481E090E06D
S1130E008F8B988F3FC020E03FEF4FE757E46B890B
S1130E107C898D899E890E94FB6518164CF520E01B
S1130E2030E040E251E469817A818B819C810E94A7
S1130E300066DC01CB01BC01CD010E941A65DC0116
S1130E40CB018F8B988F0FC088EC90E0898F9A8F9D
S1130E50898D9A8D0197F1F7898F9A8F8F89988D53
S1130E6001978F8B988F8F89988D892B69F714C080
S1130E706B897C898D899E890E941A65DC01CB016E
S1130E808F8B988F8F89988D8B8F9C8F8B8D9C8D5A
S1130E900197F1F78B8F9C8F80E094E024E0FC01B4
S1130EA0258380E090E0AFE2B5E48D839E83AF8339
S1130EB0B88720E030E04AEF54E46D817E818F8171
S1130EC098850E940066DC01CB0189879A87AB87ED
S1130ED0BC8720E030E040E85FE369857A858B8554
S1130EE09C850E94A36488232CF481E090E08D8784
S1130EF09E873FC020E03FEF4FE757E469857A853E
S1130F008B859C850E94FB6518164CF520E030E02B
S1130F1040E251E46D817E818F8198850E94006654
S1130F20DC01CB01BC01CD010E941A65DC01CB01BF
S1130F308D879E870FC088EC90E08F87988B8F8574
S1130F4098890197F1F78F87988B8D859E850197F6
S1130F508D879E878D859E85892B69F714C0698549
S1130F607A858B859C850E941A65DC01CB018D876F
S1130F709E878D859E85898B9A8B89899A8901970D
S1130F80F1F7898B9A8B1092594310925E43109219
S1130F900C4381E08093414080914140809303431E
S1130FA0809141400E94A508809141400E94A5087B
S1130FB000006C96CDBFDEBFDF91CF910895CF9333
S1130FC0DF9300D01F92CDB7DEB78A839B8318C00E
S1130FD0809159438130A1F484E098E0FC01808140
S1130FE0882374F480E098E0FC018081863029F441
S1130FF01092594310920A4303C081E080930A433C
S113100080915943813021F38FEF898389810E9434
S11310107D068EEF898389810E947D0619828981EC
S11310200E947D068A81898389810E947D0681E0F0
S11310308093594300002396CDBFDEBFDF91CF914B
S11310400895CF93DF9300D01F92CDB7DEB78A8384
S11310509B8318C080915E438130A1F484E698E0BC
S1131060FC018081882374F480E698E0FC0180818F
S1131070863029F410925E431092584303C081E0F5
S11310808093584380915E43813021F38FEF8983AD
S113109089810E9498068EEF898389810E9498062F
S11310A0198289810E9498068A81898389810E9494
S11310B0980681E080935E4300002396CDBFDEBF97
S11310C0DF91CF910895CF93DF9300D01F92CDB7D6
S11310D0DEB78A839B8318C080910C438130A1F4CE
S11310E084E298E0FC018081882374F480E298E033
S11310F0FC018081863029F410920C4310925F43E6
S113110003C081E080935F4380910C43813021F3DD
S11311108FEF898389810E94B3068EEF8983898149
S11311200E94B306198289810E94B3068A81898349
S113113089810E94B30681E080930C4300002396CA
S1131140CDBFDEBFDF91CF910895CF93DF9300D061
S1131150CDB7DEB78A8348C0809159438130A1F46A
S113116084E098E0FC018081882374F480E098E0B6
S1131170FC018081863029F41092594310920A436D
S113118003C081E080930A4380915E438130A1F4DF
S113119084E698E0FC018081882374F480E698E07A
S11311A0FC018081863029F410925E4310925843EA
S11311B003C081E08093584380910C438130A1F4B3
S11311C084E298E0FC018081882374F480E298E052
S11311D0FC018081863029F410920C4310925F4305
S11311E003C081E080935F438091594391E0813053
S11311F009F090E020915E4381E0213009F080E025
S1131200892B282F30E090910C4381E0913009F034
S113121080E0882F90E0822B932B892B09F09CCFC0
S11312208FEF898389810E947D0689810E949806B7
S113123089810E94B30686E6898389810E947D069E
S113124089810E94980689810E94B3061982898146
S11312500E947D0689810E94980689810E94B306B6
S11312608A81898389810E947D0689810E949806EA
S113127089810E94B30681E08093594381E0809381
S11312805E4381E080930C4300000F900F90DF9148
S1131290CF910895CF93DF9300D0CDB7DEB78A8383
S11312A018C080915E438130A1F484E698E0FC018B
S11312B08081882374F480E698E0FC018081863084
S11312C029F410925E431092584303C081E0809346
S11312D0584380915E43813021F38FEF8983898164
S11312E00E94980686E6898389810E94980619825D
S11312F089810E9498068A81898389810E9498063F
S113130081E080935E4300000F900F90DF91CF91B6
S11313100895CF93DF93CDB7DEB72C97CDBFDEBF53
S11313208B879C8718C0809159438130A1F484E055
S113133098E0FC018081882374F480E098E0FC014B
S11313408081863029F41092594310920A4303C0D5
S113135081E080930A4380915943813021F38B8546
S11313609C858B839C8319821A828B819C819C012E
S11313702E5F3F4F2B833C83FC01808191818D83C1
S11313809E831EC08B819C819C012E5F3F4F2B83CB
S11313903C83FC01808191818F8398878F8198851C
S11313A0892F992789878F818A8789850E947D065D
S11313B08A850E947D0689819A81019689839A8310
S11313C029813A818D819E8128173907D8F281E0DD
S11313D08093594300002C96CDBFDEBFDF91CF919F
S11313E00895CF93DF93CDB7DEB72C97CDBFDEBF83
S11313F08B879C871AC080915E438130B1F484E668
S113140098E0FC018081882384F480E698E0FC0164
S11314108081863029F410925E431092584305C0AF
S113142010925E4381E08093584380915E43813003
S113143011F38B859C858B839C8319821A828B8103
S11314409C819C012E5F3F4F2B833C83FC01808158
S113145091818D839E831EC08B819C819C012E5F14
S11314603F4F2B833C83FC01808191818F8398873C
S11314708F819885892F992789878F818A87898584
S11314800E9498068A850E94980689819A8101960D
S113149089839A8329813A818D819E81281739070E
S11314A0D8F281E080935E4300002C96CDBFDEBF6E
S11314B0DF91CF910895CF93DF93CDB7DEB72C970B
S11314C0CDBFDEBF8B879C8718C080910C438130D1
S11314D0A1F484E298E0FC018081882374F480E222
S11314E098E0FC018081863029F410920C4310921C
S11314F05F4303C081E080935F4380910C4381305C
S113150021F38B859C858B839C8319821A828B8122
S11315109C819C012E5F3F4F2B833C83FC01808187
S113152091818D839E831EC08B819C819C012E5F43
S11315303F4F2B833C83FC01808191818F8398876B
S11315408F819885892F992789878F818A878985B3
S11315500E94B3068A850E94B30689819A81019606
S113156089839A8329813A818D819E81281739073D
S1131570D8F281E080930C4300002C96CDBFDEBFEF
S1131580DF91CF910895CF93DF93CDB7DEB7269740
S1131590CDBFDEBF8D839E838D819E818A839B8395
S11315A08A819B819C012F5F3F4F2A833B83FC01EF
S11315B08081898318C0809159438130A1F484E0EB
S11315C098E0FC018081882374F480E098E0FC01B9
S11315D08081863029F41092594310920A4303C043
S11315E081E080930A4380915943813021F31C8226
S11315F08C810E947D0686E08C838C810E947D060E
S11316000DC089810E947D068A819B819C012F5F88
S11316103F4F2A833B83FC0180818983898188230E
S113162081F789810E947D0681E0809359430000FF
S11316302696CDBFDEBFDF91CF910895CF93DF9380
S1131640CDB7DEB72697CDBFDEBF8D839E838D8158
S11316509E818A839B838A819B819C012F5F3F4F5C
S11316602A833B83FC018081898318C080915E4377
S11316708130A1F484E698E0FC018081882374F42D
S113168080E698E0FC018081863029F410925E4364
S11316901092584303C081E08093584380915E4385
S11316A0813021F31C828C810E94980686E08C8311
S11316B08C810E9498060DC089810E9498068A81B7
S11316C09B819C012F5F3F4F2A833B83FC018081D8
S11316D089838981882381F789810E94980681E022
S11316E080935E4300002696CDBFDEBFDF91CF918D
S11316F00895CF93DF93CDB7DEB72697CDBFDEBF76
S11317008D839E838D819E818A839B838A819B8125
S11317109C012F5F3F4F2A833B83FC018081898397
S113172018C080910C438130A1F484E298E0FC015C
S11317308081882374F480E298E0FC018081863003
S113174029F410920C4310925F4303C081E080930C
S11317505F4380910C43813021F31C828C810E9471
S1131760B30686E08C838C810E94B3060DC0898108
S11317700E94B3068A819B819C012F5F3F4F2A837D
S11317803B83FC01808189838981882381F7898156
S11317900E94B30681E080930C4300002696CDBFDF
S11317A0DEBFDF91CF910895CF93DF93CDB7DEB73E
S11317B02897CDBFDEBF8D839E836F83788718C043
S11317C0809159438130A1F484E098E0FC01808148
S11317D0882374F480E098E0FC018081863029F449
S11317E01092594310920A4303C081E080930A4344
S11317F080915943813021F386ED9FEF89839A8349
S113180089819A81892F99278B8389818C838B8104
S11318100E947D068C810E947D068D819E81898334
S11318209A8389819A81892F99278B8389818C83D3
S11318308B810E947D068C810E947D068F81988514
S113184089839A8389819A81892F99278B838981B6
S11318508C838B810E947D068C810E947D0681E0B1
S11318608093594300002896CDBFDEBFDF91CF910E
S11318700895CF93DF93CDB7DEB72897CDBFDEBFF2
S11318808D839E836F83788718C080915E438130F7
S1131890A1F484E698E0FC018081882374F480E656
S11318A098E0FC018081863029F410925E43109206
S11318B0584303C081E08093584380915E43813054
S11318C021F386ED9FEF89839A8389819A81892FF9
S11318D099278B8389818C838B810E9498068C81C4
S11318E00E9498068D819E8189839A8389819A8139
S11318F0892F99278B8389818C838B810E949806F9
S11319008C810E9498068F81988589839A83898126
S11319109A81892F99278B8389818C838B810E945B
S113192098068C810E94980681E080935E430000B3
S11319302896CDBFDEBFDF91CF910895CF93DF937B
S1131940CDB7DEB72897CDBFDEBF8D839E836F836F
S1131950788718C080910C438130A1F484E298E028
S1131960FC018081882374F480E298E0FC0180818A
S1131970863029F410920C4310925F4303C081E037
S113198080935F4380910C43813021F386ED9FEF78
S113199089839A8389819A81892F99278B83898165
S11319A08C838B810E94B3068C810E94B3068D8147
S11319B09E8189839A8389819A81892F99278B8330
S11319C089818C838B810E94B3068C810E94B3062B
S11319D08F81988589839A8389819A81892F992710
S11319E08B8389818C838B810E94B3068C810E94B6
S11319F0B30681E080930C4300002896CDBFDEBF80
S1131A00DF91CF910895CF93DF93CDB7DEB78EECFE
S1131A1090E40E9489098EEC90E40E94F1098EEC16
S1131A2090E40E945B0A8CED90E40E9489098CED9D
S1131A3090E40E94F1098CED90E40E945B0A8AEE26
S1131A4090E40E9489098AEE90E40E94F1098AEEEA
S1131A5090E40E945B0A88E890E40E94890988E87F
S1131A6090E40E94F10988E890E40E945B0A86E908
S1131A7090E40E94890986E990E40E94F10986E9CC
S1131A8090E40E945B0A84EA90E40E94890984EA53
S1131A9090E40E94F10984EA90E40E945B0A000049
S1131AA0DF91CF910895CF93DF93CDB7DEB76AE08E
S1131AB070E084E090E00E94390C82E291E40E949C
S1131AC0F10988EF90E40E94F10983EA91E40E940D
S1131AD01E0B84E091E40E94F1090000DF91CF9194
S1131AE00895CF93DF93CDB7DEB7000080E498E08C
S1131AF0FC0184818823D4F780E498E0FC01808190
S1131B00DF91CF910895CF93DF931F92CDB7DEB7C6
S1131B108983000080E498E0FC018481882F90E0B0
S1131B2080729927892BB1F380E498E02981FC0124
S1131B30228300000F90DF91CF910895CF93DF931C
S1131B40CDB7DEB72797CDBFDEBF8E839F838E814F
S1131B509F818A839B8319828A819B819C012F5F49
S1131B603F4F2A833B83FC0180818C8310C08A8190
S1131B709B819C012F5F3F4F2A833B83FC01808123
S1131B808D838D810E94830D89818F5F89839981E3
S1131B908C81981760F300002796CDBFDEBFDF91DC
S1131BA0CF910895CF93DF93CDB7DEB72897CDBFFC
S1131BB0DEBF8E839F8368871C828E819F818A8388
S1131BC09B8388858D8380E498E0FC0180818C83ED
S1131BD080E498E0FC0180818C8380E498E0FC013F
S1131BE080818C83198210C00E94710D8C838A813C
S1131BF09B819C012F5F3F4F2A833B832C81FC01F7
S1131C00208389818F5F89838981853068F31C8271
S1131C100DC00E94710D8C838A819B819C012F5F72
S1131C203F4F2A833B832C81FC0120839D818C813F
S1131C30981779F700002896CDBFDEBFDF91CF91CA
S1131C400895CF93DF93CDB7DEB7A297CDBFDEBFA4
S1131C501A821092E0421092E1428DE692E40E94D0
S1131C609E0D80E498E0FC0180818A8380E498E002
S1131C70FC0180818A8380E498E0FC0180818A836E
S1131C8019820EC180E090E0A0E4B0E48B839C83D1
S1131C90AD83BE832BEA3AEA4AE250E46B817C814D
S1131CA08D819E810E940066DC01CB018F83988721
S1131CB0A987BA878B819C81AD81BE819C01AD01CE
S1131CC0BC01CD010E943764DC01CB018B879C876A
S1131CD0AD87BE8720E030E040E85FE36F81788520
S1131CE089859A850E94A36488231CF481E08F87E8
S1131CF0B2C020E03FEF4FE757E46B857C858D85CC
S1131D009E850E94FB6518160CF07BC020E030E035
S1131D104AE754E46B817C818D819E810E94A86492
S1131D20DC01CB01888B998BAA8BBB8B20E030E044
S1131D304AEF54E4688979898A899B890E940066FC
S1131D40DC01CB018C8B9D8BAE8BBF8B20E030E014
S1131D5040E85FE36C897D898E899F890E94A36432
S1131D6088232CF481E090E0888F998F3FC020E095
S1131D703FEF4FE757E46C897D898E899F890E94E4
S1131D80FB6518164CF520E030E040E251E4688928
S1131D9079898A899B890E940066DC01CB01BC0198
S1131DA0CD010E941A65DC01CB01888F998F0FC089
S1131DB088EC90E08A8F9B8F8A8D9B8D0197F1F739
S1131DC08A8F9B8F888D998D0197888F998F888DA5
S1131DD0998D892B69F73FC06C897D898E899F898C
S1131DE00E941A65DC01CB01888F998F888D998DAB
S1131DF08C8F9D8F8C8D9D8D0197F1F78C8F9D8F8E
S1131E002AC020E030E04FE753E46F81788589856C
S1131E109A850E94FB651816ACF46B857C858D85CC
S1131E209E850E941A65DC01CB018E8F9F8F8E8D5B
S1131E309F8D88A399A388A199A10197F1F788A3FD
S1131E4099A30FC06F81788589859A850E941A6548
S1131E50DC01CB018F878F858AA38AA18A95F1F74C
S1131E608AA38091E0429091E14201968093E042FE
S1131E709093E14280E498E0FC018481882344F05B
S1131E808091E0429091E1428332914008F4FACE8D
S1131E9080E498E0FC0180818A8389818F5F898353
S1131EA08981873038F38091E0429091E142833216
S1131EB0914020F081E08093F84202C01092F842F1
S1131EC00000A296CDBFDEBFDF91CF910895CF93DE
S1131ED0DF9300D000D0CDB7DEB780E389831A82C8
S1131EE084E090E48B839C8362E170E085E290E07F
S1131EF00E94390C82E291E40E94F1098EEF90E491
S1131F000E94F1091A823FC08B819C819C012F5F42
S1131F103F4F2B833C83FC018081898389818033FB
S1131F2091F18981863579F18981813358F08981EC
S1131F308A3340F48981882F90E00E94210881E04F
S1131F408A8321C089818E32F1F480E390E00E947B
S1131F5021088981882F90E00E9421088B819C812F
S1131F609C012F5F3F4F2B833C83FC01808189833D
S1131F708981882F90E00E94210880E290E00E94ED
S1131F80210881E08A838A81882309F4BDCF22C095
S1131F908B819C819C012F5F3F4F2B833C83FC01F1
S1131FA08081898389818E3281F48B819C81029620
S1131FB08B839C8384E091E40E94F10967E170E0E3
S1131FC082E790E00E94390C05C08981882F90E057
S1131FD00E94210889818635D9F600002496CDBF58
S1131FE0DEBFDF91CF910895CF93DF93CDB7DEB7F6
S1131FF02997CDBFDEBF80E389831A821D821E82AA
S11320001F821886198680E190E48B839C830AC022
S11320108B819C819C012F5F3F4F2B833C83FC0170
S11320208081898389818D3221F0809156438B3060
S113203078F389818D3219F481E08A830BC01A8286
S11320406EE470E085E090E00E94390C8BE290E051
S11320500E9421088A81813029F486E190E48B83EF
S11320609C8304C085E190E48B839C838B819C8159
S11320709C012F5F3F4F2B833C83FC0180818D8328
S11320808B819C819C012F5F3F4F2B833C83FC0100
S113209080818E838B819C819C012F5F3F4F2B839A
S11320A03C83FC0180818F838B819C819C012F5F09
S11320B03F4F2B833C83FC01808188878B819C81EB
S11320C001968B839C838B819C819C012F5F3F4F66
S11320D02B833C83FC01808189876EE470E085E278
S11320E090E00E94390C82E291E40E94F1098EEFA3
S11320F090E40E94F1098D818033A9F48E818033AC
S113210091F48F81803379F48885882F90E00E9440
S113211021088EE290E00E9421088985882F90E0B2
S11321200E94210827C08D81803391F48E818033F1
S113213079F480E290E00E9421088F81882F90E05A
S11321400E9421088885882F90E00E94210812C0EF
S11321508D81803379F48E81882F90E00E9421084C
S11321608F81882F90E00E9421088885882F90E035
S11321700E94210884E091E40E94F10963E570E083
S113218082E790E00E94390C81E490E00E942108EB
S113219000002996CDBFDEBFDF91CF910895CF9384
S11321A0DF9300D000D0CDB7DEB780E389831A82F5
S11321B084E290E48B839C8367E370E087E190E0A2
S11321C00E94390C8CE191E40E94F10984E091E4CD
S11321D00E94F1091A821AC08B819C819C012F5F95
S11321E03F4F2B833C83FC01808189838981803329
S11321F069F08981813350F089818A3338F4898187
S1132200882F90E00E94210881E08A838A818823B4
S113221019F327C08B819C819C012F5F3F4F2B8337
S11322203C83FC018081898389818E32A9F48B816E
S11322309C819C012F5F3F4F2B833C83FC01808159
S113224089838AE091E40E94F1096BE370E084E3FE
S113225090E00E94390C05C08981882F90E00E948B
S1132260210889818532B1F600002496CDBFDEBFF6
S1132270DF91CF910895CF93DF9300D01F92CDB714
S1132280DEB780E3898388E390E48A839B8367E3F2
S113229070E08CE590E00E94390C8CE191E40E949E
S11322A0F10984E091E40E94F1098A819B819C01F7
S11322B02F5F3F4F2A833B83FC018081898389817F
S11322C0882F90E00E9421088EE2898386E191E4C0
S11322D00E94F1098981882F90E00E94210884E0FE
S11322E091E40E94F1098CE191E40E94F10967E311
S11322F070E082E790E00E94390C8A819B819C0106
S11323002F5F3F4F2A833B83FC018081898389812E
S1132310882F90E00E9421088A819B819C012F5F75
S11323203F4F2A833B83FC01808189838981882FE5
S113233090E00E94210800002396CDBFDEBFDF910C
S1132340CF910895CF93DF93CDB7DEB70E94530D9D
S113235084E091E40E94F1098CE191E40E94F10986
S113236061E170E085E190E00E94390C8FE791E42F
S11323700E941E0B8CE690E40E94F1098AE790E427
S11323800E94F1090000DF91CF910895CF93DF936C
S1132390CDB7DEB76AE070E08FE090E00E94D40B26
S11323A088EF90E40E9489098AE891E40E94C30AB4
S11323B080EC90E40E94F10984E091E40E94890990
S11323C084E091E40E94F10984E091E40E945B0AB4
S11323D08CE191E40E94890988E291E40E94F10968
S11323E08CE191E40E945B0A64E170E086E090E095
S11323F00E94D40B6CE070E082E190E00E94390C02
S113240064E170E088E090E00E949E0C88ED91E425
S11324100E94C30A8AE391E40E941E0B80EC91E4BB
S11324200E94790B8CE191E40E94F10966E470E06A
S11324308AE090E00E94D40B68E370E085E090E0CD
S11324400E94390C66E470E08BE090E00E949E0CE0
S113245084EE91E40E94C30A81E491E40E941E0B7D
S11324608CEC91E40E94790B6AE570E085E090E0E1
S11324700E94390C8EE491E40E941E0B0000DF914F
S1132480CF910895CF93DF93CDB7DEB76CE070E0C2
S113249082E190E00E94390C84E091E40E94F10909
S11324A088E291E40E94F1098AE391E40E941E0B00
S11324B00000DF91CF910895CF93DF93CDB7DEB7BE
S11324C084E091E40E945B0A8CE191E40E945B0A3F
S11324D064E170E08BE090E00E949E0C8FEE91E44A
S11324E00E94790B0000DF91CF910895CF93DF9381
S11324F0CDB7DEB784E091E40E945B0A8CE191E4FD
S11325000E945B0A64E170E085E090E00E949E0C0A
S11325108AEF91E40E94790B0000DF91CF91089536
S1132520CF93DF93CDB7DEB784E091E40E945B0ADA
S11325308CE191E40E945B0A64E170E08BE090E03E
S11325400E949E0C85E092E40E94790B0000DF91CA
S1132550CF910895CF93DF93CDB7DEB784E091E4B4
S11325600E945B0A8CE191E40E945B0A64E170E0E2
S11325708BE090E00E949E0C80E192E40E94790B33
S11325800000DF91CF910895CF93DF93CDB7DEB7ED
S113259084E091E40E945B0A8CE191E40E945B0A6E
S11325A064E170E08BE090E00E949E0C8CE192E488
S11325B00E94790B0000DF91CF910895CF93DF93B0
S11325C0CDB7DEB784E091E40E945B0A8CE191E42C
S11325D00E945B0A64E170E08EE090E00E949E0C31
S11325E087E292E40E94790B0000DF91CF91089575
S11325F0CF93DF93CDB7DEB784E091E40E948909DD
S11326008CE191E40E94890964E170E08FE090E03C
S11326100E94D40B82E392E40E94C30A0000DF917B
S1132620CF910895CF93DF93CDB7DEB784E091E4E3
S11326300E945B0A8CE191E40E945B0A6EE470E004
S113264088E090E00E949E0C8DE392E40E94790B56
S11326500000DF91CF910895CF93DF93CDB7DEB71C
S113266084E091E40E945B0A8CE191E40E945B0A9D
S11326706EE470E088E090E00E949E0C86E492E4B0
S11326800E94790B0000DF91CF9108950F931F935F
S1132690CF93DF93CDB7DEB7CC51D140CDBFDEBFF2
S11326A00E94D22E80E090E8A2E2B4E48DA39EA31F
S11326B0AFA3B8A720E030E04AEF54E46DA17EA1B7
S11326C08FA198A50E940066DC01CB0189A79AA777
S11326D0ABA7BCA720E030E040E85FE369A57AA59A
S11326E08BA59CA50E94A36488232CF481E090E030
S11326F08DA79EA73FC020E03FEF4FE757E469A5B1
S11327007AA58BA59CA50E94FB6518164CF520E0C4
S113271030E040E251E46DA17EA18FA198A50E9412
S11327200066DC01CB01BC01CD010E941A65DC010D
S1132730CB018DA79EA70FC088EC90E08FA798AB24
S11327408FA598A90197F1F78FA798AB8DA59EA5A2
S113275001978DA79EA78DA59EA5892B69F714C007
S113276069A57AA58BA59CA50E941A65DC01CB01FD
S11327708DA79EA78DA59EA589AB9AAB89A99AA979
S11327800197F1F789AB9AAB80E094E0FC01808576
S11327908093EE428091EE42882F90E080729927D8
S11327A0892B11F00C94FF208EE080934A430C9403
S11327B0412080914A43882F90E049E1489F90014D
S11327C0499F300D1124C901809310439093114304
S11327D080E094E020E8FC012583809110439091EF
S11327E01143CC01A0E0B0E0BC01CD010E944965D9
S11327F0DC01CB0189839A83AB83BC832BEA3AEA5D
S11328004AE250E469817A818B819C810E9400664E
S1132810DC01CB018BAB9CABADABBEAB89819A81A8
S1132820AB81BC819C01AD01BC01CD010E94376428
S1132830DC01CB018FAB98AFA9AFBAAF20E030E099
S113284040E85FE36BA97CA98DA99EA90E94A364BB
S113285088231CF481E08BAF0CC120E03FEF4FE7ED
S113286057E46FA978AD89AD9AAD0E94FB6518163F
S11328700CF0C1C020E030E04AE754E469817A8179
S11328808B819C810E94A864DC01CB018CAF9DAF3D
S1132890AEAFBFAF8E01005C1F4F20E030E04AEFC7
S11328A054E46CAD7DAD8EAD9FAD0E940066DC013D
S11328B0CB01F80180839183A283B383CE01805C32
S11328C09F4F20E030E040E85FE3FC0160817181CC
S11328D0828193810E94A36488234CF4CE018C5B93
S11328E09F4F21E030E0FC012083318369C0CE0199
S11328F0805C9F4F20E03FEF4FE757E4FC0160818D
S11329007181828193810E94FB6518160CF046C088
S113291020E030E040E251E46CAD7DAD8EAD9FAD82
S11329200E940066DC01CB018E010C5B1F4FBC01D1
S1132930CD010E941A65DC01CB01F80180839183EB
S113294024C0CE018A5B9F4F28EC30E0FC01208339
S11329503183CE018A5B9F4FFC0180819181019775
S1132960F1F79E012A5B3F4FF90180839183CE01E9
S11329708C5B9F4F9E012C5B3F4FF901208131817D
S113298021503109FC0120833183CE018C5B9F4FA0
S1132990FC0180819181892BA1F66BC08E010C5BB7
S11329A01F4FCE01805C9F4FFC0160817181828149
S11329B093810E941A65DC01CB01F8018083918325
S11329C0CE01885B9F4F9E012C5B3F4FF901208114
S11329D03181FC0120833183CE01885B9F4FFC0150
S11329E0808191810197F1F79E01285B3F4FF901A6
S11329F0808391833EC020E030E04FE753E46BA92D
S1132A007CA98DA99EA90E94FB6518164CF58E0120
S1132A10065B1F4F6FA978AD89AD9AAD0E941A6508
S1132A20DC01CB01F80180839183CE01845B9F4F4D
S1132A309E01265B3F4FF90120813181FC012083F7
S1132A403183CE01845B9F4FFC018081918101978A
S1132A50F1F79E01245B3F4FF901808391831CC0F1
S1132A606BA97CA98DA99EA90E941A65DC01CB01E2
S1132A708BAFCE01825B9F4F2BADFC012083CE0137
S1132A80825B9F4FFC018081282F2A95F1F7CE01AC
S1132A90825B9F4FFC01208380E094E020E8FC01EE
S1132AA0268380914A43843108F08DC180E098EBFD
S1132AB0A8E8B7E48D839E83AF83B8878E01015B5A
S1132AC01F4F2BEA3AEA4AE250E46D817E818F81FE
S1132AD098850E940066DC01CB01F8018083918314
S1132AE0A283B3838E010D5A1F4F8D819E81AF81C6
S1132AF0B8859C01AD01BC01CD010E943764DC01A5
S1132B00CB01F80180839183A283B383CE01815BDF
S1132B109F4F20E030E040E85FE3FC016081718179
S1132B20828193810E94A36488233CF4CE01895A54
S1132B309F4F21E0FC0120832DC1CE018D5A9F4F70
S1132B4020E03FEF4FE757E4FC016081718182810F
S1132B5093810E94FB6518160CF0CDC020E030E094
S1132B604AE754E46D817E818F8198850E94A86430
S1132B70DC01CB019E01285A3F4FF90180839183E8
S1132B80A283B3838E01045A1F4FCE01885A9F4FEC
S1132B9020E030E04AEF54E4FC01608171818281DD
S1132BA093810E940066DC01CB01F801808391834C
S1132BB0A283B383CE01845A9F4F20E030E040E8E3
S1132BC05FE3FC0160817181828193810E94A3642F
S1132BD088234CF4CE01805A9F4F21E030E0FC0161
S1132BE0208331836DC0CE01845A9F4F20E03FEF94
S1132BF04FE757E4FC0160817181828193810E94D7
S1132C00FB6518160CF04AC0CE01885A9F4F20E08D
S1132C1030E040E251E4FC01608171818281938162
S1132C200E940066DC01CB018E01005A1F4FBC01DB
S1132C30CD010E941A65DC01CB01F80180839183E8
S1132C4024C0CE018E599F4F28EC30E0FC01208334
S1132C503183CE018E599F4FFC0180819181019770
S1132C60F1F79E012E593F4FF90180839183CE01E4
S1132C70805A9F4F9E01205A3F4FF9012081318194
S1132C8021503109FC0120833183CE01805A9F4FAA
S1132C90FC0180819181892BA1F67CC08E01005AB0
S1132CA01F4FCE01845A9F4FFC0160817181828144
S1132CB093810E941A65DC01CB01F8018083918322
S1132CC0CE018C599F4F9E01205A3F4FF90120811C
S1132CD03181FC0120833183CE018C599F4FFC014B
S1132CE0808191810197F1F79E012C593F4FF901A1
S1132CF0808391834FC0CE01815B9F4F20E030E001
S1132D004FE753E4FC0160817181828193810E94C9
S1132D10FB65181674F58E010A591F4FCE018D5AA2
S1132D209F4FFC0160817181828193810E941A65A9
S1132D30DC01CB01F80180839183CE0188599F4F38
S1132D409E012A593F4FF90120813181FC012083E2
S1132D503183CE0188599F4FFC0180819181019775
S1132D60F1F79E0128593F4FF901808391830C9418
S1132D703C208E01095A1F4FCE01815B9F4FFC01FD
S1132D8060817181828193810E941A65DC01CB018B
S1132D90F8018083CE0186599F4F9E01295A3F4FE7
S1132DA0F9012081FC012083CE0186599F4FFC014B
S1132DB08081282F2A95F1F7CE0186599F4FFC0177
S1132DC020830C943C2080914A438C3108F08DC1BF
S1132DD080E098EEADE7B7E489879A87AB87BC8734
S1132DE08E0105591F4F2BEA3AEA4AE250E46985FD
S1132DF07A858B859C850E940066DC01CB01F801F5
S1132E0080839183A283B3838E0101591F4F8985E7
S1132E109A85AB85BC859C01AD01BC01CD010E94A6
S1132E203764DC01CB01F80180839183A283B383EF
S1132E30CE0185599F4F20E030E040E85FE3FC017C
S1132E4060817181828193810E94A36488233CF410
S1132E50CE018D589F4F21E0FC0120832DC1CE016E
S1132E6081599F4F20E03FEF4FE757E4FC01608119
S1132E707181828193810E94FB6518160CF0CDC08C
S1132E8020E030E04AE754E469857A858B859C85A7
S1132E900E94A864DC01CB019E012C583F4FF9012C
S1132EA080839183A283B3838E0108581F4FCE0180
S1132EB08C589F4F20E030E04AEF54E4FC016081DD
S1132EC07181828193810E940066DC01CB01F8014B
S1132ED080839183A283B383CE0188589F4F20E0DF
S1132EE030E040E85FE3FC0160817181828193817D
S1132EF00E94A36488234CF4CE0184589F4F21E0A0
S1132F0030E0FC01208331836DC0CE0188589F4F8F
S1132F1020E03FEF4FE757E4FC016081718182813B
S1132F2093810E94FB6518160CF04AC0CE018C58A0
S1132F309F4F20E030E040E251E4FC016081718168
S1132F40828193810E940066DC01CB018E010458CA
S1132F501F4FBC01CD010E941A65DC01CB01F801B1
S1132F608083918324C0CE0182589F4F28EC30E0A7
S1132F70FC0120833183CE0182589F4FFC01808164
S1132F8091810197F1F79E0122583F4FF901808307
S1132F909183CE0184589F4F9E0124583F4FF901DD
S1132FA02081318121503109FC0120833183CE01FC
S1132FB084589F4FFC0180819181892BA1F67CC0AC
S1132FC08E0104581F4FCE0188589F4FFC01608129
S1132FD07181828193810E941A65DC01CB01F80121
S1132FE080839183CE0180589F4F9E0124583F4F88
S1132FF0F90120813181FC0120833183CE01805885
S11330009F4FFC01808191810197F1F79E01205827
S11330103F4FF901808391834FC0CE0185599F4F63
S113302020E030E04FE753E4FC016081718182814C
S113303093810E94FB65181674F58E010E571F4F7D
S1133040CE0181599F4FFC016081718182819381FE
S11330500E941A65DC01CB01F80180839183CE01C3
S11330608C579F4F9E012E573F4FF901208131818C
S1133070FC0120833183CE018C579F4FFC0180815A
S113308091810197F1F79E012C573F4FF9018083FD
S113309091830C943C208E010D581F4FCE0185590D
S11330A09F4FFC0160817181828193810E941A6526
S11330B0DC01CB01F8018083CE018A579F4F9E012A
S11330C02D583F4FF9012081FC012083CE018A57FE
S11330D09F4FFC018081282F2A95F1F7CE018A5752
S11330E09F4FFC0120830C943C2080914A438432FE
S11330F008F08BC180E090E6AAE6B7E48D879E874E
S1133100AF87B88B8E0109571F4F2BEA3AEA4AE280
S113311050E46D857E858F8598890E940066DC0168
S1133120CB01F80180839183A283B3838E01055779
S11331301F4F8D859E85AF85B8899C01AD01BC016B
S1133140CD010E943764DC01CB01F80180839183B7
S1133150A283B383CE0189579F4F20E030E040E83B
S11331605FE3FC0160817181828193810E94A36489
S113317088233CF4CE0181579F4F21E0FC0120833A
S11331802CC1CE0185579F4F20E03FEF4FE757E416
S1133190FC0160817181828193810E94FB65181614
S11331A00CF0CDC020E030E04AE754E46D857E8524
S11331B08F8598890E94A864DC01CB019E01205769
S11331C03F4FF90180839183A283B3838E010C5610
S11331D01F4FCE0180579F4F20E030E04AEF54E468
S11331E0FC0160817181828193810E940066DC010F
S11331F0CB01F80180839183A283B383CE018C56E3
S11332009F4F20E030E040E85FE3FC016081718182
S1133210828193810E94A36488234CF4CE01885652
S11332209F4F21E030E0FC01208331836DC0CE014B
S11332308C569F4F20E03FEF4FE757E4FC0160813D
S11332407181828193810E94FB6518160CF04AC03B
S1133250CE0180579F4F20E030E040E251E4FC0172
S113326060817181828193810E940066DC01CB01BF
S11332708E0108561F4FBC01CD010E941A65DC0166
S1133280CB01F8018083918324C0CE0186569F4FE1
S113329028EC30E0FC0120833183CE0186569F4F19
S11332A0FC01808191810197F1F79E0126563F4FE1
S11332B0F90180839183CE0188569F4F9E01285641
S11332C03F4FF9012081318121503109FC012083D4
S11332D03183CE0188569F4FFC0180819181892BD7
S11332E0A1F67BC08E0108561F4FCE018C569F4F0E
S11332F0FC0160817181828193810E941A65DC01E5
S1133300CB01F80180839183CE0184569F4F9E01A7
S113331028563F4FF90120813181FC0120833183FC
S1133320CE0184569F4FFC01808191810197F1F772
S11333309E0124563F4FF901808391834EC0CE01F4
S113334089579F4F20E030E04FE753E4FC01608150
S11333507181828193810E94FB6518166CF58E0140
S113336002561F4FCE0185579F4FFC01608171812A
S1133370828193810E941A65DC01CB01F80180836C
S11333809183CE0180569F4F9E0122563F4FF901F3
S113339020813181FC0120833183CE0180569F4FEF
S11333A0FC01808191810197F1F79E0120563F4FE6
S11333B0F9018083918360C68E0101571F4FCE01AE
S11333C089579F4FFC0160817181828193810E94A2
S11333D01A65DC01CB01F8018083CE018E559F4F25
S11333E09E0121573F4FF9012081FC012083CE012A
S11333F08E559F4FFC018081282F2A95F1F7CE012D
S11334008E559F4FFC01208337C680914A438A32F0
S113341008F08BC180E098EDA6E5B7E4898B9A8B20
S1133420AB8BBC8B8E010D551F4F2BEA3AEA4AE257
S113343050E469897A898B899C890E940066DC0141
S1133440CB01F80180839183A283B3838E01095554
S11334501F4F89899A89AB89BC899C01AD01BC0144
S1133460CD010E943764DC01CB01F8018083918394
S1133470A283B383CE018D559F4F20E030E040E816
S11334805FE3FC0160817181828193810E94A36466
S113349088233CF4CE0185559F4F21E0FC01208315
S11334A02CC1CE0189559F4F20E03FEF4FE757E4F1
S11334B0FC0160817181828193810E94FB651816F1
S11334C00CF0CDC020E030E04AE754E469897A8901
S11334D08B899C890E94A864DC01CB019E01245540
S11334E03F4FF90180839183A283B3838E010055FA
S11334F01F4FCE0184559F4F20E030E04AEF54E443
S1133500FC0160817181828193810E940066DC01EB
S1133510CB01F80180839183A283B383CE018055CC
S11335209F4F20E030E040E85FE3FC01608171815F
S1133530828193810E94A36488234CF4CE018C542D
S11335409F4F21E030E0FC01208331836DC0CE0128
S113355080559F4F20E03FEF4FE757E4FC01608127
S11335607181828193810E94FB6518160CF04AC018
S1133570CE0184559F4F20E030E040E251E4FC014D
S113358060817181828193810E940066DC01CB019C
S11335908E010C541F4FBC01CD010E941A65DC0141
S11335A0CB01F8018083918324C0CE018A549F4FBC
S11335B028EC30E0FC0120833183CE018A549F4FF4
S11335C0FC01808191810197F1F79E012A543F4FBC
S11335D0F90180839183CE018C549F4F9E012C541A
S11335E03F4FF9012081318121503109FC012083B1
S11335F03183CE018C549F4FFC0180819181892BB2
S1133600A1F67BC08E010C541F4FCE0180559F4FF5
S1133610FC0160817181828193810E941A65DC01C1
S1133620CB01F80180839183CE0188549F4F9E0182
S11336302C543F4FF90120813181FC0120833183D7
S1133640CE0188549F4FFC01808191810197F1F74D
S11336509E0128543F4FF901808391834EC0CE01CF
S11336608D559F4F20E030E04FE753E4FC0160812B
S11336707181828193810E94FB6518166CF58E011D
S113368006541F4FCE0189559F4FFC016081718103
S1133690828193810E941A65DC01CB01F801808349
S11336A09183CE0184549F4F9E0126543F4FF901CC
S11336B020813181FC0120833183CE0184549F4FCA
S11336C0FC01808191810197F1F79E0124543F4FC1
S11336D0F90180839183D0C48E0105551F4FCE011B
S11336E08D559F4FFC0160817181828193810E947D
S11336F01A65DC01CB01F8018083CE0182549F4F0F
S11337009E0125553F4FF9012081FC012083CE0104
S113371082549F4FFC018081282F2A95F1F7CE0116
S113372082549F4FFC012083A7C480914A43823373
S113373008F08BC180E090E5A3E4B7E48D8B9E8B09
S1133740AF8BB88F8E0101541F4F2BEA3AEA4AE23D
S113375050E46D897E898F89988D0E940066DC0112
S1133760CB01F80180839183A283B3838E010D532F
S11337701F4F8D899E89AF89B88D9C01AD01BC0115
S1133780CD010E943764DC01CB01F8018083918371
S1133790A283B383CE0181549F4F20E030E040E800
S11337A05FE3FC0160817181828193810E94A36443
S11337B088233CF4CE0189539F4F21E0FC012083F0
S11337C02CC1CE018D539F4F20E03FEF4FE757E4CC
S11337D0FC0160817181828193810E94FB651816CE
S11337E00CF0CDC020E030E04AE754E46D897E89D6
S11337F08F89988D0E94A864DC01CB019E01285317
S11338003F4FF90180839183A283B3838E010453D4
S11338101F4FCE0188539F4F20E030E04AEF54E41D
S1133820FC0160817181828193810E940066DC01C8
S1133830CB01F80180839183A283B383CE018453A7
S11338409F4F20E030E040E85FE3FC01608171813C
S1133850828193810E94A36488234CF4CE01805317
S11338609F4F21E030E0FC01208331836DC0CE0105
S113387084539F4F20E03FEF4FE757E4FC01608102
S11338807181828193810E94FB6518160CF04AC0F5
S1133890CE0188539F4F20E030E040E251E4FC0128
S11338A060817181828193810E940066DC01CB0179
S11338B08E0100531F4FBC01CD010E941A65DC012B
S11338C0CB01F8018083918324C0CE018E529F4F97
S11338D028EC30E0FC0120833183CE018E529F4FCF
S11338E0FC01808191810197F1F79E012E523F4F97
S11338F0F90180839183CE0180539F4F9E01205311
S11339003F4FF9012081318121503109FC0120838D
S11339103183CE0180539F4FFC0180819181892B9B
S1133920A1F67BC08E0100531F4FCE0184539F4FDD
S1133930FC0160817181828193810E941A65DC019E
S1133940CB01F80180839183CE018C529F4F9E015D
S113395020533F4FF90120813181FC0120833183C1
S1133960CE018C529F4FFC01808191810197F1F728
S11339709E012C523F4FF901808391834EC0CE01AA
S113398081549F4F20E030E04FE753E4FC01608115
S11339907181828193810E94FB6518166CF58E01FA
S11339A00A521F4FCE018D539F4FFC0160817181DC
S11339B0828193810E941A65DC01CB01F801808326
S11339C09183CE0188529F4F9E012A523F4FF901A5
S11339D020813181FC0120833183CE0188529F4FA5
S11339E0FC01808191810197F1F79E0128523F4F9C
S11339F0F9018083918340C38E0109531F4FCE0187
S1133A0081549F4FFC0160817181828193810E9466
S1133A101A65DC01CB01F8018083CE0186529F4FE9
S1133A209E0129533F4FF9012081FC012083CE01DF
S1133A3086529F4FFC018081282F2A95F1F7CE01F1
S1133A4086529F4FFC01208317C380914A438C33D5
S1133A5008F08BC180E098ECAFE2B7E4898F9A8FCD
S1133A60AB8FBC8F8E0105521F4F2BEA3AEA4AE214
S1133A7050E4698D7A8D8B8D9C8D0E940066DC01EB
S1133A80CB01F80180839183A283B3838E01015219
S1133A901F4F898D9A8DAB8DBC8D9C01AD01BC01EE
S1133AA0CD010E943764DC01CB01F801808391834E
S1133AB0A283B383CE0185529F4F20E030E040E8DB
S1133AC05FE3FC0160817181828193810E94A36420
S1133AD088233CF4CE018D519F4F21E0FC012083CB
S1133AE02CC1CE0181529F4F20E03FEF4FE757E4B6
S1133AF0FC0160817181828193810E94FB651816AB
S1133B000CF0CDC020E030E04AE754E4698D7A8DB2
S1133B108B8D9C8D0E94A864DC01CB019E012C51ED
S1133B203F4FF90180839183A283B3838E010851AF
S1133B301F4FCE018C519F4F20E030E04AEF54E4F8
S1133B40FC0160817181828193810E940066DC01A5
S1133B50CB01F80180839183A283B383CE01885182
S1133B609F4F20E030E040E85FE3FC016081718119
S1133B70828193810E94A36488234CF4CE018451F2
S1133B809F4F21E030E0FC01208331836DC0CE01E2
S1133B9088519F4F20E03FEF4FE757E4FC016081DD
S1133BA07181828193810E94FB6518160CF04AC0D2
S1133BB0CE018C519F4F20E030E040E251E4FC0103
S1133BC060817181828193810E940066DC01CB0156
S1133BD08E0104511F4FBC01CD010E941A65DC0106
S1133BE0CB01F8018083918324C0CE0182519F4F81
S1133BF028EC30E0FC0120833183CE0182519F4FB9
S1133C00FC01808191810197F1F79E0122513F4F80
S1133C10F90180839183CE0184519F4F9E012451E9
S1133C203F4FF9012081318121503109FC0120836A
S1133C303183CE0184519F4FFC0180819181892B76
S1133C40A1F67BC08E0104511F4FCE0188519F4FB6
S1133C50FC0160817181828193810E941A65DC017B
S1133C60CB01F80180839183CE0180519F4F9E0147
S1133C7024513F4FF90120813181FC01208331839C
S1133C80CE0180519F4FFC01808191810197F1F712
S1133C909E0120513F4FF901808391834EC0CE0194
S1133CA085529F4F20E030E04FE753E4FC016081F0
S1133CB07181828193810E94FB6518166CF58E01D7
S1133CC00E501F4FCE0181529F4FFC0160817181C4
S1133CD0828193810E941A65DC01CB01F801808303
S1133CE09183CE018C509F4F9E012E503F4FF9017E
S1133CF020813181FC0120833183CE018C509F4F80
S1133D00FC01808191810197F1F79E012C503F4F76
S1133D10F90180839183B0C18E010D511F4FCE01F3
S1133D2085529F4FFC0160817181828193810E9441
S1133D301A65DC01CB01F8018083CE018A509F4FC4
S1133D409E012D513F4FF9012081FC012083CE01BA
S1133D508A509F4FFC018081282F2A95F1F7CE01CC
S1133D608A509F4FFC01208387C180E090E5A3E443
S1133D70B7E48D8F9E8FAF8FB8A38E0109501F4F6C
S1133D802BEA3AEA4AE250E46D8D7E8D8F8D98A13C
S1133D900E940066DC01CB01F80180839183A28339
S1133DA0B3838E0105501F4F8D8D9E8DAF8DB8A1AD
S1133DB09C01AD01BC01CD010E943764DC01CB0143
S1133DC0F80180839183A283B383CE0189509F4FEE
S1133DD020E030E040E85FE3FC0160817181828192
S1133DE093810E94A36488233CF4CE0181509F4FA9
S1133DF021E0FC01208329C1CE0185509F4F20E0A2
S1133E003FEF4FE757E4FC01608171818281938128
S1133E100E94FB6518160CF0CAC020E030E04AE7A7
S1133E2054E46D8D7E8D8F8D98A10E94A864DC0171
S1133E30CB019E013395F90180839183A283B383DF
S1133E408E010C5F1E4FCE01939520E030E04AEFC7
S1133E5054E4FC0160817181828193810E94006637
S1133E60DC01CB01F80180839183A283B383CE016B
S1133E708C5F9E4F20E030E040E85FE3FC0160810E
S1133E807181828193810E94A36488234CF4CE01C2
S1133E90885F9E4F21E030E0FC01208331836CC0B9
S1133EA0CE018C5F9E4F20E03FEF4FE757E4FC01CB
S1133EB060817181828193810E94FB6518160CF0E8
S1133EC049C0CE01939520E030E040E251E4FC018A
S1133ED060817181828193810E940066DC01CB0143
S1133EE08E01085F1E4FBC01CD010E941A65DC01E2
S1133EF0CB01F8018083918324C0CE01865F9E4F5D
S1133F0028EC30E0FC0120833183CE01865F9E4F94
S1133F10FC01808191810197F1F79E01265F3E4F5C
S1133F20F90180839183CE01885F9E4F9E01285FB3
S1133F303E4FF9012081318121503109FC01208358
S1133F403183CE01885F9E4FFC0180819181892B52
S1133F50A1F67BC08E01085F1E4FCE018C5F9E4F81
S1133F60FC0160817181828193810E941A65DC0168
S1133F70CB01F80180839183CE01845F9E4F9E0123
S1133F80285F3E4FF90120813181FC012083318378
S1133F90CE01845F9E4FFC01808191810197F1F7EE
S1133FA09E01245F3E4FF901808391834EC0CE0170
S1133FB089509F4F20E030E04FE753E4FC016081DB
S1133FC07181828193810E94FB6518166CF58E01C4
S1133FD0025F1E4FCE0185509F4FFC0160817181AD
S1133FE0828193810E941A65DC01CB01F8018083F0
S1133FF09183CE01805F9E4F9E01225F3E4FF90167
S113400020813181FC0120833183CE01805F9E4F6A
S1134010FC01808191810197F1F79E01205F3E4F61
S1134020F9018083918328C08E0101501F4FCE0176
S113403089509F4FFC0160817181828193810E942C
S11340401A65DC01CB01F8018083CE018E5E9E4FA0
S11340509E0121503F4FF9012081FC012083CE01B4
S11340608E5E9E4FFC018081282F2A95F1F7CE01A8
S11340708E5E9E4FFC01208380914A438F5F809324
S11340804A4380914A43873410F40C94D91380E056
S113409090E0A0E2B1E489A39AA3ABA3BCA38E01F0
S11340A00D5E1E4F20E030E04AEF54E469A17AA18E
S11340B08BA19CA10E940066DC01CB01F8018083E6
S11340C09183A283B383CE018D5E9E4F20E030E0C6
S11340D040E85FE3FC0160817181828193810E94E9
S11340E0A36488234CF4CE01895E9E4F21E030E026
S11340F0FC012083318369C0CE018D5E9E4F20E098
S11341003FEF4FE757E4FC01608171818281938125
S11341100E94FB6518160CF046C020E030E040E237
S113412051E469A17AA18BA19CA10E940066DC01E3
S1134130CB018E01095E1E4FBC01CD010E941A65A0
S1134140DC01CB01F8018083918324C0CE01875E1A
S11341509E4F28EC30E0FC0120833183CE01875E42
S11341609E4FFC01808191810197F1F79E01275EAA
S11341703E4FF90180839183CE01895E9E4F9E015B
S1134180295E3E4FF9012081318121503109FC0122
S113419020833183CE01895E9E4FFC018081918111
S11341A0892BA1F62CC08E01095E1E4FCE018D5EB7
S11341B09E4FFC0160817181828193810E941A6506
S11341C0DC01CB01F80180839183CE01855E9E4F93
S11341D09E01295E3E4FF90120813181FC0120833B
S11341E03183CE01855E9E4FFC01808191810197D0
S11341F0F1F79E01255E3E4FF90180839183000013
S1134200C45EDE4FCDBFDEBFDF91CF911F910F9112
S113421008950F931F93CF93DF93CDB7DEB7CC519F
S1134220D140CDBFDEBF0E94D22E80E090E8A2E252
S1134230B4E48DA39EA3AFA3B8A720E030E04AEF77
S113424054E46DA17EA18FA198A50E940066DC01B3
S1134250CB0189A79AA7ABA7BCA720E030E040E830
S11342605FE369A57AA58BA59CA50E94A364882316
S11342702CF481E090E08DA79EA73FC020E03FEFA3
S11342804FE757E469A57AA58BA59CA50E94FB6519
S113429018164CF520E030E040E251E46DA17EA117
S11342A08FA198A50E940066DC01CB01BC01CD0161
S11342B00E941A65DC01CB018DA79EA70FC088EC74
S11342C090E08FA798AB8FA598A90197F1F78FA7D6
S11342D098AB8DA59EA501978DA79EA78DA59EA59C
S11342E0892B69F714C069A57AA58BA59CA50E94A2
S11342F01A65DC01CB018DA79EA78DA59EA589AB70
S11343009AAB89A99AA90197F1F789AB9AAB80E096
S113431094E0FC0180858093EE428091EE42882FE8
S113432090E080729927892B11F40C94C82E8EE0AA
S113433080934A430C940A2E80914A43882F90E03C
S113434024E530E0A901481B590BCA0149E1489F03
S11343509001499F300D1124C9018093104390931B
S1134360114380E094E020E8FC0125838091104310
S113437090911143CC01A0E0B0E0BC01CD010E94BA
S11343804965DC01CB0189839A83AB83BC832BEA27
S11343903AEA4AE250E469817A818B819C810E94E5
S11343A00066DC01CB018BAB9CABADABBEAB8981B2
S11343B09A81AB81BC819C01AD01BC01CD010E94FD
S11343C03764DC01CB018FAB98AFA9AFBAAF20E063
S11343D030E040E85FE36BA97CA98DA99EA90E9407
S11343E0A36488231CF481E08BAF0CC120E03FEF71
S11343F04FE757E46FA978AD89AD9AAD0E94FB658C
S113440018160CF0C1C020E030E04AE754E469819A
S11344107A818B819C810E94A864DC01CB018CAFE2
S11344209DAFAEAFBFAF8E01005C1F4F20E030E008
S11344304AEF54E46CAD7DAD8EAD9FAD0E94006635
S1134440DC01CB01F80180839183A283B383CE0185
S1134450805C9F4F20E030E040E85FE3FC01608136
S11344607181828193810E94A36488234CF4CE01DC
S11344708C5B9F4F21E030E0FC012083318369C0D5
S1134480CE01805C9F4F20E03FEF4FE757E4FC01F3
S113449060817181828193810E94FB6518160CF002
S11344A046C020E030E040E251E46CAD7DAD8EAD1D
S11344B09FAD0E940066DC01CB018E010C5B1F4F97
S11344C0BC01CD010E941A65DC01CB01F801808397
S11344D0918324C0CE018A5B9F4F28EC30E0FC011D
S11344E020833183CE018A5B9F4FFC0180819181BF
S11344F00197F1F79E012A5B3F4FF9018083918375
S1134500CE018C5B9F4F9E012C5B3F4FF9012081B4
S1134510318121503109FC0120833183CE018C5B30
S11345209F4FFC0180819181892BA1F66BC08E0184
S11345300C5B1F4FCE01805C9F4FFC016081718139
S1134540828193810E941A65DC01CB01F80180838A
S11345509183CE01885B9F4F9E012C5B3F4FF901F5
S113456020813181FC0120833183CE01885B9F4F00
S1134570FC01808191810197F1F79E01285B3F4FF7
S1134580F901808391833EC020E030E04FE753E49B
S11345906BA97CA98DA99EA90E94FB6518164CF5F0
S11345A08E01065B1F4F6FA978AD89AD9AAD0E944D
S11345B01A65DC01CB01F80180839183CE01845B11
S11345C09F4F9E01265B3F4FF90120813181FC0101
S11345D020833183CE01845B9F4FFC0180819181D4
S11345E00197F1F79E01245B3F4FF901808391838A
S11345F01CC06BA97CA98DA99EA90E941A65DC0127
S1134600CB018BAFCE01825B9F4F2BADFC0120838E
S1134610CE01825B9F4FFC018081282F2A95F1F700
S1134620CE01825B9F4FFC01208380E094E020E870
S1134630FC01268380914A43843108F08DC180E0D7
S113464098EBA8E8B7E48D839E83AF83B8878E0187
S1134650015B1F4F2BEA3AEA4AE250E46D817E8106
S11346608F8198850E940066DC01CB01F80180836C
S11346709183A283B3838E010D5A1F4F8D819E8136
S1134680AF81B8859C01AD01BC01CD010E943764A6
S1134690DC01CB01F80180839183A283B383CE0133
S11346A0815B9F4F20E030E040E85FE3FC016081E4
S11346B07181828193810E94A36488233CF4CE019A
S11346C0895A9F4F21E0FC0120832DC1CE018D5AD0
S11346D09F4F20E03FEF4FE757E4FC016081718179
S11346E0828193810E94FB6518160CF0CDC020E0F6
S11346F030E04AE754E46D817E818F8198850E9481
S1134700A864DC01CB019E01285A3F4FF901808344
S11347109183A283B3838E01045A1F4FCE01885A1A
S11347209F4F20E030E04AEF54E4FC016081718146
S1134730828193810E940066DC01CB01F8018083B1
S11347409183A283B383CE01845A9F4F20E030E04B
S113475040E85FE3FC0160817181828193810E9462
S1134760A36488234CF4CE01805A9F4F21E030E0AB
S1134770FC01208331836DC0CE01845A9F4F20E019
S11347803FEF4FE757E4FC0160817181828193819F
S11347900E94FB6518160CF04AC0CE01885A9F4F40
S11347A020E030E040E251E4FC01608171818281CB
S11347B093810E940066DC01CB018E01005A1F4FD9
S11347C0BC01CD010E941A65DC01CB01F801808394
S11347D0918324C0CE018E599F4F28EC30E0FC0118
S11347E020833183CE018E599F4FFC0180819181BA
S11347F00197F1F79E012E593F4FF9018083918370
S1134800CE01805A9F4F9E01205A3F4FF9012081CB
S1134810318121503109FC0120833183CE01805A3A
S11348209F4FFC0180819181892BA1F67CC08E0170
S1134830005A1F4FCE01845A9F4FFC016081718141
S1134840828193810E941A65DC01CB01F801808387
S11348509183CE018C599F4F9E01205A3F4FF901FD
S113486020813181FC0120833183CE018C599F4FFB
S1134870FC01808191810197F1F79E012C593F4FF2
S1134880F901808391834FC0CE01815B9F4F20E06B
S113489030E04FE753E4FC016081718182819381B0
S11348A00E94FB65181674F58E010A591F4FCE013C
S11348B08D5A9F4FFC0160817181828193810E9496
S11348C01A65DC01CB01F80180839183CE018859FC
S11348D09F4F9E012A593F4FF90120813181FC01EC
S11348E020833183CE0188599F4FFC0180819181BF
S11348F00197F1F79E0128593F4FF9018083918375
S11349000C94052E8E01095A1F4FCE01815B9F4FD7
S1134910FC0160817181828193810E941A65DC01AE
S1134920CB01F8018083CE0186599F4F9E01295AFD
S11349303F4FF9012081FC012083CE0186599F4F0E
S1134940FC018081282F2A95F1F7CE0186599F4FCB
S1134950FC0120830C94052E80914A43893108F090
S11349608DC180E098EEADE7B7E489879A87AB877D
S1134970BC878E0105591F4F2BEA3AEA4AE250E4FC
S113498069857A858B859C850E940066DC01CB0154
S1134990F80180839183A283B3838E0101591F4F51
S11349A089859A85AB85BC859C01AD01BC01CD018F
S11349B00E943764DC01CB01F80180839183A283D8
S11349C0B383CE0185599F4F20E030E040E85FE398
S11349D0FC0160817181828193810E94A364882398
S11349E03CF4CE018D589F4F21E0FC0120832DC162
S11349F0CE0181599F4F20E03FEF4FE757E4FC0180
S1134A0060817181828193810E94FB6518160CF08C
S1134A10CDC020E030E04AE754E469857A858B858F
S1134A209C850E94A864DC01CB019E012C583F4F59
S1134A30F90180839183A283B3838E0108581F4FA9
S1134A40CE018C589F4F20E030E04AEF54E4FC0143
S1134A5060817181828193810E940066DC01CB01B7
S1134A60F80180839183A283B383CE0188589F4F3A
S1134A7020E030E040E85FE3FC01608171818281E5
S1134A8093810E94A36488234CF4CE0184589F4FE1
S1134A9021E030E0FC01208331836DC0CE018858D1
S1134AA09F4F20E03FEF4FE757E4FC0160817181A5
S1134AB0828193810E94FB6518160CF04AC0CE01D6
S1134AC08C589F4F20E030E040E251E4FC016081CB
S1134AD07181828193810E940066DC01CB018E0189
S1134AE004581F4FBC01CD010E941A65DC01CB01A3
S1134AF0F8018083918324C0CE0182589F4F28EC13
S1134B0030E0FC0120833183CE0182589F4FFC01A9
S1134B10808191810197F1F79E0122583F4FF9015D
S1134B2080839183CE0184589F4F9E0124583F4F28
S1134B30F9012081318121503109FC012083318325
S1134B40CE0184589F4FFC0180819181892BA1F66D
S1134B507CC08E0104581F4FCE0188589F4FFC0122
S1134B6060817181828193810E941A65DC01CB018D
S1134B70F80180839183CE0180589F4F9E01245871
S1134B803F4FF90120813181FC0120833183CE0123
S1134B9080589F4FFC01808191810197F1F79E011C
S1134BA020583F4FF901808391834FC0CE0185592E
S1134BB09F4F20E030E04FE753E4FC0160817181B6
S1134BC0828193810E94FB65181674F58E010E573D
S1134BD01F4FCE0181599F4FFC01608171818281F9
S1134BE093810E941A65DC01CB01F80180839183D3
S1134BF0CE018C579F4F9E012E573F4FF9012081C4
S1134C003181FC0120833183CE018C579F4FFC01FD
S1134C10808191810197F1F79E012C573F4FF90153
S1134C20808391830C94052E8E010D581F4FCE0165
S1134C3085599F4FFC0160817181828193810E941B
S1134C401A65DC01CB01F8018083CE018A579F4F9E
S1134C509E012D583F4FF9012081FC012083CE0194
S1134C608A579F4FFC018081282F2A95F1F7CE01A6
S1134C708A579F4FFC0120830C94052E80914A4350
S1134C808E3108F08BC180E090E9A2E6B7E48D870D
S1134C909E87AF87B88B8E0109571F4F2BEA3AEADC
S1134CA04AE250E46D857E858F8598890E9400666E
S1134CB0DC01CB01F80180839183A283B3838E014D
S1134CC005571F4F8D859E85AF85B8899C01AD0121
S1134CD0BC01CD010E943764DC01CB01F801808363
S1134CE09183A283B383CE0189579F4F20E030E0A4
S1134CF040E85FE3FC0160817181828193810E94BD
S1134D00A36488233CF4CE0181579F4F21E0FC012A
S1134D1020832CC1CE0185579F4F20E03FEF4FE702
S1134D2057E4FC0160817181828193810E94FB655B
S1134D3018160CF0CDC020E030E04AE754E46D854D
S1134D407E858F8598890E94A864DC01CB019E0131
S1134D5020573F4FF90180839183A283B3838E014F
S1134D600C561F4FCE0180579F4F20E030E04AEF92
S1134D7054E4FC0160817181828193810E94006608
S1134D80DC01CB01F80180839183A283B383CE013C
S1134D908C569F4F20E030E040E85FE3FC016081E7
S1134DA07181828193810E94A36488234CF4CE0193
S1134DB088569F4F21E030E0FC01208331836DC091
S1134DC0CE018C569F4F20E03FEF4FE757E4FC01A4
S1134DD060817181828193810E94FB6518160CF0B9
S1134DE04AC0CE0180579F4F20E030E040E251E4BA
S1134DF0FC0160817181828193810E940066DC01E3
S1134E00CB018E0108561F4FBC01CD010E941A65CB
S1134E10DC01CB01F8018083918324C0CE01865646
S1134E209F4F28EC30E0FC0120833183CE0186566D
S1134E309F4FFC01808191810197F1F79E012656D5
S1134E403F4FF90180839183CE0188569F4F9E0185
S1134E5028563F4FF9012081318121503109FC014D
S1134E6020833183CE0188569F4FFC01808191813C
S1134E70892BA1F67BC08E0108561F4FCE018C569C
S1134E809F4FFC0160817181828193810E941A6528
S1134E90DC01CB01F80180839183CE0184569F4FBE
S1134EA09E0128563F4FF90120813181FC01208366
S1134EB03183CE0184569F4FFC01808191810197FB
S1134EC0F1F79E0124563F4FF901808391834EC030
S1134ED0CE0189579F4F20E030E04FE753E4FC01B7
S1134EE060817181828193810E94FB6518166CF543
S1134EF08E0102561F4FCE0185579F4FFC016081E2
S1134F007181828193810E941A65DC01CB01F801D1
S1134F1080839183CE0180569F4F9E0122563F4F3E
S1134F20F90120813181FC0120833183CE01805637
S1134F309F4FFC01808191810197F1F79E012056DA
S1134F403F4FF9018083918360C68E0101571F4F43
S1134F50CE0189579F4FFC016081718182819381C9
S1134F600E941A65DC01CB01F8018083CE018E55C5
S1134F709F4F9E0121573F4FF9012081FC0120835F
S1134F80CE018E559F4FFC018081282F2A95F1F781
S1134F90CE018E559F4FFC01208337C680914A4332
S1134FA0883208F08BC180E090E5A3E4B7E4898BF4
S1134FB09A8BAB8BBC8B8E010D551F4F2BEA3AEAB3
S1134FC04AE250E469897A898B899C890E94006647
S1134FD0DC01CB01F80180839183A283B3838E012A
S1134FE009551F4F89899A89AB89BC899C01AD01F8
S1134FF0BC01CD010E943764DC01CB01F801808340
S11350009183A283B383CE018D559F4F20E030E07E
S113501040E85FE3FC0160817181828193810E9499
S1135020A36488233CF4CE0185559F4F21E0FC0105
S113503020832CC1CE0189559F4F20E03FEF4FE7DD
S113504057E4FC0160817181828193810E94FB6538
S113505018160CF0CDC020E030E04AE754E469892A
S11350607A898B899C890E94A864DC01CB019E010A
S113507024553F4FF90180839183A283B3838E012A
S113508000551F4FCE0184559F4F20E030E04AEF7A
S113509054E4FC0160817181828193810E940066E5
S11350A0DC01CB01F80180839183A283B383CE0119
S11350B080559F4F20E030E040E85FE3FC016081D1
S11350C07181828193810E94A36488234CF4CE0170
S11350D08C549F4F21E030E0FC01208331836DC06C
S11350E0CE0180559F4F20E03FEF4FE757E4FC018E
S11350F060817181828193810E94FB6518160CF096
S11351004AC0CE0184559F4F20E030E040E251E494
S1135110FC0160817181828193810E940066DC01BF
S1135120CB018E010C541F4FBC01CD010E941A65A6
S1135130DC01CB01F8018083918324C0CE018A5421
S11351409F4F28EC30E0FC0120833183CE018A5448
S11351509F4FFC01808191810197F1F79E012A54B0
S11351603F4FF90180839183CE018C549F4F9E0160
S11351702C543F4FF9012081318121503109FC0128
S113518020833183CE018C549F4FFC018081918117
S1135190892BA1F67BC08E010C541F4FCE01805584
S11351A09F4FFC0160817181828193810E941A6505
S11351B0DC01CB01F80180839183CE0188549F4F99
S11351C09E012C543F4FF90120813181FC01208341
S11351D03183CE0188549F4FFC01808191810197D6
S11351E0F1F79E0128543F4FF901808391834EC00B
S11351F0CE018D559F4F20E030E04FE753E4FC0192
S113520060817181828193810E94FB6518166CF51F
S11352108E0106541F4FCE0189559F4FFC016081BA
S11352207181828193810E941A65DC01CB01F801AE
S113523080839183CE0184549F4F9E0126543F4F17
S1135240F90120813181FC0120833183CE01845412
S11352509F4FFC01808191810197F1F79E012454B5
S11352603F4FF90180839183D0C48E0105551F4FB0
S1135270CE018D559F4FFC016081718182819381A4
S11352800E941A65DC01CB01F8018083CE018254AF
S11352909F4F9E0125553F4FF9012081FC0120833A
S11352A0CE0182549F4FFC018081282F2A95F1F76B
S11352B0CE0182549F4FFC012083A7C480914A43AE
S11352C0823308F08BC180E090E4ACE1B7E48D8BCD
S11352D09E8BAF8BB88F8E0101541F4F2BEA3AEA95
S11352E04AE250E46D897E898F89988D0E94006618
S11352F0DC01CB01F80180839183A283B3838E0107
S11353000D531F4F8D899E89AF89B88D9C01AD01C6
S1135310BC01CD010E943764DC01CB01F80180831C
S11353209183A283B383CE0181549F4F20E030E068
S113533040E85FE3FC0160817181828193810E9476
S1135340A36488233CF4CE0189539F4F21E0FC01E0
S113535020832CC1CE018D539F4F20E03FEF4FE7B8
S113536057E4FC0160817181828193810E94FB6515
S113537018160CF0CDC020E030E04AE754E46D8903
S11353807E898F89988D0E94A864DC01CB019E01DF
S113539028533F4FF90180839183A283B3838E0105
S11353A004531F4FCE0188539F4F20E030E04AEF53
S11353B054E4FC0160817181828193810E940066C2
S11353C0DC01CB01F80180839183A283B383CE01F6
S11353D084539F4F20E030E040E85FE3FC016081AC
S11353E07181828193810E94A36488234CF4CE014D
S11353F080539F4F21E030E0FC01208331836DC056
S1135400CE0184539F4F20E03FEF4FE757E4FC0168
S113541060817181828193810E94FB6518160CF072
S11354204AC0CE0188539F4F20E030E040E251E46F
S1135430FC0160817181828193810E940066DC019C
S1135440CB018E0100531F4FBC01CD010E941A6590
S1135450DC01CB01F8018083918324C0CE018E52FC
S11354609F4F28EC30E0FC0120833183CE018E5223
S11354709F4FFC01808191810197F1F79E012E528B
S11354803F4FF90180839183CE0180539F4F9E014A
S113549020533F4FF9012081318121503109FC0112
S11354A020833183CE0180539F4FFC018081918101
S11354B0892BA1F67BC08E0100531F4FCE0184536C
S11354C09F4FFC0160817181828193810E941A65E2
S11354D0DC01CB01F80180839183CE018C529F4F74
S11354E09E0120533F4FF90120813181FC0120832B
S11354F03183CE018C529F4FFC01808191810197B1
S1135500F1F79E012C523F4FF901808391834EC0E5
S1135510CE0181549F4F20E030E04FE753E4FC017B
S113552060817181828193810E94FB6518166CF5FC
S11355308E010A521F4FCE018D539F4FFC01608193
S11355407181828193810E941A65DC01CB01F8018B
S113555080839183CE0188529F4F9E012A523F4FF0
S1135560F90120813181FC0120833183CE018852ED
S11355709F4FFC01808191810197F1F79E01285290
S11355803F4FF9018083918340C38E0109531F4F1C
S1135590CE0181549F4FFC0160817181828193818E
S11355A00E941A65DC01CB01F8018083CE0186528A
S11355B09F4F9E0129533F4FF9012081FC01208315
S11355C0CE0186529F4FFC018081282F2A95F1F746
S11355D0CE0186529F4FFC01208317C380914A431A
S11355E08C3308F08BC180E098ECAFE2B7E4898F8C
S11355F09A8FAB8FBC8F8E0105521F4F2BEA3AEA6C
S11356004AE250E4698D7A8D8B8D9C8D0E940066F0
S1135610DC01CB01F80180839183A283B3838E01E3
S113562001521F4F898D9A8DAB8DBC8D9C01AD01AC
S1135630BC01CD010E943764DC01CB01F8018083F9
S11356409183A283B383CE0185529F4F20E030E043
S113565040E85FE3FC0160817181828193810E9453
S1135660A36488233CF4CE018D519F4F21E0FC01BB
S113567020832CC1CE0181529F4F20E03FEF4FE7A2
S113568057E4FC0160817181828193810E94FB65F2
S113569018160CF0CDC020E030E04AE754E4698DE0
S11356A07A8D8B8D9C8D0E94A864DC01CB019E01B8
S11356B02C513F4FF90180839183A283B3838E01E0
S11356C008511F4FCE018C519F4F20E030E04AEF2C
S11356D054E4FC0160817181828193810E9400669F
S11356E0DC01CB01F80180839183A283B383CE01D3
S11356F088519F4F20E030E040E85FE3FC01608187
S11357007181828193810E94A36488234CF4CE0129
S113571084519F4F21E030E0FC01208331836DC030
S1135720CE0188519F4F20E03FEF4FE757E4FC0143
S113573060817181828193810E94FB6518160CF04F
S11357404AC0CE018C519F4F20E030E040E251E44A
S1135750FC0160817181828193810E940066DC0179
S1135760CB018E0104511F4FBC01CD010E941A656B
S1135770DC01CB01F8018083918324C0CE018251E6
S11357809F4F28EC30E0FC0120833183CE0182510D
S11357909F4FFC01808191810197F1F79E01225175
S11357A03F4FF90180839183CE0184519F4F9E0125
S11357B024513F4FF9012081318121503109FC01ED
S11357C020833183CE0184519F4FFC0180819181DC
S11357D0892BA1F67BC08E0104511F4FCE01885145
S11357E09F4FFC0160817181828193810E941A65BF
S11357F0DC01CB01F80180839183CE0180519F4F5E
S11358009E0124513F4FF90120813181FC01208305
S11358103183CE0180519F4FFC018081918101979A
S1135820F1F79E0120513F4FF901808391834EC0CF
S1135830CE0185529F4F20E030E04FE753E4FC0156
S113584060817181828193810E94FB6518166CF5D9
S11358508E010E501F4FCE0181529F4FFC0160817B
S11358607181828193810E941A65DC01CB01F80168
S113587080839183CE018C509F4F9E012E503F4FC9
S1135880F90120813181FC0120833183CE018C50C8
S11358909F4FFC01808191810197F1F79E012C506B
S11358A03F4FF90180839183B0C18E010D511F4F89
S11358B0CE0185529F4FFC01608171818281938169
S11358C00E941A65DC01CB01F8018083CE018A5065
S11358D09F4F9E012D513F4FF9012081FC012083F0
S11358E0CE018A509F4FFC018081282F2A95F1F721
S11358F0CE018A509F4FFC01208387C180E090E550
S1135900A3E4B7E48D8F9E8FAF8FB8A38E010950A7
S11359101F4F2BEA3AEA4AE250E46D8D7E8D8F8D5B
S113592098A10E940066DC01CB01F8018083918379
S1135930A283B3838E0105501F4F8D8D9E8DAF8D35
S1135940B8A19C01AD01BC01CD010E943764DC010A
S1135950CB01F80180839183A283B383CE01895064
S11359609F4F20E030E040E85FE3FC0160817181FB
S1135970828193810E94A36488233CF4CE018150E8
S11359809F4F21E0FC01208329C1CE0185509F4F08
S113599020E03FEF4FE757E4FC0160817181828191
S11359A093810E94FB6518160CF0CAC020E030E019
S11359B04AE754E46D8D7E8D8F8D98A10E94A86472
S11359C0DC01CB019E013395F90180839183A2838D
S11359D0B3838E010C5F1E4FCE01939520E030E01F
S11359E04AEF54E4FC0160817181828193810E94B9
S11359F00066DC01CB01F80180839183A283B38329
S1135A00CE018C5F9E4F20E030E040E85FE3FC0174
S1135A1060817181828193810E94A36488234CF404
S1135A20CE01885F9E4F21E030E0FC01208331836A
S1135A306CC0CE018C5F9E4F20E03FEF4FE757E4F0
S1135A40FC0160817181828193810E94FB6518163B
S1135A500CF049C0CE01939520E030E040E251E4DF
S1135A60FC0160817181828193810E940066DC0166
S1135A70CB018E01085F1E4FBC01CD010E941A6547
S1135A80DC01CB01F8018083918324C0CE01865FC1
S1135A909E4F28EC30E0FC0120833183CE01865FE9
S1135AA09E4FFC01808191810197F1F79E01265F51
S1135AB03E4FF90180839183CE01885F9E4F9E0102
S1135AC0285F3E4FF9012081318121503109FC01C9
S1135AD020833183CE01885F9E4FFC0180819181B8
S1135AE0892BA1F67BC08E01085F1E4FCE018C5F0F
S1135AF09E4FFC0160817181828193810E941A65AD
S1135B00DC01CB01F80180839183CE01845F9E4F39
S1135B109E01285F3E4FF90120813181FC012083E1
S1135B203183CE01845F9E4FFC0180819181019776
S1135B30F1F79E01245F3E4FF901808391834EC0AB
S1135B40CE0189509F4F20E030E04FE753E4FC0141
S1135B5060817181828193810E94FB6518166CF5C6
S1135B608E01025F1E4FCE0185509F4FFC01608164
S1135B707181828193810E941A65DC01CB01F80155
S1135B8080839183CE01805F9E4F9E01225F3E4FB2
S1135B90F90120813181FC0120833183CE01805FB2
S1135BA09E4FFC01808191810197F1F79E01205F56
S1135BB03E4FF9018083918328C08E0101501F4F0D
S1135BC0CE0189509F4FFC01608171818281938154
S1135BD00E941A65DC01CB01F8018083CE018E5E40
S1135BE09E4F9E0121503F4FF9012081FC012083EB
S1135BF0CE018E5E9E4FFC018081282F2A95F1F7FD
S1135C00CE018E5E9E4FFC01208380914A438F5FBC
S1135C1080934A4380914A43873410F40C949C2126
S1135C2080E090E0A0EFB1E489A39AA3ABA3BCA366
S1135C308E010D5E1E4F20E030E04AEF54E469A16E
S1135C407AA18BA19CA10E940066DC01CB01F80122
S1135C5080839183A283B383CE018D5E9E4F20E027
S1135C6030E040E85FE3FC016081718182819381CF
S1135C700E94A36488234CF4CE01895E9E4F21E0E8
S1135C8030E0FC012083318369C0CE018D5E9E4FDC
S1135C9020E03FEF4FE757E4FC016081718182818E
S1135CA093810E94FB6518160CF046C020E030E09A
S1135CB040E251E469A17AA18BA19CA10E940066F3
S1135CC0DC01CB018E01095E1E4FBC01CD010E9497
S1135CD01A65DC01CB01F8018083918324C0CE01D5
S1135CE0875E9E4F28EC30E0FC0120833183CE0197
