S0150000574D4F535F4156525F436F64652E73726563A7
S11300000C9482000C94A1000C94A1000C94A10007
S11300100C94A1000C94A1000C94A1000C94A100D8
S11300200C94B22D0C946C2D0C94A1000C94A10092
S11300300C94A1000C94A1000C94A1000C94A100B8
S11300400C94A1000C94A1000C94A1000C94A100A8
S11300500C94A1000C94A1000C94A1000C94A10098
S11300600C94D5320C94A1000C94A1000C94A10022
S11300700C94A1000C94A1000C9460310C94A10088
S11300800C94A1000C94A1000C94A1000C94A10068
S11300900C94A1000C94A1000C94A1000C94A10058
S11300A00C94A1000C94A1000C94A1000C94A10048
S11300B00C94A1000C94852E0C9463310C94A10033
S11300C00C94A1000C94A1000C94A1000C94A10028
S11300D00C94A1000C94A1000C94A1000C94A10018
S11300E00C94A1000C94A1000C94A1000C94A10008
S11300F00C94A1000C94A1000C94B0010C94A100E8
S11301000C94A10011241FBECFEFCDBFDFE7DEBFEB
S113011012E4A0E0B0E4E4E4F0ED00E00BBF02C0C0
S113012007900D92A83BB107D9F723E4A8EBB2E4FA
S113013001C01D92A035B207E1F70E949A370C94D2
S113014020680C94000088ED84BF84E980936800E3
S11301500895CF93DF93CDB7DEB7A097CDBFDEBFB1
S113016080E294E020E2FC01258380E090E8ABEBA0
S1130170B4E489839A83AB83BC832BEA3AEA4AE2E8
S113018050E469817A818B819C810E942A64DC011C
S1130190CB018D839E83AF83B88789819A81AB819C
S11301A0BC819C01AD01BC01CD010E946162DC01F6
S11301B0CB0189879A87AB87BC8720E030E040E891
S11301C05FE36D817E818F8198850E94CD62882353
S11301D01CF481E08D87B2C020E03FEF4FE757E485
S11301E069857A858B859C850E94256418160CF098
S11301F07BC020E030E04AE754E469817A818B8156
S11302009C810E94D262DC01CB018E879F87A88BE0
S1130210B98B20E030E04AEF54E46E857F8588890D
S113022099890E942A64DC01CB018A8B9B8BAC8B5D
S1130230BD8B20E030E040E85FE36A897B898C89EC
S11302409D890E94CD6288232CF481E090E08E8BFE
S11302509F8B3FC020E03FEF4FE757E46A897B89DB
S11302608C899D890E94256418164CF520E030E0A5
S113027040E251E46E857F85888999890E942A64C9
S1130280DC01CB01BC01CD010E944463DC01CB0144
S11302908E8B9F8B0FC088EC90E0888F998F888D10
S11302A0998D0197F1F7888F998F8E899F8901978E
S11302B08E8B9F8B8E899F89892B69F73FC06A89B2
S11302C07B898C899D890E944463DC01CB018E8BE0
S11302D09F8B8E899F898A8F9B8F8A8D9B8D019797
S11302E0F1F78A8F9B8F2AC020E030E04FE753E478
S11302F06D817E818F8198850E9425641816ACF4E7
S113030069857A858B859C850E944463DC01CB01D9
S11303108C8F9D8F8C8D9D8D8E8F9F8F8E8D9F8DBD
S11303200197F1F78E8F9F8F0FC06D817E818F8132
S113033098850E944463DC01CB018D878D8588A359
S113034088A18A95F1F788A380E294E020E2FC0179
S113035026830000A096CDBFDEBFDF91CF91089524
S11303601F920F9200903F000F92112400903B00C7
S11303700F922F933F934F935F936F937F938F933A
S11303809F93AF93BF93EF93FF93CF93DF93CDB737
S1130390DEB7F8940E94A30280933F4380913F43C9
S11303A08A30C1F080913F438D30A1F08091E942C1
S11303B091E0980F9093E942882F90E020913F4379
S11303C08E5F9C4BFC0120838091E942833310F0C3
S11303D01092E94280913F438A3071F48091E9425E
S11303E0882F90E08E5F9C4BFC0110821092E942B2
S11303F082E093E40E94B50278940000DF91CF91EB
S1130400FF91EF91BF91AF919F918F917F916F91E8
S11304105F914F913F912F910F9000923B000F906D
S113042000923F000F901F901895CF93DF93CDB7A4
S1130430DEB780EC94E020EC34E0F90120812D7FDC
S1130440FC01208380EC94E020EC34E0F90120816D
S11304502160FC01208380EA98E020EA38E0F90179
S11304602681206CFC01268380EA98E026E131E0B5
S1130470FC012087318780EA98E020EA38E0F9011E
S113048025812068FC01258378940000DF91CF91B9
S11304900895CF93DF93CDB7DEB780EC94E02CE1E1
S11304A0FC01218380EC94E024E1FC0125830E947B
S11304B015020000DF91CF910895CF93DF931F922F
S11304C0CDB7DEB78983000080EA98E0FC0184811F
S11304D0882F90E080729927892BB1F380EA98E005
S11304E02981FC01228300000F90DF91CF910895B0
S11304F0CF93DF9300D000D0CDB7DEB78B839C833E
S113050019821A820FC02B813C8189819A81820FC2
S1130510931FFC0180810E945D0289819A8101966A
S113052089839A838B819C810E943A659C0189818D
S11305309A818217930738F300002496CDBFDEBF5B
S1130540DF91CF910895CF93DF93CDB7DEB700004D
S113055080EA98E0FC0184818823D4F780EA98E05B
S1130560FC018081DF91CF910895CF93DF93CDB7C4
S1130570DEB7A097CDBFDEBF8F8F98A38F8D98A1D4
S113058062E470E40E943165892B41F480E090E4D8
S11305900E9478028AE00E945D0247C18F8D98A173
S11305A064E470E40E943165892B41F480E190E4B5
S11305B00E9478028AE00E945D0237C18F8D98A163
S11305C066E470E40E943165892B41F480E290E492
S11305D00E9478028AE00E945D0227C18F8D98A153
S11305E068E470E40E943165892B41F480E390E46F
S11305F00E9478028AE00E945D0217C18F8D98A143
S11306006AE470E40E943165892BF1F54EE150E013
S113061060E070E0CE0101960E942A656091F44288
S11306207091F542409138435091394320913443BD
S1130630309135438091414390914243E72FEF93AA
S11306406F93652F6F934F93432F4F932F93292FBE
S11306502F938F938CE490E4892F8F938CE490E410
S11306608F93CE0101969F938F930E9443658DB71C
S11306709EB70C96CDBFDEBFCE0101960E947802D4
S11306808AE00E945D02D1C08F8D98A166E570E476
S11306900E943165892BF1F54EE150E060E070E095
S11306A0CE0101960E942A656091F8427091F94248
S11306B04091F1425091F24220914443309145439C
S11306C080913D4390913E43E72FEF936F93652FC5
S11306D06F934F93432F4F932F93292F2F938F93E0
S11306E08CE490E4892F8F938CE490E48F93CE0173
S11306F001969F938F930E9443658DB79EB70C9686
S1130700CDBFDEBFCE0101960E9478028AE00E942E
S11307105D028BC08F8D98A168E570E40E943165FD
S1130720892BF1F54EE150E060E070E0CE010196D6
S11307300E942A65609136437091374340913B4350
S113074050913C4320914B4330914C438091F6426D
S11307509091F742E72FEF936F93652F6F934F9329
S1130760432F4F932F93292F2F938F938CE490E44F
S1130770892F8F938CE490E48F93CE0101969F93FD
S11307808F930E9443658DB79EB70C96CDBFDEBF95
S1130790CE0101960E9478028AE00E945D0245C063
S11307A08F8D98A16AE570E40E943165892BE9F583
S11307B04EE150E060E070E0CE0101960E942A65AF
S11307C0609136437091374340913B4350913C4391
S11307D020914B4330914C438091F6429091F742E3
S11307E0E72FEF936F93652F6F934F93432F4F939F
S11307F02F93292F2F938F938CE490E4892F8F9339
S11308008CE490E48F93CE0101969F938F930E9482
S113081043658DB79EB70C96CDBFDEBFCE01019662
S11308200E9478028AE00E945D020000A096CDBF7B
S1130830DEBFDF91CF910895CF93DF93CDB7DEB7BD
S113084080E094E021E0FC01218380E294E021E057
S1130850FC01218380E494E021E0FC01218380EA0F
S113086094E020E1FC01218380EE95E020EE35E068
S1130870F90122812061FC01228380E498E025E0D3
S11308803DE0FC012087318780E098E021E433E0FB
S1130890FC012087318780E698E021E433E0FC0105
S11308A02087318780E298E021E433E0FC0120874F
S11308B0318780E098E020E038E0F9012681206467
S11308C0FC01268380E098E020E038E0F9012681ED
S11308D02068FC01268380E298E020E238E0F901F8
S11308E026812064FC01268380E298E020E238E03F
S11308F0F90126812068FC01268380E498E020E445
S113090038E0F90126812064FC01268380E498E024
S113091020E438E0F90126812068FC01268380E682
S113092098E020E638E0F90126812064FC01268362
S113093080E698E020E638E0F90126812068FC0191
S113094026830E9449020000DF91CF910895CF933E
S1130950DF931F92CDB7DEB78983000080E098E073
S1130960FC018481882F90E080729927892BB1F350
S113097080E098E02981FC01228300000F90DF9140
S1130980CF910895CF93DF931F92CDB7DEB78983BC
S1130990000080E698E0FC018481882F90E080725A
S11309A09927892BB1F380E698E02981FC01228301
S11309B000000F90DF91CF910895CF93DF931F92A2
S11309C0CDB7DEB78983000080E298E0FC01848122
S11309D0882F90E080729927892BB1F380E298E008
S11309E02981FC01228300000F90DF91CF910895AB
S11309F0CF93DF93CDB7DEB76C97CDBFDEBF80E07A
S1130A0094E024E0FC01268380E090E0A0E7B1E4D8
S1130A1089839A83AB83BC8320E030E04AEF54E4BB
S1130A2069817A818B819C810E942A64DC01CB01DB
S1130A308B8B9C8BAD8BBE8B20E030E040E85FE37A
S1130A406B897C898D899E890E94CD6288232CF4D0
S1130A5081E090E08F8B988F3FC020E03FEF4FE71D
S1130A6057E46B897C898D899E890E9425641816B8
S1130A704CF520E030E040E251E469817A818B81D9
S1130A809C810E942A64DC01CB01BC01CD010E943F
S1130A904463DC01CB018F8B988F0FC088EC90E00E
S1130AA0898F9A8F898D9A8D0197F1F7898F9A8F03
S1130AB08F89988D01978F8B988F8F89988D892B2B
S1130AC069F714C06B897C898D899E890E9444636F
S1130AD0DC01CB018F8B988F8F89988D8B8F9C8FA6
S1130AE08B8D9C8D0197F1F78B8F9C8F80E094E028
S1130AF024E0FC01258380E090E0AFE2B5E48D833F
S1130B009E83AF83B88720E030E04AEF54E46D81E0
S1130B107E818F8198850E942A64DC01CB018987BC
S1130B209A87AB87BC8720E030E040E85FE36985C3
S1130B307A858B859C850E94CD6288232CF481E084
S1130B4090E08D879E873FC020E03FEF4FE757E45A
S1130B5069857A858B859C850E94256418164CF5D9
S1130B6020E030E040E251E46D817E818F81988500
S1130B700E942A64DC01CB01BC01CD010E944463C4
S1130B80DC01CB018D879E870FC088EC90E08F87B6
S1130B90988B8F8598890197F1F78F87988B8D852E
S1130BA09E8501978D879E878D859E85892B69F704
S1130BB014C069857A858B859C850E944463DC0119
S1130BC0CB018D879E878D859E85898B9A8B89899C
S1130BD09A890197F1F7898B9A8B10924943109265
S1130BE04E431092FC4281E0809341408091414009
S1130BF08093F342809141400E94CF06809141400E
S1130C000E94CF0600006C96CDBFDEBFDF91CF916E
S1130C100895CF93DF9300D01F92CDB7DEB78A83B8
S1130C209B8318C0809149438130A1F484E098E00B
S1130C30FC018081882374F480E098E0FC018081C9
S1130C40863029F4109249431092FA4203C081E09D
S1130C508093FA4280914943813021F38FEF898355
S1130C6089810E94A7048EEF898389810E94A70449
S1130C70198289810E94A7048A81898389810E94BB
S1130C80A70481E08093494300002396CDBFDEBFD3
S1130C90DF91CF910895CF93DF9300D01F92CDB70A
S1130CA0DEB78A839B8318C080914E438130A1F4C0
S1130CB084E698E0FC018081882374F480E698E05F
S1130CC0FC018081863029F410924E4310924843EF
S1130CD003C081E08093484380914E43813021F3E7
S1130CE08FEF898389810E94C2048EEF8983898171
S1130CF00E94C204198289810E94C2048A81898364
S1130D0089810E94C20481E080934E4300002396AF
S1130D10CDBFDEBFDF91CF910895CF93DF9300D095
S1130D201F92CDB7DEB78A839B8318C08091FC42A3
S1130D308130A1F484E298E0FC018081882374F47A
S1130D4080E298E0FC018081863029F41092FC4214
S1130D5010924F4303C081E080934F438091FC4243
S1130D60813021F38FEF898389810E94DD048EEF26
S1130D70898389810E94DD04198289810E94DD04AE
S1130D808A81898389810E94DD0481E08093FC4209
S1130D9000002396CDBFDEBFDF91CF910895CF939E
S1130DA0DF9300D0CDB7DEB78A8348C08091494332
S1130DB08130A1F484E098E0FC018081882374F4FC
S1130DC080E098E0FC018081863029F41092494348
S1130DD01092FA4203C081E08093FA4280914E431C
S1130DE08130A1F484E698E0FC018081882374F4C6
S1130DF080E698E0FC018081863029F410924E430D
S1130E001092484303C081E0809348438091FC42A0
S1130E108130A1F484E298E0FC018081882374F499
S1130E2080E298E0FC018081863029F41092FC4233
S1130E3010924F4303C081E080934F438091494314
S1130E4091E0813009F090E020914E4381E021301F
S1130E5009F080E0892B282F30E09091FC4281E05A
S1130E60913009F080E0882F90E0822B932B892B1E
S1130E7009F09CCF8FEF898389810E94A70489811F
S1130E800E94C20489810E94DD0486E689838981E7
S1130E900E94A70489810E94C20489810E94DD0402
S1130EA0198289810E94A70489810E94C2048981D0
S1130EB00E94DD048A81898389810E94A704898133
S1130EC00E94C20489810E94DD0481E08093494329
S1130ED081E080934E4381E08093FC4200000F90B8
S1130EE00F90DF91CF910895CF93DF9300D0CDB7CA
S1130EF0DEB78A8318C080914E438130A1F484E622
S1130F0098E0FC018081882374F480E698E0FC0179
S1130F108081863029F410924E431092484303C0D6
S1130F2081E08093484380914E43813021F38FEFD9
S1130F30898389810E94C20486E6898389810E940B
S1130F40C204198289810E94C2048A8189838981A9
S1130F500E94C20481E080934E4300000F900F90E2
S1130F60DF91CF910895CF93DF93CDB7DEB72C9760
S1130F70CDBFDEBF8B879C8718C0809149438130E9
S1130F80A1F484E098E0FC018081882374F480E07B
S1130F9098E0FC018081863029F410924943109234
S1130FA0FA4203C081E08093FA4280914943813040
S1130FB021F38B859C858B839C8319821A828B8178
S1130FC09C819C012E5F3F4F2B833C83FC018081DD
S1130FD091818D839E831EC08B819C819C012E5F99
S1130FE03F4F2B833C83FC01808191818F839887C1
S1130FF08F819885892F992789878F818A87898509
S11310000E94A7048A850E94A70489819A81019677
S113101089839A8329813A818D819E812817390792
S1131020D8F281E08093494300002C96CDBFDEBF07
S1131030DF91CF910895CF93DF93CDB7DEB72C978F
S1131040CDBFDEBF8B879C871AC080914E43813011
S1131050B1F484E698E0FC018081882384F480E67E
S113106098E0FC018081863029F410924E4310925E
S1131070484305C010924E4381E0809348438091D9
S11310804E43813011F38B859C858B839C8319821D
S11310901A828B819C819C012E5F3F4F2B833C8362
S11310A0FC01808191818D839E831EC08B819C81F4
S11310B09C012E5F3F4F2B833C83FC0180819181F7
S11310C08F8398878F819885892F992789878F8126
S11310D08A8789850E94C2048A850E94C204898104
S11310E09A81019689839A8329813A818D819E818F
S11310F028173907D8F281E080934E4300002C96DC
S1131100CDBFDEBFDF91CF910895CF93DF93CDB7ED
S1131110DEB72C97CDBFDEBF8B879C8718C080912C
S1131120FC428130A1F484E298E0FC0180818823B0
S113113074F480E298E0FC018081863029F41092F6
S1131140FC4210924F4303C081E080934F4380914F
S1131150FC42813021F38B859C858B839C8319828F
S11311601A828B819C819C012E5F3F4F2B833C8391
S1131170FC01808191818D839E831EC08B819C8123
S11311809C012E5F3F4F2B833C83FC018081918126
S11311908F8398878F819885892F992789878F8155
S11311A08A8789850E94DD048A850E94DD048981FD
S11311B09A81019689839A8329813A818D819E81BE
S11311C028173907D8F281E08093FC4200002C965E
S11311D0CDBFDEBFDF91CF910895CF93DF93CDB71D
S11311E0DEB72697CDBFDEBF8D839E838D819E8122
S11311F08A839B838A819B819C012F5F3F4F2A8333
S11312003B83FC018081898318C0809149438130EC
S1131210A1F484E098E0FC018081882374F480E0E8
S113122098E0FC018081863029F4109249431092A1
S1131230FA4203C081E08093FA42809149438130AD
S113124021F31C828C810E94A70486E08C838C810C
S11312500E94A7040DC089810E94A7048A819B81F2
S11312609C012F5F3F4F2A833B83FC01808189834C
S11312708981882381F789810E94A70481E0809372
S1131280494300002696CDBFDEBFDF91CF9108957C
S1131290CF93DF93CDB7DEB72697CDBFDEBF8D8367
S11312A09E838D819E818A839B838A819B819C01FD
S11312B02F5F3F4F2A833B83FC018081898318C0C1
S11312C080914E438130A1F484E698E0FC01808152
S11312D0882374F480E698E0FC018081863029F448
S11312E010924E431092484303C081E080934843D8
S11312F080914E43813021F31C828C810E94C20470
S113130086E08C838C810E94C2040DC089810E9476
S1131310C2048A819B819C012F5F3F4F2A833B83B8
S1131320FC01808189838981882381F789810E94D6
S1131330C20481E080934E4300002696CDBFDEBFF9
S1131340DF91CF910895CF93DF93CDB7DEB7269782
S1131350CDBFDEBF8D839E838D819E818A839B83D7
S11313608A819B819C012F5F3F4F2A833B83FC0131
S11313708081898318C08091FC428130A1F484E289
S113138098E0FC018081882374F480E298E0FC01F9
S11313908081863029F41092FC4210924F4303C09E
S11313A081E080934F438091FC42813021F31C8281
S11313B08C810E94DD0486E08C838C810E94DD0494
S11313C00DC089810E94DD048A819B819C012F5F6D
S11313D03F4F2A833B83FC01808189838981882351
S11313E081F789810E94DD0481E08093FC42000042
S11313F02696CDBFDEBFDF91CF910895CF93DF93C3
S1131400CDB7DEB72897CDBFDEBF8D839E836F83B4
S1131410788718C0809149438130A1F484E098E032
S1131420FC018081882374F480E098E0FC018081D1
S1131430863029F4109249431092FA4203C081E0A5
S11314408093FA4280914943813021F386ED9FEFE6
S113145089839A8389819A81892F99278B838981AA
S11314608C838B810E94A7048C810E94A7048D81A8
S11314709E8189839A8389819A81892F99278B8375
S113148089818C838B810E94A7048C810E94A7048C
S11314908F81988589839A8389819A81892F992755
S11314A08B8389818C838B810E94A7048C810E9409
S11314B0A70481E08093494300002896CDBFDEBF96
S11314C0DF91CF910895CF93DF93CDB7DEB72897FF
S11314D0CDBFDEBF8D839E836F83788718C08091D4
S11314E04E438130A1F484E698E0FC018081882396
S11314F074F480E698E0FC018081863029F410922F
S11315004E431092484303C081E080934843809146
S11315104E43813021F386ED9FEF89839A8389813D
S11315209A81892F99278B8389818C838B810E944F
S1131530C2048C810E94C2048D819E8189839A8316
S113154089819A81892F99278B8389818C838B81C7
S11315500E94C2048C810E94C2048F819885898371
S11315609A8389819A81892F99278B8389818C8396
S11315708B810E94C2048C810E94C20481E080930A
S11315804E4300002896CDBFDEBFDF91CF91089572
S1131590CF93DF93CDB7DEB72897CDBFDEBF8D8362
S11315A09E836F83788718C08091FC428130A1F4B8
S11315B084E298E0FC018081882374F480E298E05E
S11315C0FC018081863029F41092FC4210924F4332
S11315D003C081E080934F438091FC42813021F32A
S11315E086ED9FEF89839A8389819A81892F992730
S11315F08B8389818C838B810E94DD048C810E9482
S1131600DD048D819E8189839A8389819A81892FC2
S113161099278B8389818C838B810E94DD048C8143
S11316200E94DD048F81988589839A8389819A81B8
S1131630892F99278B8389818C838B810E94DD0478
S11316408C810E94DD0481E08093FC420000289696
S1131650CDBFDEBFDF91CF910895CF93DF93CDB798
S1131660DEB78EEB90E40E94B3078EEB90E40E9409
S11316701B088EEB90E40E9485088CEC90E40E9499
S1131680B3078CEC90E40E941B088CEC90E40E945D
S113169085088AED90E40E94B3078AED90E40E94E5
S11316A01B088AED90E40E94850888E790E40E9474
S11316B0B30788E790E40E941B0888E790E40E943F
S11316C0850886E890E40E94B30786E890E40E94C7
S11316D01B0886E890E40E94850884E990E40E944F
S11316E0B30784E990E40E941B0884E990E40E9413
S11316F085080000DF91CF910895CF93DF93CDB794
S1131700DEB76AE070E084E090E00E94630A82E160
S113171091E40E941B0888EE90E40E941B0883E970
S113172091E40E94480984EF90E40E941B080000A1
S1131730DF91CF910895CF93DF93CDB7DEB700004B
S113174080E498E0FC0184818823D4F780E498E065
S1131750FC018081DF91CF910895CF93DF931F9295
S1131760CDB7DEB78983000080E498E0FC01848172
S1131770882F90E080729927892BB1F380E498E058
S11317802981FC01228300000F90DF91CF910895FD
S1131790CF93DF93CDB7DEB72797CDBFDEBF8E8360
S11317A09F838E819F818A839B8319828A819B81F7
S11317B09C012F5F3F4F2A833B83FC0180818C83F4
S11317C010C08A819B819C012F5F3F4F2A833B83FA
S11317D0FC0180818D838D810E94AD0B89818F5F97
S11317E0898399818C81981760F300002796CDBF77
S11317F0DEBFDF91CF910895CF93DF93CDB7DEB7EE
S11318002897CDBFDEBF8E839F8368871C828E811D
S11318109F818A839B8388858D8380E498E0FC0183
S113182080818C8380E498E0FC0180818C8380E457
S113183098E0FC0180818C83198210C00E949B0B6C
S11318408C838A819B819C012F5F3F4F2A833B833A
S11318502C81FC01208389818F5F89838981853074
S113186068F31C820DC00E949B0B8C838A819B8130
S11318709C012F5F3F4F2A833B832C81FC012083F3
S11318809D818C81981779F700002896CDBFDEBF23
S1131890DF91CF910895CF93DF93CDB7DEB7A297B1
S11318A0CDBFDEBF1A821092D0421092D1428DE594
S11318B092E40E94C80B80E498E0FC0180818A8352
S11318C080E498E0FC0180818A8380E498E0FC0154
S11318D080818A8319820EC180E090E0A0E4B0E4A4
S11318E08B839C83AD83BE832BEA3AEA4AE250E4BD
S11318F06B817C818D819E810E942A64DC01CB01F5
S11319008F839887A987BA878B819C81AD81BE819B
S11319109C01AD01BC01CD010E946162DC01CB01DF
S11319208B879C87AD87BE8720E030E040E85FE38B
S11319306F81788589859A850E94CD6288231CF4FD
S113194081E08F87B2C020E03FEF4FE757E46B851B
S11319507C858D859E850E94256418160CF07BC0BD
S113196020E030E04AE754E46B817C818D819E81E4
S11319700E94D262DC01CB01888B998BAA8BBB8B32
S113198020E030E04AEF54E4688979898A899B89A8
S11319900E942A64DC01CB018C8B9D8BAE8BBF8BA8
S11319A020E030E040E85FE36C897D898E899F897F
S11319B00E94CD6288232CF481E090E0888F998F77
S11319C03FC020E03FEF4FE757E46C897D898E8963
S11319D09F890E94256418164CF520E030E040E20F
S11319E051E4688979898A899B890E942A64DC0187
S11319F0CB01BC01CD010E944463DC01CB01888F83
S1131A00998F0FC088EC90E08A8F9B8F8A8D9B8D75
S1131A100197F1F78A8F9B8F888D998D0197888F15
S1131A20998F888D998D892B69F73FC06C897D8941
S1131A308E899F890E944463DC01CB01888F998F32
S1131A40888D998D8C8F9D8F8C8D9D8D0197F1F74D
S1131A508C8F9D8F2AC020E030E04FE753E46F81E4
S1131A60788589859A850E9425641816ACF46B855F
S1131A707C858D859E850E944463DC01CB018E8F1D
S1131A809F8F8E8D9F8D88A399A388A199A101977B
S1131A90F1F788A399A30FC06F81788589859A850A
S1131AA00E944463DC01CB018F878F858AA38AA1BE
S1131AB08A95F1F78AA38091D0429091D142019600
S1131AC08093D0429093D14280E498E0FC018481D9
S1131AD0882344F08091D0429091D1428332914046
S1131AE008F4FACE80E498E0FC0180818A8389813D
S1131AF08F5F89838981873038F38091D0429091B8
S1131B00D1428332914020F081E08093E84202C0C8
S1131B101092E8420000A296CDBFDEBFDF91CF91C4
S1131B200895CF93DF9300D000D0CDB7DEB780E324
S1131B3089831A8284E090E48B839C8362E170E061
S1131B4085E290E00E94630A82E191E40E941B080E
S1131B508EEE90E40E941B081A823FC08B819C8108
S1131B609C012F5F3F4F2B833C83FC018081898341
S1131B708981803391F18981863579F18981813335
S1131B8058F089818A3340F48981882F90E00E943B
S1131B904B0681E08A8321C089818E32F1F480E38F
S1131BA090E00E944B068981882F90E00E944B06AA
S1131BB08B819C819C012F5F3F4F2B833C83FC01D5
S1131BC0808189838981882F90E00E944B0680E27E
S1131BD090E00E944B0681E08A838A81882309F47D
S1131BE0BDCF22C08B819C819C012F5F3F4F2B83F3
S1131BF03C83FC018081898389818E3281F48B81CD
S1131C009C8102968B839C8384EF90E40E941B0842
S1131C1067E170E082E790E00E94630A05C0898171
S1131C20882F90E00E944B0689818635D9F6000002
S1131C302496CDBFDEBFDF91CF910895CF93DF937C
S1131C40CDB7DEB72997CDBFDEBF80E389831A8283
S1131C501D821E821F821886198680E190E48B8380
S1131C609C830AC08B819C819C012F5F3F4F2B83F7
S1131C703C83FC018081898389818D3221F08091AC
S1131C8046438B3078F389818D3219F481E08A835D
S1131C900BC01A826EE470E085E090E00E94630A53
S1131CA08BE290E00E944B068A81813029F486E120
S1131CB090E48B839C8304C085E190E48B839C83B4
S1131CC08B819C819C012F5F3F4F2B833C83FC01C4
S1131CD080818D838B819C819C012F5F3F4F2B835F
S1131CE03C83FC0180818E838B819C819C012F5FCE
S1131CF03F4F2B833C83FC0180818F838B819C81AC
S1131D009C012F5F3F4F2B833C83FC01808188879C
S1131D108B819C8101968B839C838B819C819C010C
S1131D202F5F3F4F2B833C83FC01808189876EE4C6
S1131D3070E085E290E00E94630A82E191E40E94EF
S1131D401B088EEE90E40E941B088D818033A9F459
S1131D508E81803391F48F81803379F48885882F44
S1131D6090E00E944B068EE290E00E944B0689852B
S1131D70882F90E00E944B0627C08D81803391F418
S1131D808E81803379F480E290E00E944B068F814B
S1131D90882F90E00E944B068885882F90E00E944F
S1131DA04B0612C08D81803379F48E81882F90E0A8
S1131DB00E944B068F81882F90E00E944B068885F5
S1131DC0882F90E00E944B0684EF90E40E941B0849
S1131DD063E570E082E790E00E94630A81E490E0AA
S1131DE00E944B0600002996CDBFDEBFDF91CF9144
S1131DF00895CF93DF9300D000D0CDB7DEB780E352
S1131E0089831A8284E290E48B839C8367E370E085
S1131E1087E190E00E94630A8CE091E40E941B0831
S1131E2084EF90E40E941B081A821AC08B819C8163
S1131E309C012F5F3F4F2B833C83FC01808189836E
S1131E408981803369F08981813350F089818A33B3
S1131E5038F48981882F90E00E944B0681E08A83C0
S1131E608A81882319F327C08B819C819C012F5F71
S1131E703F4F2B833C83FC018081898389818E328F
S1131E80A9F48B819C819C012F5F3F4F2B833C8362
S1131E90FC01808189838AEF90E40E941B086BE334
S1131EA070E084E390E00E94630A05C08981882F72
S1131EB090E00E944B0689818532B1F60000249699
S1131EC0CDBFDEBFDF91CF910895CF93DF9300D0D4
S1131ED01F92CDB7DEB780E3898388E390E48A83D9
S1131EE09B8367E370E08CE590E00E94630A8CE0DA
S1131EF091E40E941B0884EF90E40E941B088A81ED
S1131F009B819C012F5F3F4F2A833B83FC0180818F
S1131F1089838981882F90E00E944B068EE2898311
S1131F2086E091E40E941B088981882F90E00E943A
S1131F304B0684EF90E40E941B088CE091E40E941D
S1131F401B0867E370E082E790E00E94630A8A81DD
S1131F509B819C012F5F3F4F2A833B83FC0180813F
S1131F6089838981882F90E00E944B068A819B8116
S1131F709C012F5F3F4F2A833B83FC01808189832F
S1131F808981882F90E00E944B0600002396CDBFE4
S1131F90DEBFDF91CF910895CF93DF93CDB7DEB746
S1131FA00E947D0B84EF90E40E941B088CE091E476
S1131FB00E941B0861E170E085E190E00E94630AE1
S1131FC08FE691E40E9448098CE590E40E941B0886
S1131FD08AE690E40E941B080000DF91CF910895E7
S1131FE0CF93DF93CDB7DEB76AE070E08FE090E087
S1131FF00E94FE0988EE90E40E94B3078AE791E408
S11320000E94ED0880EB90E40E941B0884EF90E4AA
S11320100E94B30784EF90E40E941B0884EF90E4CD
S11320200E9485088CE091E40E94B30788E191E462
S11320300E941B088CE091E40E94850864E170E032
S113204086E090E00E94FE096CE070E082E190E09E
S11320500E94630A64E170E088E090E00E94C80A8C
S113206088EC91E40E94ED088AE291E40E94480918
S113207080EB91E40E94A3098CE091E40E941B0888
S113208066E470E08AE090E00E94FE0968E370E094
S113209085E090E00E94630A66E470E08BE090E0E3
S11320A00E94C80A84ED91E40E94ED0881E391E462
S11320B00E9448098CEB91E40E94A3096AE570E050
S11320C085E090E00E94630A8EE391E40E9448094F
S11320D00000DF91CF910895CF93DF93CDB7DEB7A2
S11320E06CE070E082E190E00E94630A84EF90E487
S11320F00E941B0888E191E40E941B088AE291E493
S11321000E9448090000DF91CF910895CF93DF9397
S1132110CDB7DEB784EF90E40E9485088CE091E4AB
S11321200E94850864E170E08BE090E00E94C80A98
S11321308FED91E40E94A3090000DF91CF910895EF
S1132140CF93DF93CDB7DEB784EF90E40E94850888
S11321508CE091E40E94850864E170E085E090E001
S11321600E94C80A8AEE91E40E94A3090000DF914C
S1132170CF910895CF93DF93CDB7DEB784EF90E48A
S11321800E9485088CE091E40E94850864E170E077
S11321908BE090E00E94C80A85EF91E40E94A309B5
S11321A00000DF91CF910895CF93DF93CDB7DEB7D1
S11321B084EF90E40E9485088CE091E40E948508F5
S11321C064E170E08BE090E00E94C80A80E092E451
S11321D00E94A3090000DF91CF910895CF93DF936C
S11321E0CDB7DEB784EF90E40E9485088CE091E4DB
S11321F00E94850864E170E08BE090E00E94C80AC8
S11322008CE092E40E94A3090000DF91CF9108952D
S1132210CF93DF93CDB7DEB784EF90E40E948508B7
S11322208CE091E40E94850864E170E08EE090E027
S11322300E94C80A87E192E40E94A3090000DF918A
S1132240CF910895CF93DF93CDB7DEB784EF90E4B9
S11322500E94B3078CE091E40E94B30764E170E04C
S11322608FE090E00E94FE0982E292E40E94ED0871
S11322700000DF91CF910895CF93DF93CDB7DEB700
S113228084EF90E40E9485088CE091E40E94850824
S11322906EE470E088E090E00E94C80A8DE292E467
S11322A00E94A3090000DF91CF910895CF93DF939B
S11322B0CDB7DEB784EF90E40E9485088CE091E40A
S11322C00E9485086EE470E088E090E00E94C80AED
S11322D086E392E40E94A3090000DF91CF91089560
S11322E00F931F93CF93DF93CDB7DEB7CC51D1407B
S11322F0CDBFDEBF0E94FC2C80E090E8A2E2B4E4F3
S11323008DA39EA3AFA3B8A720E030E04AEF54E426
S11323106DA17EA18FA198A50E942A64DC01CB0146
S113232089A79AA7ABA7BCA720E030E040E85FE309
S113233069A57AA58BA59CA50E94CD6288232CF45F
S113234081E090E08DA79EA73FC020E03FEF4FE7DC
S113235057E469A57AA58BA59CA50E942564181647
S11323604CF520E030E040E251E46DA17EA18FA164
S113237098A50E942A64DC01CB01BC01CD010E9416
S11323804463DC01CB018DA79EA70FC088EC90E0CD
S11323908FA798AB8FA598A90197F1F78FA798AB52
S11323A08DA59EA501978DA79EA78DA59EA5892B7A
S11323B069F714C069A57AA58BA59CA50E944463FE
S11323C0DC01CB018DA79EA78DA59EA589AB9AABF9
S11323D089A99AA90197F1F789AB9AAB80E094E0B7
S11323E0FC0180858093DE428091DE42882F90E05C
S11323F080729927892B11F00C94291F8EE0809309
S11324003A430C946B1E80913A43882F90E049E143
S1132410489F9001499F300D1124C90180930043C6
S11324209093014380E094E020E8FC0125838091AF
S1132430004390910143CC01A0E0B0E0BC01CD0188
S11324400E947363DC01CB0189839A83AB83BC83D1
S11324502BEA3AEA4AE250E469817A818B819C81D1
S11324600E942A64DC01CB018BAB9CABADABBEAB51
S113247089819A81AB81BC819C01AD01BC01CD01F4
S11324800E946162DC01CB018FAB98AFA9AFBAAFF8
S113249020E030E040E85FE36BA97CA98DA99EA908
S11324A00E94CD6288231CF481E08BAF0CC120E034
S11324B03FEF4FE757E46FA978AD89AD9AAD0E941D
S11324C0256418160CF0C1C020E030E04AE754E45B
S11324D069817A818B819C810E94D262DC01CB016B
S11324E08CAF9DAFAEAFBFAF8E01005C1F4F20E03D
S11324F030E04AEF54E46CAD7DAD8EAD9FAD0E94EB
S11325002A64DC01CB01F80180839183A283B38325
S1132510CE01805C9F4F20E030E040E85FE3FC01A7
S113252060817181828193810E94CD6288234CF401
S1132530CE018C5B9F4F21E030E0FC01208331838E
S113254069C0CE01805C9F4F20E03FEF4FE757E426
S1132550FC0160817181828193810E942564181637
S11325600CF046C020E030E040E251E46CAD7DADBB
S11325708EAD9FAD0E942A64DC01CB018E010C5B01
S11325801F4FBC01CD010E944463DC01CB01F80163
S11325908083918324C0CE018A5B9F4F28EC30E076
S11325A0FC0120833183CE018A5B9F4FFC01808133
S11325B091810197F1F79E012A5B3F4FF9018083D6
S11325C09183CE018C5B9F4F9E012C5B3F4FF901A1
S11325D02081318121503109FC0120833183CE01D6
S11325E08C5B9F4FFC0180819181892BA1F66BC08C
S11325F08E010C5B1F4FCE01805C9F4FFC016081FC
S11326007181828193810E944463DC01CB01F801D2
S113261080839183CE01885B9F4F9E012C5B3F4F4B
S1132620F90120813181FC0120833183CE01885B53
S11326309F4FFC01808191810197F1F79E01285BF6
S11326403F4FF901808391833EC020E030E04FE7A3
S113265053E46BA97CA98DA99EA90E942564181630
S11326604CF58E01065B1F4F6FA978AD89AD9AAD0D
S11326700E944463DC01CB01F80180839183CE0185
S1132680845B9F4F9E01265B3F4FF901208131817E
S1132690FC0120833183CE01845B9F4FFC01808148
S11326A091810197F1F79E01245B3F4FF9018083EB
S11326B091831CC06BA97CA98DA99EA90E94446327
S11326C0DC01CB018BAFCE01825B9F4F2BADFC01B4
S11326D02083CE01825B9F4FFC018081282F2A95A5
S11326E0F1F7CE01825B9F4FFC01208380E094E0F0
S11326F020E8FC01268380913A43843108F08DC19F
S113270080E098EBA8E8B7E48D839E83AF83B88715
S11327108E01015B1F4F2BEA3AEA4AE250E46D81D5
S11327207E818F8198850E942A64DC01CB01F801A7
S113273080839183A283B3838E010D5A1F4F8D81B1
S11327409E81AF81B8859C01AD01BC01CD010E9481
S11327506162DC01CB01F80180839183A283B3839E
S1132760CE01815B9F4F20E030E040E85FE3FC0155
S113277060817181828193810E94CD6288233CF4BF
S1132780CE01895A9F4F21E0FC0120832DC1CE0147
S11327908D5A9F4F20E03FEF4FE757E4FC016081E3
S11327A07181828193810E94256418160CF0CDC03A
S11327B020E030E04AE754E46D817E818F81988582
S11327C00E94D262DC01CB019E01285A3F4FF901DD
S11327D080839183A283B3838E01045A1F4FCE0159
S11327E0885A9F4F20E030E04AEF54E4FC016081B6
S11327F07181828193810E942A64DC01CB01F801FA
S113280080839183A283B383CE01845A9F4F20E0B7
S113281030E040E85FE3FC01608171818281938153
S11328200E94CD6288234CF4CE01805A9F4F21E050
S113283030E0FC01208331836DC0CE01845A9F4F68
S113284020E03FEF4FE757E4FC0160817181828112
S113285093810E94256418160CF04AC0CE01885A50
S11328609F4F20E030E040E251E4FC01608171813F
S1132870828193810E942A64DC01CB018E01005A7B
S11328801F4FBC01CD010E944463DC01CB01F80160
S11328908083918324C0CE018E599F4F28EC30E071
S11328A0FC0120833183CE018E599F4FFC0180812E
S11328B091810197F1F79E012E593F4FF9018083D1
S11328C09183CE01805A9F4F9E01205A3F4FF901B8
S11328D02081318121503109FC0120833183CE01D3
S11328E0805A9F4FFC0180819181892BA1F67CC085
S11328F08E01005A1F4FCE01845A9F4FFC01608104
S11329007181828193810E944463DC01CB01F801CF
S113291080839183CE018C599F4F9E01205A3F4F53
S1132920F90120813181FC0120833183CE018C594E
S11329309F4FFC01808191810197F1F79E012C59F1
S11329403F4FF901808391834FC0CE01815B9F4F3C
S113295020E030E04FE753E4FC0160817181828123
S113296093810E942564181674F58E010A591F4F2D
S1132970CE018D5A9F4FFC016081718182819381C8
S11329800E944463DC01CB01F80180839183CE0172
S113299088599F4F9E012A593F4FF9012081318167
S11329A0FC0120833183CE0188599F4FFC01808133
S11329B091810197F1F79E0128593F4FF9018083D6
S11329C091830C94661E8E01095A1F4FCE01815BC0
S11329D09F4FFC0160817181828193810E944463D5
S11329E0DC01CB01F8018083CE0186599F4F9E0103
S11329F0295A3F4FF9012081FC012083CE018659D9
S1132A009F4FFC018081282F2A95F1F7CE0186592A
S1132A109F4FFC0120830C94661E80913A438C31B5
S1132A2008F08DC180E098EEADE7B7E489879A8716
S1132A30AB87BC878E0105591F4F2BEA3AEA4AE25D
S1132A4050E469857A858B859C850E942A64DC0123
S1132A50CB01F80180839183A283B3838E01015952
S1132A601F4F89859A85AB85BC859C01AD01BC014E
S1132A70CD010E946162DC01CB01F8018083918366
S1132A80A283B383CE0185599F4F20E030E040E814
S1132A905FE3FC0160817181828193810E94CD6238
S1132AA088233CF4CE018D589F4F21E0FC01208304
S1132AB02DC1CE0181599F4F20E03FEF4FE757E4EE
S1132AC0FC0160817181828193810E9425641816C2
S1132AD00CF0CDC020E030E04AE754E469857A8503
S1132AE08B859C850E94D262DC01CB019E012C580F
S1132AF03F4FF90180839183A283B3838E010858E9
S1132B001F4FCE018C589F4F20E030E04AEF54E431
S1132B10FC0160817181828193810E942A64DC01BD
S1132B20CB01F80180839183A283B383CE018858BB
S1132B309F4F20E030E040E85FE3FC016081718159
S1132B40828193810E94CD6288234CF4CE01845803
S1132B509F4F21E030E0FC01208331836DC0CE0122
S1132B6088589F4F20E03FEF4FE757E4FC01608116
S1132B707181828193810E94256418160CF04AC0E9
S1132B80CE018C589F4F20E030E040E251E4FC013C
S1132B9060817181828193810E942A64DC01CB016E
S1132BA08E0104581F4FBC01CD010E944463DC0117
S1132BB0CB01F8018083918324C0CE0182589F4FBA
S1132BC028EC30E0FC0120833183CE0182589F4FF2
S1132BD0FC01808191810197F1F79E0122583F4FBA
S1132BE0F90180839183CE0184589F4F9E0124581C
S1132BF03F4FF9012081318121503109FC012083AB
S1132C003183CE0184589F4FFC0180819181892BAF
S1132C10A1F67CC08E0104581F4FCE0188589F4FE7
S1132C20FC0160817181828193810E944463DC0193
S1132C30CB01F80180839183CE0180589F4F9E0180
S1132C4024583F4FF90120813181FC0120833183D5
S1132C50CE0180589F4FFC01808191810197F1F74B
S1132C609E0120583F4FF901808391834FC0CE01CC
S1132C7085599F4F20E030E04FE753E4FC01608129
S1132C807181828193810E942564181674F58E01E6
S1132C900E571F4FCE0181599F4FFC0160817181F6
S1132CA0828193810E944463DC01CB01F80180831B
S1132CB09183CE018C579F4F9E012E573F4FF901B0
S1132CC020813181FC0120833183CE018C579F4FB9
S1132CD0FC01808191810197F1F79E012C573F4FB0
S1132CE0F901808391830C94661E8E010D581F4F49
S1132CF0CE0185599F4FFC0160817181828193814E
S1132D000E944463DC01CB01F8018083CE018A5721
S1132D109F4F9E012D583F4FF9012081FC012083D4
S1132D20CE018A579F4FFC018081282F2A95F1F705
S1132D30CE018A579F4FFC0120830C94661E80911C
S1132D403A43843208F08BC180E090E6AAE6B7E407
S1132D508D879E87AF87B88B8E0109571F4F2BEA4B
S1132D603AEA4AE250E46D857E858F8598890E940F
S1132D702A64DC01CB01F80180839183A283B383AD
S1132D808E0105571F4F8D859E85AF85B8899C019F
S1132D90AD01BC01CD010E946162DC01CB01F801EF
S1132DA080839183A283B383CE0189579F4F20E010
S1132DB030E040E85FE3FC016081718182819381AE
S1132DC00E94CD6288233CF4CE0181579F4F21E0BD
S1132DD0FC0120832CC1CE0185579F4F20E03FEF9B
S1132DE04FE757E4FC0160817181828193810E94E5
S1132DF0256418160CF0CDC020E030E04AE754E416
S1132E006D857E858F8598890E94D262DC01CB0115
S1132E109E0120573F4FF90180839183A283B3839E
S1132E208E010C561F4FCE0180579F4F20E030E09B
S1132E304AEF54E4FC0160817181828193810E9494
S1132E402A64DC01CB01F80180839183A283B383DC
S1132E50CE018C569F4F20E030E040E85FE3FC0158
S1132E6060817181828193810E94CD6288234CF4B8
S1132E70CE0188569F4F21E030E0FC01208331834E
S1132E806DC0CE018C569F4F20E03FEF4FE757E4D3
S1132E90FC0160817181828193810E9425641816EE
S1132EA00CF04AC0CE0180579F4F20E030E040E252
S1132EB051E4FC0160817181828193810E942A64C2
S1132EC0DC01CB018E0108561F4FBC01CD010E94CD
S1132ED04463DC01CB01F8018083918324C0CE01DB
S1132EE086569F4F28EC30E0FC0120833183CE01CD
S1132EF086569F4FFC01808191810197F1F79E01D5
S1132F0026563F4FF90180839183CE0188569F4F07
S1132F109E0128563F4FF90120813181215031090A
S1132F20FC0120833183CE0188569F4FFC018081B0
S1132F309181892BA1F67BC08E0108561F4FCE01CB
S1132F408C569F4FFC0160817181828193810E9424
S1132F504463DC01CB01F80180839183CE01845664
S1132F609F4F9E0128563F4FF90120813181FC017A
S1132F7020833183CE0184569F4FFC01808191814F
S1132F800197F1F79E0124563F4FF9018083918305
S1132F904EC0CE0189579F4F20E030E04FE753E405
S1132FA0FC0160817181828193810E9425641816DD
S1132FB06CF58E0102561F4FCE0185579F4FFC01C1
S1132FC060817181828193810E944463DC01CB0121
S1132FD0F80180839183CE0180569F4F9E01225633
S1132FE03F4FF90120813181FC0120833183CE01DF
S1132FF080569F4FFC01808191810197F1F79E01DA
S113300020563F4FF9018083918360C68E0101579A
S11330101F4FCE0189579F4FFC01608171818281CE
S113302093810E944463DC01CB01F8018083CE01CB
S11330308E559F4F9E0121573F4FF9012081FC017E
S11330402083CE018E559F4FFC018081282F2A9525
S1133050F1F7CE018E559F4FFC01208337C6809136
S11330603A438A3208F08BC180E098EDA6E5B7E4D4
S1133070898B9A8BAB8BBC8B8E010D551F4F2BEA22
S11330803AEA4AE250E469897A898B899C890E94E8
S11330902A64DC01CB01F80180839183A283B3838A
S11330A08E0109551F4F89899A89AB89BC899C0176
S11330B0AD01BC01CD010E946162DC01CB01F801CC
S11330C080839183A283B383CE018D559F4F20E0EB
S11330D030E040E85FE3FC0160817181828193818B
S11330E00E94CD6288233CF4CE0185559F4F21E098
S11330F0FC0120832CC1CE0189559F4F20E03FEF76
S11331004FE757E4FC0160817181828193810E94C1
S1133110256418160CF0CDC020E030E04AE754E4F2
S113312069897A898B899C890E94D262DC01CB01EE
S11331309E0124553F4FF90180839183A283B38379
S11331408E0100551F4FCE0184559F4F20E030E083
S11331504AEF54E4FC0160817181828193810E9471
S11331602A64DC01CB01F80180839183A283B383B9
S1133170CE0180559F4F20E030E040E85FE3FC0142
S113318060817181828193810E94CD6288234CF495
S1133190CE018C549F4F21E030E0FC012083318329
S11331A06DC0CE0180559F4F20E03FEF4FE757E4BD
S11331B0FC0160817181828193810E9425641816CB
S11331C00CF04AC0CE0184559F4F20E030E040E22D
S11331D051E4FC0160817181828193810E942A649F
S11331E0DC01CB018E010C541F4FBC01CD010E94A8
S11331F04463DC01CB01F8018083918324C0CE01B8
S11332008A549F4F28EC30E0FC0120833183CE01A7
S11332108A549F4FFC01808191810197F1F79E01AF
S11332202A543F4FF90180839183CE018C549F4FE0
S11332309E012C543F4FF9012081318121503109E5
S1133240FC0120833183CE018C549F4FFC0180818B
S11332509181892BA1F67BC08E010C541F4FCE01A6
S113326080559F4FFC0160817181828193810E940E
S11332704463DC01CB01F80180839183CE0188543F
S11332809F4F9E012C543F4FF90120813181FC0155
S113329020833183CE0188549F4FFC01808191812A
S11332A00197F1F79E0128543F4FF90180839183E0
S11332B04EC0CE018D559F4F20E030E04FE753E4E0
S11332C0FC0160817181828193810E9425641816BA
S11332D06CF58E0106541F4FCE0189559F4FFC019A
S11332E060817181828193810E944463DC01CB01FE
S11332F0F80180839183CE0184549F4F9E0126540C
S11333003F4FF90120813181FC0120833183CE01BB
S113331084549F4FFC01808191810197F1F79E01B4
S113332024543F4FF90180839183D0C48E01055505
S11333301F4FCE018D559F4FFC01608171818281A9
S113334093810E944463DC01CB01F8018083CE01A8
S113335082549F4F9E0125553F4FF9012081FC0166
S11333602083CE0182549F4FFC018081282F2A950F
S1133370F1F7CE0182549F4FFC012083A7C48091B2
S11333803A43823308F08BC180E090E5A3E4B7E4CC
S11333908D8B9E8BAF8BB88F8E0101541F4F2BEA00
S11333A03AEA4AE250E46D897E898F89988D0E94B9
S11333B02A64DC01CB01F80180839183A283B38367
S11333C08E010D531F4F8D899E89AF89B88D9C0145
S11333D0AD01BC01CD010E946162DC01CB01F801A9
S11333E080839183A283B383CE0181549F4F20E0D5
S11333F030E040E85FE3FC01608171818281938168
S11334000E94CD6288233CF4CE0189539F4F21E072
S1133410FC0120832CC1CE018D539F4F20E03FEF50
S11334204FE757E4FC0160817181828193810E949E
S1133430256418160CF0CDC020E030E04AE754E4CF
S11334406D897E898F89988D0E94D262DC01CB01BF
S11334509E0128533F4FF90180839183A283B38354
S11334608E0104531F4FCE0188539F4F20E030E05C
S11334704AEF54E4FC0160817181828193810E944E
S11334802A64DC01CB01F80180839183A283B38396
S1133490CE0184539F4F20E030E040E85FE3FC011D
S11334A060817181828193810E94CD6288234CF472
S11334B0CE0180539F4F21E030E0FC012083318313
S11334C06DC0CE0184539F4F20E03FEF4FE757E498
S11334D0FC0160817181828193810E9425641816A8
S11334E00CF04AC0CE0188539F4F20E030E040E208
S11334F051E4FC0160817181828193810E942A647C
S1133500DC01CB018E0100531F4FBC01CD010E9491
S11335104463DC01CB01F8018083918324C0CE0194
S11335208E529F4F28EC30E0FC0120833183CE0182
S11335308E529F4FFC01808191810197F1F79E018A
S11335402E523F4FF90180839183CE0180539F4FC8
S11335509E0120533F4FF9012081318121503109CF
S1133560FC0120833183CE0180539F4FFC01808175
S11335709181892BA1F67BC08E0100531F4FCE0190
S113358084539F4FFC0160817181828193810E94E9
S11335904463DC01CB01F80180839183CE018C521A
S11335A09F4F9E0120533F4FF90120813181FC013F
S11335B020833183CE018C529F4FFC018081918105
S11335C00197F1F79E012C523F4FF90180839183BB
S11335D04EC0CE0181549F4F20E030E04FE753E4CA
S11335E0FC0160817181828193810E942564181697
S11335F06CF58E010A521F4FCE018D539F4FFC0173
S113360060817181828193810E944463DC01CB01DA
S1133610F80180839183CE0188529F4F9E012A52E4
S11336203F4FF90120813181FC0120833183CE0198
S113363088529F4FFC01808191810197F1F79E018F
S113364028523F4FF9018083918340C38E0109536F
S11336501F4FCE0181549F4FFC0160817181828193
S113366093810E944463DC01CB01F8018083CE0185
S113367086529F4F9E0129533F4FF9012081FC013F
S11336802083CE0186529F4FFC018081282F2A95EA
S1133690F1F7CE0186529F4FFC01208317C380911E
S11336A03A438C3308F08BC180E098ECAFE2B7E486
S11336B0898F9A8FAB8FBC8F8E0105521F4F2BEAD7
S11336C03AEA4AE250E4698D7A8D8B8D9C8D0E9492
S11336D02A64DC01CB01F80180839183A283B38344
S11336E08E0101521F4F898D9A8DAB8DBC8D9C012B
S11336F0AD01BC01CD010E946162DC01CB01F80186
S113370080839183A283B383CE0185529F4F20E0AF
S113371030E040E85FE3FC01608171818281938144
S11337200E94CD6288233CF4CE018D519F4F21E04D
S1133730FC0120832CC1CE0181529F4F20E03FEF3A
S11337404FE757E4FC0160817181828193810E947B
S1133750256418160CF0CDC020E030E04AE754E4AC
S1133760698D7A8D8B8D9C8D0E94D262DC01CB0198
S11337709E012C513F4FF90180839183A283B3832F
S11337808E0108511F4FCE018C519F4F20E030E035
S11337904AEF54E4FC0160817181828193810E942B
S11337A02A64DC01CB01F80180839183A283B38373
S11337B0CE0188519F4F20E030E040E85FE3FC01F8
S11337C060817181828193810E94CD6288234CF44F
S11337D0CE0184519F4F21E030E0FC0120833183EE
S11337E06DC0CE0188519F4F20E03FEF4FE757E473
S11337F0FC0160817181828193810E942564181685
S11338000CF04AC0CE018C519F4F20E030E040E2E2
S113381051E4FC0160817181828193810E942A6458
S1133820DC01CB018E0104511F4FBC01CD010E946C
S11338304463DC01CB01F8018083918324C0CE0171
S113384082519F4F28EC30E0FC0120833183CE016C
S113385082519F4FFC01808191810197F1F79E0174
S113386022513F4FF90180839183CE0184519F4FB0
S11338709E0124513F4FF9012081318121503109AA
S1133880FC0120833183CE0184519F4FFC01808150
S11338909181892BA1F67BC08E0104511F4FCE016B
S11338A088519F4FFC0160817181828193810E94C4
S11338B04463DC01CB01F80180839183CE01805104
S11338C09F4F9E0124513F4FF90120813181FC011A
S11338D020833183CE0180519F4FFC0180819181EF
S11338E00197F1F79E0120513F4FF90180839183A5
S11338F04EC0CE0185529F4F20E030E04FE753E4A5
S1133900FC0160817181828193810E942564181673
S11339106CF58E010E501F4FCE0181529F4FFC015A
S113392060817181828193810E944463DC01CB01B7
S1133930F80180839183CE018C509F4F9E012E50BD
S11339403F4FF90120813181FC0120833183CE0175
S11339508C509F4FFC01808191810197F1F79E016A
S11339602C503F4FF90180839183B0C18E010D51DA
S11339701F4FCE0185529F4FFC016081718182816E
S113398093810E944463DC01CB01F8018083CE0162
S11339908A509F4F9E012D513F4FF9012081FC0118
S11339A02083CE018A509F4FFC018081282F2A95C5
S11339B0F1F7CE018A509F4FFC01208387C180E03C
S11339C090E5A3E4B7E48D8F9E8FAF8FB8A38E01EB
S11339D009501F4F2BEA3AEA4AE250E46D8D7E8D7E
S11339E08F8D98A10E942A64DC01CB01F8018083A9
S11339F09183A283B3838E0105501F4F8D8D9E8DBD
S1133A00AF8DB8A19C01AD01BC01CD010E946162E2
S1133A10DC01CB01F80180839183A283B383CE01BF
S1133A2089509F4F20E030E040E85FE3FC01608173
S1133A307181828193810E94CD6288233CF4CE01FE
S1133A4081509F4F21E0FC01208329C1CE01855084
S1133A509F4F20E03FEF4FE757E4FC016081718105
S1133A60828193810E94256418160CF0CAC020E05C
S1133A7030E04AE754E46D8D7E8D8F8D98A10E94CD
S1133A80D262DC01CB019E013395F90180839183DD
S1133A90A283B3838E010C5F1E4FCE01939520E069
S1133AA030E04AEF54E4FC016081718182819381AA
S1133AB00E942A64DC01CB01F80180839183A283F4
S1133AC0B383CE018C5F9E4F20E030E040E85FE39B
S1133AD0FC0160817181828193810E94CD6288237F
S1133AE04CF4CE01885F9E4F21E030E0FC0120833E
S1133AF031836CC0CE018C5F9E4F20E03FEF4FE7D7
S1133B0057E4FC0160817181828193810E94256464
S1133B1018160CF049C0CE01939520E030E040E245
S1133B2051E4FC0160817181828193810E942A6445
S1133B30DC01CB018E01085F1E4FBC01CD010E9448
S1133B404463DC01CB01F8018083918324C0CE015E
S1133B50865F9E4F28EC30E0FC0120833183CE0148
S1133B60865F9E4FFC01808191810197F1F79E0150
S1133B70265F3E4FF90180839183CE01885F9E4F7B
S1133B809E01285F3E4FF901208131812150310986
S1133B90FC0120833183CE01885F9E4FFC0180812C
S1133BA09181892BA1F67BC08E01085F1E4FCE0147
S1133BB08C5F9E4FFC0160817181828193810E94A0
S1133BC04463DC01CB01F80180839183CE01845FDF
S1133BD09E4F9E01285F3E4FF90120813181FC01F7
S1133BE020833183CE01845F9E4FFC0180819181CB
S1133BF00197F1F79E01245F3E4FF9018083918381
S1133C004EC0CE0189509F4F20E030E04FE753E48F
S1133C10FC0160817181828193810E942564181660
S1133C206CF58E01025F1E4FCE0185509F4FFC0143
S1133C3060817181828193810E944463DC01CB01A4
S1133C40F80180839183CE01805F9E4F9E01225FA5
S1133C503E4FF90120813181FC0120833183CE0163
S1133C60805F9E4FFC01808191810197F1F79E0155
S1133C70205F3E4FF9018083918328C08E0101505B
S1133C801F4FCE0189509F4FFC0160817181828159
S1133C9093810E944463DC01CB01F8018083CE014F
S1133CA08E5E9E4F9E0121503F4FF9012081FC0101
S1133CB02083CE018E5E9E4FFC018081282F2A95A1
S1133CC0F1F7CE018E5E9E4FFC01208380913A4332
S1133CD08F5F80933A4380913A43873410F40C9475
S1133CE0031280E090E0A0E2B1E489A39AA3ABA31D
S1133CF0BCA38E010D5E1E4F20E030E04AEF54E479
S1133D0069A17AA18BA19CA10E942A64DC01CB0148
S1133D10F80180839183A283B383CE018D5E9E4F8D
S1133D2020E030E040E85FE3FC0160817181828142
S1133D3093810E94CD6288234CF4CE01895E9E4F0C
S1133D4021E030E0FC012083318369C0CE018D5E27
S1133D509E4F20E03FEF4FE757E4FC016081718103
S1133D60828193810E94256418160CF046C020E0DD
S1133D7030E040E251E469A17AA18BA19CA10E94A8
S1133D802A64DC01CB018E01095E1E4FBC01CD010A
S1133D900E944463DC01CB01F8018083918324C039
S1133DA0CE01875E9E4F28EC30E0FC0120833183F6
S1133DB0CE01875E9E4FFC01808191810197F1F7CE
S1133DC09E01275E3E4FF90180839183CE01895E77
S1133DD09E4F9E01295E3E4FF90120813181215081
S1133DE03109FC0120833183CE01895E9E4FFC01A1
S1133DF080819181892BA1F62CC08E01095E1E4F12
S1133E00CE018D5E9E4FFC01608171818281938120
S1133E100E944463DC01CB01F80180839183CE01CD
S1133E20855E9E4F9E01295E3E4FF90120813181BE
S1133E30FC0120833183CE01855E9E4FFC0180818D
S1133E4091810197F1F79E01255E3E4FF901808330
S1133E5091830000C45EDE4FCDBFDEBFDF91CF9102
S1133E601F910F9108950F931F93CF93DF93CDB7B5
S1133E70DEB7CC51D140CDBFDEBF0E94FC2C80E028
S1133E8090E8A2E2B4E48DA39EA3AFA3B8A720E078
S1133E9030E04AEF54E46DA17EA18FA198A50E9461
S1133EA02A64DC01CB0189A79AA7ABA7BCA720E0B1
S1133EB030E040E85FE369A57AA58BA59CA50E9444
S1133EC0CD6288232CF481E090E08DA79EA73FC0AB
S1133ED020E03FEF4FE757E469A57AA58BA59CA5A1
S1133EE00E94256418164CF520E030E040E251E4CD
S1133EF06DA17EA18FA198A50E942A64DC01CB014B
S1133F00BC01CD010E944463DC01CB018DA79EA7B7
S1133F100FC088EC90E08FA798AB8FA598A9019764
S1133F20F1F78FA798AB8DA59EA501978DA79EA7A6
S1133F308DA59EA5892B69F714C069A57AA58BA5C3
S1133F409CA50E944463DC01CB018DA79EA78DA58F
S1133F509EA589AB9AAB89A99AA90197F1F789AB78
S1133F609AAB80E094E0FC0180858093DE428091EE
S1133F70DE42882F90E080729927892B11F40C94EB
S1133F80F22C8EE080933A430C94342C80913A4383
S1133F90882F90E024E530E0A901481B590BCA01A1
S1133FA049E1489F9001499F300D1124C901809334
S1133FB000439093014380E094E020E8FC012583D2
S1133FC08091004390910143CC01A0E0B0E0BC019A
S1133FD0CD010E947363DC01CB0189839A83AB8397
S1133FE0BC832BEA3AEA4AE250E469817A818B8104
S1133FF09C810E942A64DC01CB018BAB9CABADABF2
S1134000BEAB89819A81AB81BC819C01AD01BC01AD
S1134010CD010E946162DC01CB018FAB98AFA9AFE7
S1134020BAAF20E030E040E85FE36BA97CA98DA93A
S11340309EA90E94CD6288231CF481E08BAF0CC141
S113404020E03FEF4FE757E46FA978AD89AD9AAD13
S11340500E94256418160CF0C1C020E030E04AE745
S113406054E469817A818B819C810E94D262DC0153
S1134070CB018CAF9DAFAEAFBFAF8E01005C1F4FC5
S113408020E030E04AEF54E46CAD7DAD8EAD9FADE1
S11340900E942A64DC01CB01F80180839183A2830E
S11340A0B383CE01805C9F4F20E030E040E85FE3C3
S11340B0FC0160817181828193810E94CD62882399
S11340C04CF4CE018C5B9F4F21E030E0FC01208357
S11340D0318369C0CE01805C9F4F20E03FEF4FE702
S11340E057E4FC0160817181828193810E9425647F
S11340F018160CF046C020E030E040E251E46CAD0C
S11341007DAD8EAD9FAD0E942A64DC01CB018E0192
S11341100C5B1F4FBC01CD010E944463DC01CB0149
S1134120F8018083918324C0CE018A5B9F4F28ECE1
S113413030E0FC0120833183CE018A5B9F4FFC0178
S1134140808191810197F1F79E012A5B3F4FF9012C
S113415080839183CE018C5B9F4F9E012C5B3F4FEC
S1134160F9012081318121503109FC0120833183FF
S1134170CE018C5B9F4FFC0180819181892BA1F63C
S11341806BC08E010C5B1F4FCE01805C9F4FFC0106
S113419060817181828193810E944463DC01CB013F
S11341A0F80180839183CE01885B9F4F9E012C5B35
S11341B03F4FF90120813181FC0120833183CE01FD
S11341C0885B9F4FFC01808191810197F1F79E01EB
S11341D0285B3F4FF901808391833EC020E030E0AB
S11341E04FE753E46BA97CA98DA99EA90E9425647D
S11341F018164CF58E01065B1F4F6FA978AD89AD7B
S11342009AAD0E944463DC01CB01F8018083918361
S1134210CE01845B9F4F9E01265B3F4FF9012081B5
S11342203181FC0120833183CE01845B9F4FFC01EB
S1134230808191810197F1F79E01245B3F4FF90141
S1134240808391831CC06BA97CA98DA99EA90E941F
S11342504463DC01CB018BAFCE01825B9F4F2BAD5E
S1134260FC012083CE01825B9F4FFC018081282FBB
S11342702A95F1F7CE01825B9F4FFC01208380E0F9
S113428094E020E8FC01268380913A43843108F0CD
S11342908DC180E098EBA8E8B7E48D839E83AF835B
S11342A0B8878E01015B1F4F2BEA3AEA4AE250E4D9
S11342B06D817E818F8198850E942A64DC01CB0107
S11342C0F80180839183A283B3838E010D5A1F4F1B
S11342D08D819E81AF81B8859C01AD01BC01CD016A
S11342E00E946162DC01CB01F80180839183A28387
S11342F0B383CE01815B9F4F20E030E040E85FE371
S1134300FC0160817181828193810E94CD62882346
S11343103CF4CE01895A9F4F21E0FC0120832DC13A
S1134320CE018D5A9F4F20E03FEF4FE757E4FC0149
S113433060817181828193810E94256418160CF03A
S1134340CDC020E030E04AE754E46D817E818F8166
S113435098850E94D262DC01CB019E01285A3F4F0E
S1134360F90180839183A283B3838E01045A1F4F82
S1134370CE01885A9F4F20E030E04AEF54E4FC011C
S113438060817181828193810E942A64DC01CB0166
S1134390F80180839183A283B383CE01845A9F4F13
S11343A020E030E040E85FE3FC01608171818281BC
S11343B093810E94CD6288234CF4CE01805A9F4F92
S11343C021E030E0FC01208331836DC0CE01845AAA
S11343D09F4F20E03FEF4FE757E4FC01608171817C
S11343E0828193810E94256418160CF04AC0CE0184
S11343F0885A9F4F20E030E040E251E4FC016081A4
S11344007181828193810E942A64DC01CB018E0137
S1134410005A1F4FBC01CD010E944463DC01CB0153
S1134420F8018083918324C0CE018E599F4F28ECDC
S113443030E0FC0120833183CE018E599F4FFC0173
S1134440808191810197F1F79E012E593F4FF90127
S113445080839183CE01805A9F4F9E01205A3F4F03
S1134460F9012081318121503109FC0120833183FC
S1134470CE01805A9F4FFC0180819181892BA1F646
S11344807CC08E01005A1F4FCE01845A9F4FFC01FD
S113449060817181828193810E944463DC01CB013C
S11344A0F80180839183CE018C599F4F9E01205A3D
S11344B03F4FF90120813181FC0120833183CE01FA
S11344C08C599F4FFC01808191810197F1F79E01E6
S11344D02C593F4FF901808391834FC0CE01815BFA
S11344E09F4F20E030E04FE753E4FC01608171818D
S11344F0828193810E942564181674F58E010A59ED
S11345001F4FCE018D5A9F4FFC01608171818281C2
S113451093810E944463DC01CB01F8018083918381
S1134520CE0188599F4F9E012A593F4FF90120819E
S11345303181FC0120833183CE0188599F4FFC01D6
S1134540808191810197F1F79E0128593F4FF9012C
S1134550808391830C942F2C8E01095A1F4FCE0116
S1134560815B9F4FFC0160817181828193810E94F4
S11345704463DC01CB01F8018083CE0186599F4F4F
S11345809E01295A3F4FF9012081FC012083CE016D
S113459086599F4FFC018081282F2A95F1F7CE017F
S11345A086599F4FFC0120830C942F2C80913A4311
S11345B0893108F08DC180E098EEADE7B7E48987D2
S11345C09A87AB87BC878E0105591F4F2BEA3AEABD
S11345D04AE250E469857A858B859C850E942A6429
S11345E0DC01CB01F80180839183A283B3838E0124
S11345F001591F4F89859A85AB85BC859C01AD0106
S1134600BC01CD010E946162DC01CB01F801808311
S11346109183A283B383CE0185599F4F20E030E07C
S113462040E85FE3FC0160817181828193810E9493
S1134630CD6288233CF4CE018D589F4F21E0FC01CC
S113464020832DC1CE0181599F4F20E03FEF4FE7DA
S113465057E4FC0160817181828193810E94256409
S113466018160CF0CDC020E030E04AE754E4698528
S11346707A858B859C850E94D262DC01CB019E01E8
S11346802C583F4FF90180839183A283B3838E0119
S113469008581F4FCE018C589F4F20E030E04AEF5E
S11346A054E4FC0160817181828193810E942A64B7
S11346B0DC01CB01F80180839183A283B383CE0113
S11346C088589F4F20E030E040E85FE3FC016081C0
S11346D07181828193810E94CD6288234CF4CE0142
S11346E084589F4F21E030E0FC01208331836DC06A
S11346F0CE0188589F4F20E03FEF4FE757E4FC017D
S113470060817181828193810E94256418160CF066
S11347104AC0CE018C589F4F20E030E040E251E483
S1134720FC0160817181828193810E942A64DC0191
S1134730CB018E0104581F4FBC01CD010E9444637C
S1134740DC01CB01F8018083918324C0CE0182581F
S11347509F4F28EC30E0FC0120833183CE01825846
S11347609F4FFC01808191810197F1F79E012258AE
S11347703F4FF90180839183CE0184589F4F9E015E
S113478024583F4FF9012081318121503109FC0126
S113479020833183CE0184589F4FFC018081918115
S11347A0892BA1F67CC08E0104581F4FCE01885876
S11347B09F4FFC0160817181828193810E944463D7
S11347C0DC01CB01F80180839183CE0180589F4F97
S11347D09E0124583F4FF90120813181FC0120833F
S11347E03183CE0180589F4FFC01808191810197D4
S11347F0F1F79E0120583F4FF901808391834FC008
S1134800CE0185599F4F20E030E04FE753E4FC018F
S113481060817181828193810E942564181674F5E8
S11348208E010E571F4FCE0181599F4FFC016081AD
S11348307181828193810E944463DC01CB01F80180
S113484080839183CE018C579F4F9E012E573F4FFB
S1134850F90120813181FC0120833183CE018C5701
S11348609F4FFC01808191810197F1F79E012C57A4
S11348703F4FF901808391830C942F2C8E010D58A6
S11348801F4FCE0185599F4FFC0160817181828148
S113489093810E944463DC01CB01F8018083CE0143
S11348A08A579F4F9E012D583F4FF9012081FC01EB
S11348B02083CE018A579F4FFC018081282F2A959F
S11348C0F1F7CE018A579F4FFC0120830C942F2CC3
S11348D080913A438E3108F08BC180E090E9A2E6E2
S11348E0B7E48D879E87AF87B88B8E0109571F4F1A
S11348F02BEA3AEA4AE250E46D857E858F859889F1
S11349000E942A64DC01CB01F80180839183A28395
S1134910B3838E0105571F4F8D859E85AF85B8895A
S11349209C01AD01BC01CD010E946162DC01CB019F
S1134930F80180839183A283B383CE0189579F4F6B
S113494020E030E040E85FE3FC0160817181828116
S113495093810E94CD6288233CF4CE0181579F4FFE
S113496021E0FC0120832CC1CE0185579F4F20E01C
S11349703FEF4FE757E4FC016081718182819381AD
S11349800E94256418160CF0CDC020E030E04AE700
S113499054E46D857E858F8598890E94D262DC01FE
S11349A0CB019E0120573F4FF90180839183A2835D
S11349B0B3838E010C561F4FCE0180579F4F20E0CA
S11349C030E04AEF54E4FC0160817181828193817B
S11349D00E942A64DC01CB01F80180839183A283C5
S11349E0B383CE018C569F4F20E030E040E85FE374
S11349F0FC0160817181828193810E94CD62882350
S1134A004CF4CE0188569F4F21E030E0FC01208316
S1134A1031836DC0CE018C569F4F20E03FEF4FE7AE
S1134A2057E4FC0160817181828193810E94256435
S1134A3018160CF04AC0CE0180579F4F20E030E09A
S1134A4040E251E4FC0160817181828193810E9482
S1134A502A64DC01CB018E0108561F4FBC01CD0135
S1134A600E944463DC01CB01F8018083918324C05C
S1134A70CE0186569F4F28EC30E0FC012083318321
S1134A80CE0186569F4FFC01808191810197F1F7F9
S1134A909E0126563F4FF90180839183CE018856AB
S1134AA09F4F9E0128563F4FF901208131812150AB
S1134AB03109FC0120833183CE0188569F4FFC01CC
S1134AC080819181892BA1F67BC08E0108561F4FEE
S1134AD0CE018C569F4FFC0160817181828193814C
S1134AE00E944463DC01CB01F80180839183CE01F1
S1134AF084569F4F9E0128563F4FF90120813181F2
S1134B00FC0120833183CE0184569F4FFC018081B8
S1134B1091810197F1F79E0124563F4FF90180835B
S1134B2091834EC0CE0189579F4F20E030E04FE77C
S1134B3053E4FC0160817181828193810E94256428
S1134B4018166CF58E0102561F4FCE0185579F4FE4
S1134B50FC0160817181828193810E944463DC0144
S1134B60CB01F80180839183CE0180569F4F9E0133
S1134B7022563F4FF90120813181FC01208331838A
S1134B80CE0180569F4FFC01808191810197F1F7FE
S1134B909E0120563F4FF9018083918360C68E01A8
S1134BA001571F4FCE0189579F4FFC0160817181CE
S1134BB0828193810E944463DC01CB01F8018083EC
S1134BC0CE018E559F4F9E0121573F4FF901208101
S1134BD0FC012083CE018E559F4FFC018081282F3C
S1134BE02A95F1F7CE018E559F4FFC01208337C6DD
S1134BF080913A43883208F08BC180E090E5A3E4C9
S1134C00B7E4898B9A8BAB8BBC8B8E010D551F4FF0
S1134C102BEA3AEA4AE250E469897A898B899C89C9
S1134C200E942A64DC01CB01F80180839183A28372
S1134C30B3838E0109551F4F89899A89AB89BC8931
S1134C409C01AD01BC01CD010E946162DC01CB017C
S1134C50F80180839183A283B383CE018D559F4F46
S1134C6020E030E040E85FE3FC01608171818281F3
S1134C7093810E94CD6288233CF4CE0185559F4FD9
S1134C8021E0FC0120832CC1CE0189559F4F20E0F7
S1134C903FEF4FE757E4FC0160817181828193818A
S1134CA00E94256418160CF0CDC020E030E04AE7DD
S1134CB054E469897A898B899C890E94D262DC01D7
S1134CC0CB019E0124553F4FF90180839183A28338
S1134CD0B3838E0100551F4FCE0184559F4F20E0B2
S1134CE030E04AEF54E4FC01608171818281938158
S1134CF00E942A64DC01CB01F80180839183A283A2
S1134D00B383CE0180559F4F20E030E040E85FE35D
S1134D10FC0160817181828193810E94CD6288232C
S1134D204CF4CE018C549F4F21E030E0FC012083F1
S1134D3031836DC0CE0180559F4F20E03FEF4FE798
S1134D4057E4FC0160817181828193810E94256412
S1134D5018160CF04AC0CE0184559F4F20E030E075
S1134D6040E251E4FC0160817181828193810E945F
S1134D702A64DC01CB018E010C541F4FBC01CD0110
S1134D800E944463DC01CB01F8018083918324C039
S1134D90CE018A549F4F28EC30E0FC0120833183FC
S1134DA0CE018A549F4FFC01808191810197F1F7D4
S1134DB09E012A543F4FF90180839183CE018C5484
S1134DC09F4F9E012C543F4FF90120813181215086
S1134DD03109FC0120833183CE018C549F4FFC01A7
S1134DE080819181892BA1F67BC08E010C541F4FC9
S1134DF0CE0180559F4FFC01608171818281938136
S1134E000E944463DC01CB01F80180839183CE01CD
S1134E1088549F4F9E012C543F4FF90120813181CA
S1134E20FC0120833183CE0188549F4FFC01808193
S1134E3091810197F1F79E0128543F4FF901808336
S1134E4091834EC0CE018D559F4F20E030E04FE757
S1134E5053E4FC0160817181828193810E94256405
S1134E6018166CF58E0106541F4FCE0189559F4FBD
S1134E70FC0160817181828193810E944463DC0121
S1134E80CB01F80180839183CE0184549F4F9E010E
S1134E9026543F4FF90120813181FC012083318365
S1134EA0CE0184549F4FFC01808191810197F1F7D9
S1134EB09E0124543F4FF90180839183D0C48E0115
S1134EC005551F4FCE018D559F4FFC0160817181A7
S1134ED0828193810E944463DC01CB01F8018083C9
S1134EE0CE0182549F4F9E0125553F4FF9012081E9
S1134EF0FC012083CE0182549F4FFC018081282F26
S1134F002A95F1F7CE0182549F4FFC012083A7C458
S1134F1080913A43823308F08BC180E090E4ACE1A5
S1134F20B7E48D8B9E8BAF8BB88F8E0101541F4FCE
S1134F302BEA3AEA4AE250E46D897E898F89988D9A
S1134F400E942A64DC01CB01F80180839183A2834F
S1134F50B3838E010D531F4F8D899E89AF89B88D00
S1134F609C01AD01BC01CD010E946162DC01CB0159
S1134F70F80180839183A283B383CE0181549F4F30
S1134F8020E030E040E85FE3FC01608171818281D0
S1134F9093810E94CD6288233CF4CE0189539F4FB4
S1134FA021E0FC0120832CC1CE018D539F4F20E0D2
S1134FB03FEF4FE757E4FC01608171818281938167
S1134FC00E94256418160CF0CDC020E030E04AE7BA
S1134FD054E46D897E898F89988D0E94D262DC01A8
S1134FE0CB019E0128533F4FF90180839183A28313
S1134FF0B3838E0104531F4FCE0188539F4F20E08B
S113500030E04AEF54E4FC01608171818281938134
S11350100E942A64DC01CB01F80180839183A2837E
S1135020B383CE0184539F4F20E030E040E85FE338
S1135030FC0160817181828193810E94CD62882309
S11350404CF4CE0180539F4F21E030E0FC012083DB
S113505031836DC0CE0184539F4F20E03FEF4FE773
S113506057E4FC0160817181828193810E942564EF
S113507018160CF04AC0CE0188539F4F20E030E050
S113508040E251E4FC0160817181828193810E943C
S11350902A64DC01CB018E0100531F4FBC01CD01FA
S11350A00E944463DC01CB01F8018083918324C016
S11350B0CE018E529F4F28EC30E0FC0120833183D7
S11350C0CE018E529F4FFC01808191810197F1F7AF
S11350D09E012E523F4FF90180839183CE0180536C
S11350E09F4F9E0120533F4FF90120813181215070
S11350F03109FC0120833183CE0180539F4FFC0191
S113510080819181892BA1F67BC08E0100531F4FB2
S1135110CE0184539F4FFC01608171818281938110
S11351200E944463DC01CB01F80180839183CE01AA
S11351308C529F4F9E0120533F4FF90120813181B2
S1135140FC0120833183CE018C529F4FFC0180816E
S113515091810197F1F79E012C523F4FF901808311
S113516091834EC0CE0181549F4F20E030E04FE741
S113517053E4FC0160817181828193810E942564E2
S113518018166CF58E010A521F4FCE018D539F4F96
S1135190FC0160817181828193810E944463DC01FE
S11351A0CB01F80180839183CE0188529F4F9E01E9
S11351B02A523F4FF90120813181FC012083318340
S11351C0CE0188529F4FFC01808191810197F1F7B4
S11351D09E0128523F4FF9018083918340C38E0181
S11351E009531F4FCE0181549F4FFC01608171818F
S11351F0828193810E944463DC01CB01F8018083A6
S1135200CE0186529F4F9E0129533F4FF9012081C1
S1135210FC012083CE0186529F4FFC018081282F00
S11352202A95F1F7CE0186529F4FFC01208317C3C4
S113523080913A438C3308F08BC180E098ECAFE264
S1135240B7E4898F9A8FAB8FBC8F8E0105521F4FA5
S11352502BEA3AEA4AE250E4698D7A8D8B8D9C8D73
S11352600E942A64DC01CB01F80180839183A2832C
S1135270B3838E0101521F4F898D9A8DAB8DBC8DE6
S11352809C01AD01BC01CD010E946162DC01CB0136
S1135290F80180839183A283B383CE0185529F4F0B
S11352A020E030E040E85FE3FC01608171818281AD
S11352B093810E94CD6288233CF4CE018D519F4F8F
S11352C021E0FC0120832CC1CE0181529F4F20E0BC
S11352D03FEF4FE757E4FC01608171818281938144
S11352E00E94256418160CF0CDC020E030E04AE797
S11352F054E4698D7A8D8B8D9C8D0E94D262DC0181
S1135300CB019E012C513F4FF90180839183A283ED
S1135310B3838E0108511F4FCE018C519F4F20E063
S113532030E04AEF54E4FC01608171818281938111
S11353300E942A64DC01CB01F80180839183A2835B
S1135340B383CE0188519F4F20E030E040E85FE313
S1135350FC0160817181828193810E94CD628823E6
S11353604CF4CE0184519F4F21E030E0FC012083B6
S113537031836DC0CE0188519F4F20E03FEF4FE74E
S113538057E4FC0160817181828193810E942564CC
S113539018160CF04AC0CE018C519F4F20E030E02B
S11353A040E251E4FC0160817181828193810E9419
S11353B02A64DC01CB018E0104511F4FBC01CD01D5
S11353C00E944463DC01CB01F8018083918324C0F3
S11353D0CE0182519F4F28EC30E0FC0120833183C1
S11353E0CE0182519F4FFC01808191810197F1F799
S11353F09E0122513F4FF90180839183CE01845154
S11354009F4F9E0124513F4FF9012081318121504A
S11354103109FC0120833183CE0184519F4FFC016B
S113542080819181892BA1F67BC08E0104511F4F8D
S1135430CE0188519F4FFC016081718182819381EB
S11354400E944463DC01CB01F80180839183CE0187
S113545080519F4F9E0124513F4FF901208131819A
S1135460FC0120833183CE0180519F4FFC01808158
S113547091810197F1F79E0120513F4FF9018083FB
S113548091834EC0CE0185529F4F20E030E04FE71C
S113549053E4FC0160817181828193810E942564BF
S11354A018166CF58E010E501F4FCE0181529F4F7E
S11354B0FC0160817181828193810E944463DC01DB
S11354C0CB01F80180839183CE018C509F4F9E01C4
S11354D02E503F4FF90120813181FC01208331831B
S11354E0CE018C509F4FFC01808191810197F1F78F
S11354F09E012C503F4FF90180839183B0C18E01EE
S11355000D511F4FCE0185529F4FFC016081718167
S1135510828193810E944463DC01CB01F801808382
S1135520CE018A509F4F9E012D513F4FF90120819A
S1135530FC012083CE018A509F4FFC018081282FDB
S11355402A95F1F7CE018A509F4FFC01208387C131
S113555080E090E5A3E4B7E48D8F9E8FAF8FB8A36E
S11355608E0109501F4F2BEA3AEA4AE250E46D8D4E
S11355707E8D8F8D98A10E942A64DC01CB01F801F5
S113558080839183A283B3838E0105501F4F8D8D39
S11355909E8DAF8DB8A19C01AD01BC01CD010E94CF
S11355A06162DC01CB01F80180839183A283B38320
S11355B0CE0189509F4F20E030E040E85FE3FC01DA
S11355C060817181828193810E94CD6288233CF441
S11355D0CE0181509F4F21E0FC01208329C1CE01DF
S11355E085509F4F20E03FEF4FE757E4FC01608177
S11355F07181828193810E94256418160CF0CAC0BF
S113560020E030E04AE754E46D8D7E8D8F8D98A1C3
S11356100E94D262DC01CB019E013395F9018083A3
S11356209183A283B3838E010C5F1E4FCE019395A9
S113563020E030E04AEF54E4FC0160817181828112
S113564093810E942A64DC01CB01F8018083918359
S1135650A283B383CE018C5F9E4F20E030E040E80C
S11356605FE3FC0160817181828193810E94CD623C
S113567088234CF4CE01885F9E4F21E030E0FC018A
S1135680208331836CC0CE018C5F9E4F20E03FEFBE
S11356904FE757E4FC0160817181828193810E940C
S11356A0256418160CF049C0CE01939520E030E033
S11356B040E251E4FC0160817181828193810E9406
S11356C02A64DC01CB018E01085F1E4FBC01CD01B1
S11356D00E944463DC01CB01F8018083918324C0E0
S11356E0CE01865F9E4F28EC30E0FC01208331839D
S11356F0CE01865F9E4FFC01808191810197F1F775
S11357009E01265F3E4FF90180839183CE01885F1D
S11357109E4F9E01285F3E4FF90120813181215027
S11357203109FC0120833183CE01885F9E4FFC0147
S113573080819181892BA1F67BC08E01085F1E4F69
S1135740CE018C5F9E4FFC016081718182819381C7
S11357500E944463DC01CB01F80180839183CE0174
S1135760845F9E4F9E01285F3E4FF9012081318165
S1135770FC0120833183CE01845F9E4FFC01808134
S113578091810197F1F79E01245F3E4FF9018083D7
S113579091834EC0CE0189509F4F20E030E04FE707
S11357A053E4FC0160817181828193810E942564AC
S11357B018166CF58E01025F1E4FCE0185509F4F67
S11357C0FC0160817181828193810E944463DC01C8
S11357D0CB01F80180839183CE01805F9E4F9E01AF
S11357E0225F3E4FF90120813181FC012083318306
S11357F0CE01805F9E4FFC01808191810197F1F77A
S11358009E01205F3E4FF9018083918328C08E0161
S113581001501F4FCE0189509F4FFC01608171815F
S1135820828193810E944463DC01CB01F80180836F
S1135830CE018E5E9E4F9E0121503F4FF901208183
S1135840FC012083CE018E5E9E4FFC018081282FB7
S11358502A95F1F7CE018E5E9E4FFC012083809144
S11358603A438F5F80933A4380913A43873410F4EC
S11358700C94C61F80E090E0A0EFB1E489A39AA342
S1135880ABA3BCA38E010D5E1E4F20E030E04AEFB7
S113589054E469A17AA18BA19CA10E942A64DC0131
S11358A0CB01F80180839183A283B383CE018D5E03
S11358B09E4F20E030E040E85FE3FC0160817181AD
S11358C0828193810E94CD6288234CF4CE01895E4B
S11358D09E4F21E030E0FC012083318369C0CE017A
S11358E08D5E9E4F20E03FEF4FE757E4FC0160815F
S11358F07181828193810E94256418160CF046C040
S113590020E030E040E251E469A17AA18BA19CA19E
S11359100E942A64DC01CB018E01095E1E4FBC018A
S1135920CD010E944463DC01CB01F80180839183A3
S113593024C0CE01875E9E4F28EC30E0FC0120831A
S11359403183CE01875E9E4FFC0180819181019756
S1135950F1F79E01275E3E4FF90180839183CE01CA
S1135960895E9E4F9E01295E3E4FF901208131815F
S113597021503109FC0120833183CE01895E9E4F81
S1135980FC0180819181892BA1F62CC08E01095ED6
S11359901E4FCE018D5E9E4FFC016081718182811C
S11359A093810E944463DC01CB01F80180839183DD
S11359B0CE01855E9E4F9E01295E3E4FF9012081F6
S11359C03181FC0120833183CE01855E9E4FFC0131
S11359D0808191810197F1F79E01255E3E4FF90187
S11359E0808391830000C45EDE4FCDBFDEBFDF91B4
S11359F0CF911F910F910895CF93DF93CDB7DEB769
S1135A0080E094E020E4FC0125830000DF91CF9145
S1135A100895CF93DF93CDB7DEB780E094E020E420
S1135A20FC0126830000DF91CF910895CF93DF938B
S1135A30CDB7DEB780EA94E028E0FC0126830000BD
S1135A40DF91CF910895CF93DF93CDB7DEB780EA8E
S1135A5094E028E0FC0125830000DF91CF910895B4
S1135A60CF93DF93CDB7DEB780E09AE020E03AE051
S1135A70F90122852160FC01228780E09AE0FC0183
S1135A80118280E09AE020E03AE0F90121852E7F3E
S1135A90FC01218780E09AE02FEF3FEFFC0126A371
S1135AA037A380E09AE02FE0FC0120830000DF911F
S1135AB0CF910895CF93DF93CDB7DEB780E09AE01E
S1135AC0FC01108280E09AE0FC0112861092E4420C
S1135AD00000DF91CF9108951F920F9200903F0034
S1135AE00F92112400903B000F922F938F939F935A
S1135AF0EF93FF93CF93DF93CDB7DEB7F894809104
S1135B00E4428F5F8093E44280E09AE021E0FC016C
S1135B1023878091D542813051F48091E4428730CB
S1135B2078F088ED91E084BF9093410009C08091A2
S1135B30E442853228F088ED91E084BF90934100DF
S1135B4078940000DF91CF91FF91EF919F918F9115
S1135B502F910F9000923B000F9000923F000F9006
S1135B601F9018951F920F9200903F000F921124DE
S1135B7000903B000F922F933F934F935F936F934B
S1135B807F938F939F93AF93BF93EF93FF93CF93A1
S1135B90DF93CDB7DEB72E97CDBFDEBFF89480E09C
S1135BA090E0A8E4B2E489839A83AB83BC8320E0C9
S1135BB030E04AEF54E469817A818B819C810E94B0
S1135BC02A64DC01CB018D839E83AF83B88720E0F8
S1135BD030E040E85FE36D817E818F8198850E948B
S1135BE0CD6288232CF481E090E089879A873FC0B6
S1135BF020E03FEF4FE757E46D817E818F819885E8
S1135C000E94256418164CF520E030E040E251E48F
S1135C1069817A818B819C810E942A64DC01CB0199
S1135C20BC01CD010E944463DC01CB0189879A87C2
S1135C300FC088EC90E08B879C878B859C850197AF
S1135C40F1F78B879C8789859A85019789879A873D
S1135C5089859A85892B69F714C06D817E818F812E
S1135C6098850E944463DC01CB0189879A878985E2
S1135C709A858D879E878D859E850197F1F78D87FF
S1135C809E8780E094E0FC0180858093DE428091D1
S1135C90DE42882F90E080719927892B21F081E0E2
S1135CA08093434302C01092434380E094E02FEF7B
S1135CB0FC01218780E294E02FEFFC01218780E43E
S1135CC094E02FEFFC01218780E894E02FEFFC01A2
S1135CD02187789400002E96CDBFDEBFDF91CF914F
S1135CE0FF91EF91BF91AF919F918F917F916F91B0
